:020000040800F2
:10000000C004002001010008BD1000080B01000819
:10001000B9100008C10900086B1D000800000000AD
:1000200000000000000000000000000001130008B4
:10003000B50C0008000000001701000819010008B5
:100040001B0100081B0100081B0100081B01000820
:100050001B0100081B0100081B0100081B01000810
:100060001B0100081B0100081B0100081B01000800
:100070001B0100081B0100081B0100081B010008F0
:100080001B0100081B0100081B0100081B010008E0
:100090001B0100081B0100081B0100081B010008D0
:1000A0001B0100081B0100081B0100081B010008C0
:1000B000FD1400082D1700081B0100081B01000893
:1000C0001B0100081B0100081B0100081B010008A0
:1000D0001B010008991A0008351B00081B010008C5
:1000E0001B0100081B0100081B010008DFF80CD0F1
:1000F00000F044FC0048004791280008C00400209C
:100100000648804706480047FEE7FEE7FEE7FEE7B1
:10011000FEE7FEE7FEE7FEE7FEE7FEE71514000850
:10012000ED000008F0B480EA0102D40F4200B2EB07
:10013000410F02D20246084611464A0042D0C30D82
:10014000DDB2C1F3C752AD1A202D35DAC1F3160165
:1001500041F4000204B15242C5F1200602FA06F150
:100160002A411044B3EBD05F23D0C4B1012DA0EBE2
:10017000C35009DCF0BC4FF0004202EAC352DBB2CC
:1001800000F5000000F057BB400000F1807000EB6C
:10019000C350A0F1807040EAD170490009E04908DD
:1001A00041EAC071A0EBC35000F50000400800EB2D
:1001B000C350F0BC00F036BB6142012202EB4101AA
:1001C000001BF6E7F0BC704781F00041AAE780F021
:1001D0000040A7E780EA010210B502F000434000AA
:1001E00022D04A001FD0010E01EB1261C0F356006D
:1001F000C2F3560240F4000042F40002A0FB0220C9
:1002000000047F39140400D0401C50EA124001D48D
:100210004000491EC2B20C0604EBD010401C40083E
:10022000802A02D003E0002010BD20F00100002948
:1002300000DA0020184310BD30B480EA010202F059
:10024000004530F0004221F0004013D090B1C30DC2
:10025000D40DC2F31601C0F31600E41A41F40001F4
:1002600040F400027D34914201D3641C00E0490057
:10027000002C02DA30BC002070474FF4000000234D
:10028000914201D3891A034340084FEA4101F7D153
:1002900051B1914202D14FF0004105E002D24FF03E
:1002A000010101E06FF0010103EBC450284430BCB0
:1002B00000F0B8BA2DE9FE4F804681EA0300C00F76
:1002C0000C46009021F0004123F00045B8EB0200FD
:1002D000A94105D24046214690461C460B4602469F
:1002E00023F00040104347D0270DC7F30A00C3F3A3
:1002F0000A510290401A019040286BDAC3F31300B0
:1003000040F4801B0098924620B10023D2EB030AF0
:1003100063EB0B0B01985946C0F14002504600F0C8
:1003200060FA06460D4650465946019A00F068FAB2
:1003300010EB08006141002487EA115284EAE77358
:100340001A4340D0009A62B3019A012A4FEA075239
:1003500015DC001B61EB02014FF0004202EA07527C
:10036000CDE90042001C41F5801132462B4600F0D9
:100370009FFA03B0BDE8F08F40462146F9E7001B25
:1003800061EB0201001C41F5801300185B4120184D
:10039000A2F5001747EB030140EAD570B6196D418D
:1003A00011E06D084FEA360645EAC0754FEA07527C
:1003B000001B61EB0201001C41F5801149084FEA66
:1003C00030000019514132462B4603B0BDE8F04FD2
:1003D00000F05FBA0098012240000023D0EB020237
:1003E00063EBE073009821464FEAE074B8EB00003D
:1003F00061EB0401E9E783F000435BE781F0004132
:1004000058E72DE9FE4F81EA030404F0004421F08F
:10041000004100944FF0000B23F0004350EA010428
:100420005ED052EA03045BD0C3F30A54C1F30A5509
:100430002C44A4F2F3340194A0FB0254C1F3130141
:1004400041F48011C3F3130343F4801301FB02440E
:1004500000FB034E840A970A44EA815447EA835713
:10046000A4FB076802958D0A05FB07854FEA932CCC
:1004700004FB0C542705029D4FEA065847EA16373D
:10048000B5EB08056EEB070C870E920E47EA811755
:1004900042EA8312A7FB0201B6EB0B0164EB0004F6
:1004A0002B0D43EA0C335E1844EB1C50DA465146E0
:1004B000E7FB0201C5F313044FEA0B3343EA14537D
:1004C0004FEA0432019C43EA0603A4F10C040294AF
:1004D000009CCDE900B400F0EBF903B0BDE8F08F6B
:1004E00000200146F9E72DE9F04D81EA030404F00C
:1004F000004B21F0004514464FF0000A23F0004164
:1005000050EA050220D054EA01021DD0C5F30A5773
:100510000246C5F31303C1F31300C1F30A5640F4B6
:10052000801543F48013A7EB0608101BD64608F28B
:10053000FD3873EB050002D308F1010801E09218C1
:100540005B41B8F1000F03DA00200146BDE8F08DF1
:1005500000204FF48011064684460EE0171B73EB13
:10056000050705D3121B63EB050306434CEA010C98
:1005700049084FEA300092185B4150EA0107EDD17B
:1005800052EA030012D082EA040083EA050108431C
:1005900005D0101BAB4106D20122002306E0002249
:1005A0004FF0004302E06FF0010253101AEB060017
:1005B0004CEB085110EB0A0041EB0B01BDE8F04D8C
:1005C00000F067B9C10F80EAE0700844CA079623BB
:1005D000002100F030B90EB5C10F80EAE070084488
:1005E000CA07002140F233438DE80E000A460B464D
:1005F00000F05EF903B000BD0EB540F23341029148
:100600000021CDE900110A460B4600F051F903B074
:1006100000BD00F0004220F00040C10DC0F3160004
:1006200040F400007F2901DA00207047962903DC9E
:10063000C1F19601C84001E096398840002AF4D003
:100640004042704720F00040C10DC0F3160040F456
:1006500000007F2901DA00207047962903DCC1F1F0
:100660009601C840704796398840704700F00042B4
:1006700030F000400AD0C10D01F56071C0F31600E2
:1006800042EA0151C2084007114370470020014669
:100690007047000030B5041E71F1000404DB4FF018
:1006A0000044404264EB0101141E73F1000405DBB9
:1006B0001C464FF00043524263EB04038B4208BFD9
:1006C000824230BD30B5041E71F1000404DB4FF0EE
:1006D0000044404264EB0101141E73F1000405DB89
:1006E0001C464FF00043524263EB0403994208BF9B
:1006F000904230BD01F0004330B421F0004150EA97
:10070000010206D00A0DA2F56072C1F31301002A9E
:1007100002DC30BC00207047440F44EAC104C10031
:10072000E01830BC00EBC25000F07CB8002801DBC0
:10073000C0F10040002901DBC1F100418142704756
:10074000002801DBC0F10040002901DBC1F10041BC
:100750008842704730B50B46014600202022012414
:1007600009E021FA02F59D4205D303FA02F5491B7F
:1007700004FA02F52844151EA2F10102F1DC30BD95
:100780002DE9F05F0546002092469B4688460646C6
:10079000814640241BE0284641464746224600F059
:1007A000FFF853465A46C01A914110D311461846D5
:1007B000224600F016F82D1A67EB01084F46224634
:1007C0000120002100F00DF817EB00094E41201E1A
:1007D000A4F10104DFDC484631462A464346BDE821
:1007E000F09F202A04DB203A00FA02F10020704733
:1007F0009140C2F1200320FA03F31943904070475F
:10080000202A06DBCB17203A41FA02F043EAE073D4
:1008100006E041FA02F3D040C2F1200291400843C1
:10082000194670470029A8BF7047401C490008BFFF
:1008300020F00100704710B4B0FA80FC00FA0CF010
:1008400050EA010404BF10BC704749B1CCF1200448
:1008500021FA04F411FA0CF118BF012121430843D5
:10086000A3EB0C01CB1D4FEA00614FEA102042BF01
:10087000002010BC704700EBC35010440029A4BFF7
:1008800010BC7047401C490008BF20F0010010BC9C
:10089000704710B5141E73F1000408DA401C41F1D2
:1008A000000192185B411A4301D120F0010010BDF4
:1008B0002DE9F04D92469B4611B1B1FA81F202E06A
:1008C000B0FA80F220329046FFF78BFF04460F46C5
:1008D00040EA0A0041EA0B0153465A46084313D046
:1008E000114653EA010019D0C8F14002504600F009
:1008F00057F805460E46504659464246FFF771FFE7
:10090000084305D0012004E020463946BDE8F08DBB
:100910000020054346EAE0762C4337430A986305F6
:10092000E40AA0EB08000022FD0A44EA47540A301A
:1009300002D500200146E9E7010510196941DDE90A
:10094000084500196941BDE8F04DA2E7C1F30A521C
:10095000C1F3130140F2FF3341F480119A4202DAED
:1009600000200146704740F233439A42A2F23342DC
:1009700002DC524200F014B8FFF733BF064C074DBB
:1009800006E0E06840F0010394E80700984710345F
:10099000AC42F6D3FFF7AEFBD02C0008F02C0008D9
:1009A000202A04DB203A21FA02F00021704721FAC4
:1009B00002F3D040C2F1200291400843194670472B
:1009C00000BFFEE710B50021837A012202FA03F18D
:1009D0003D4A126842F001023B4B1A603A4A1C320F
:1009E00012688A43384B1C331A60027BCAB9364AF4
:1009F0000C3212688A43344B0C331A604288C38825
:100A000042EA0343304A4032847A42F83430028862
:100A1000838842EA03432C4A4032847A02EBC402C0
:100A20005360027B012A19D1274A0C3212680A430B
:100A3000254B0C331A604288038842EA0343224A5A
:100A40004032847A42F83430C288838842EA0343D1
:100A50001D4A4032847A02EBC4025360C27A3AB92A
:100A6000194A121D12688A43174B1B1D1A6006E0B3
:100A7000154A121D12680A43134B1B1D1A60028986
:100A800032B9114A143212688A430F4B14331A6078
:100A90000289012A06D10C4A143212680A430A4B11
:100AA00014331A60427B012A06D1074A1C321268AD
:100AB0000A43054B1C331A60034A126822F00102F4
:100AC000014B1A6010BD00000066004030B50246C0
:100AD00000200023146824F002041460146844F019
:100AE0000104146000E05B1C546804F001041CB9AC
:100AF0004FF6FF74A342F6D1546804F001040CB918
:100B000000206CE08C79012C04D1146844F080043E
:100B1000146003E0146824F080041460CC79012C84
:100B200004D1146844F04004146003E0146824F015
:100B3000400414600C7A012C04D1146844F02004A1
:100B4000146003E0146824F0200414604C7A012C33
:100B500004D1146844F01004146003E0146824F015
:100B6000100414608C7A012C04D1146844F0080439
:100B7000146003E0146824F008041460CC7A012C9B
:100B800004D1146844F00404146003E0146824F0F1
:100B9000040414608C78A407CD7844EA05640D79C8
:100BA00044EA05444D7944EA05540D886D1E2C43F2
:100BB000D461146824F001041460002300E05B1C7D
:100BC000546804F001041CB14FF6FF74A342F6D13F
:100BD000546804F001040CB1002000E0012030BD95
:100BE0002DE9F04188B004460D4616461F46DDF853
:100BF00038800121042000F009FB0121480600F0A3
:100C0000F5FA4FF48050ADF81C0003208DF81E005B
:100C100018208DF81F0007A9244800F04CF84FF465
:100C20000060ADF81C0048208DF81F0007A91F4880
:100C300000F041F800208DF816008DF817008DF8AF
:100C400018008DF819008DF81A0001208DF81B008E
:100C50008DF812808DF813408DF814608DF81550C2
:100C6000ADF8107004A91248FFF730FF00208DF88E
:100C70000A008DF80B0001208DF80C002020ADF843
:100C800000000020ADF802002020ADF80400002094
:100C9000ADF80600ADF8080001208DF80D0068469B
:100CA000FFF790FE002008B0BDE8F0810008014089
:100CB0000064004070472DE9F041024600250026FF
:100CC000002000230024002791F803C00CF00F053A
:100CD00091F803C00CF0100CBCF1000F03D091F898
:100CE00002C04CEA050591F800C0BCF1000F31D0FC
:100CF000146800202BE04FF0010C0CFA00F3B1F85F
:100D000000C00CEA03069E4220D183004FF00F0C76
:100D10000CFA03F7BC4305FA03FC4CEA040491F80F
:100D200003C0BCF1280F06D14FF0010C0CFA00FCF7
:100D3000C2F814C00AE091F803C0BCF1480F05D115
:100D40004FF0010C0CFA00FCC2F810C0401C08283F
:100D5000D1D31460B1F800C0BCF1FF0F34DD54688A
:100D600000202EE000F1080C4FF0010808FA0CF307
:100D7000B1F800C00CEA03069E4221D183004FF077
:100D80000F0C0CFA03F7BC4305FA03FC4CEA04040D
:100D900091F803C0BCF1280F05D100F1080C08FA46
:100DA0000CF8C2F8148091F803C0BCF1480F07D1C9
:100DB00000F1080C4FF0010808FA0CF8C2F8108096
:100DC000401C0828CED35460BDE8F08141617047D3
:100DD0000161704710B500200E4908600E48006898
:100DE00020F0F0000C4908600846006840F0300030
:100DF000086000200949C1F8A401012001F0F4FCB9
:100E000001200449086001F0EFFC00200349C1F80B
:100E1000A00110BDA0812142040C014000802142AC
:100E200008B50121082000F0F1F94FF44070ADF849
:100E3000000010208DF8030003208DF802006946A1
:100E40000448FFF738FF4FF440710248FFF7C0FF36
:100E500008BD0000000C014010B500200E490860DC
:100E60000E48006820F0F0000C4908600846006851
:100E700040F03000086001200949C1F8A40101F0E8
:100E8000B3FC01200449086001F0AEFC00200449D5
:100E9000C1F8A00110BD0000A0812142040C014056
:100EA0000080214270B5054600241748006820F0F4
:100EB000F000154908600846006840F080000860AE
:100EC000002616E0002011490860012001F08CFC8A
:100ED00001200F49C1F8A0016006040E0B487C38C0
:100EE000006808B1601CC4B2012001F07DFC701CD8
:100EF000C6B2082EE6DB15B9FFF7AEFF01E0FFF73B
:100F000069FF204670BD0000040C0140A081214211
:100F10000080214270B504461848006820F0F000B7
:100F2000164908600846006840F03000086000205C
:100F30001349086000251DE0E00920B10120104997
:100F4000091D086003E000200D49091D08606006C6
:100F5000040E012001F048FC01200949086001F05D
:100F600043FC00200749C1F8A001012001F03CFC2E
:100F7000681CC5B2082DDFDB70BD0000040C014009
:100F8000A08121420080214210B50F48006820F066
:100F9000F0000D4908600846006840F03000086025
:100FA00001200A4908600A49C1F8A00101F01CFCAF
:100FB000002006490860012001F016FC00200449C9
:100FC000C1F8A00110BD0000040C0140A481214221
:100FD0000080214210B50E48006820F0F0000C4956
:100FE00008600846006840F03000086001200949A8
:100FF000086000200849C1F8A401012001F0F4FBB9
:1010000001200449091D086001F0EEFB10BD00003D
:10101000040C0140A08121420080214210B500242F
:101020001448006820F0F000124908600846006883
:1010300040F08000086001200F49086001F0D4FBF7
:1010400001200E49C1F8A00101F0CEFB07E0601CB1
:10105000C4B2FA2C03DDFFF7BDFF012010BD064826
:10106000803800680028F2D10349091F086000BFDA
:10107000F4E70000040C0140A481214200802142D9
:1010800008B50121082000F0C1F84FF40040ADF888
:10109000000010208DF8030003208DF8020069463F
:1010A0000448FFF708FE4FF400410248FFF78EFEA8
:1010B00008BD0000000C014000BFFEE770470000C3
:1010C00070B5002100230F22C47804B3154C2468A6
:1010D00004F4E064C4F5E064210AC1F10403CA40E9
:1010E000447804FA03F184781440214309010E4C3A
:1010F0000678A155047804F01F050124AC4005785A
:101100006D11AD0005F1E025C5F8004109E0047856
:1011100004F01F050124AC40044D0678761145F813
:10112000264070BD0CED00E000E400E080E100E04E
:1011300002490143024A1160704700000000FA05AD
:101140000CED00E02DE9F04105460E4617461C4621
:101150003A463146284601F0B3FC204601F0BEFC79
:1011600001F0CCFA204600F003F8BDE8F081000061
:101170007FB504460121022000F038F819492046C5
:10118000FFF728F806464FF07E51FFF71DF8054699
:10119000FFF758FA80B2ADF808004720ADF8040018
:1011A0000020ADF80A00ADF8060001A90E4800F0D5
:1011B00021FC012211460C4800F059FB1D208DF83E
:1011C000000004208DF8010001208DF802008DF848
:1011D00003006846FFF774FF0121034800F02AFB73
:1011E0007FBD000000007A440004004029B1064A97
:1011F000D2690243044BDA6104E0034AD2698243B4
:10120000014BDA61704700000010024029B1064A24
:1012100092690243044B9A6104E0034A9269824353
:10122000014B9A61704700000010024030B5002168
:101230000022002400232D4D6D6805F00C0121B122
:10124000042905D0082923D105E0294D056022E0B5
:10125000274D05601FE0254D6D6805F47012234D84
:101260006D6805F48034022505EB92421CB9214DCE
:10127000554305600BE01D4D6D6805F400351DB14B
:101280001C4D5543056002E0194D5543056002E0D1
:10129000174D056000BF00BF144D6D6805F0F001EB
:1012A0000909154D6B5C0568DD4045600F4D6D68A3
:1012B00005F4E061090A104D6B5C4568DD4085600E
:1012C0000A4D6D6805F46051C90A0B4D6B5C4568A9
:1012D000DD40C560054D6D6805F44041890B074D43
:1012E0006B5CC568B5FBF3F5056130BD00100240CD
:1012F00000127A0000093D008800002098000020BC
:10130000704710B500F002F810BD00000CB50020C9
:10131000019000903348006840F480303149086003
:1013200000BF3048006800F4003000900198401C75
:101330000190009818B90198B0F5A06FF1D1294833
:10134000006800F4003010B10120009001E000209E
:1013500000900098012843D12348006840F0100015
:10136000214908600846006820F00300086008462C
:10137000006840F0020008601A4840681949486057
:101380000846406848600846406840F4806048600D
:101390000846406820F47C1048600846406840F4E5
:1013A000E81048600846006840F08070086000BFA0
:1013B0000C48006800F000700028F9D00948406827
:1013C00020F00300074948600846406840F00200EA
:1013D000486000BF0348406800F00C000828F9D1BD
:1013E0000CBD00000010024000200240042808D17B
:1013F0004FF0E021096941F004014FF0E022116152
:1014000007E04FF0E021096921F004014FF0E022EC
:101410001161704710B51348006840F00100114990
:10142000086008464068104908400E494860084670
:1014300000680E4908400B4908600846006820F41F
:10144000802008600846406820F4FE0048604FF4A1
:101450001F008860FFF755FF4FF0006004490860E7
:1014600010BD0000001002400000FFF8FFFFF6FE74
:1014700008ED00E07FB504460121C802FFF7C6FE73
:101480001C492046FEF7A6FE06464FF07E51FEF7A9
:101490009BFE0546FFF7D6F880B2ADF8080047205E
:1014A000ADF804000020ADF80600ADF80A008DF894
:1014B0000C0001A9104800F09DFA01210E4800F02F
:1014C000B3F9012211460C4800F0D1F919208DF82A
:1014D000000000208DF801008DF8020001208DF839
:1014E00003006846FFF7ECFD0121034800F0A2F974
:1014F0007FBD000000007A44002C01402DE9F0413E
:101500000121880700F0A2F9002814D001218807E2
:1015100000F08DF94D494E480068FFF707F90BD1EF
:1015200001F0AFF94B490860084600684849086077
:1015300000204949088086E001F0A3F94549086088
:1015400045480088454908600020434908804348D1
:101550000068FFF740F806460022414BFEF7C3FF44
:101560000446FFF7C7F83F49086039480168394821
:101570000068FEF729FE3C49086008460068FFF74E
:1015800075F80446394A3A4BFFF784F80CD83648C8
:101590000068FFF76BF80446344A364BFFF792F8C1
:1015A00002D800203049086000212F480068FFF76A
:1015B000C7F815D830492C480068FFF7B7F803D8AA
:1015C00001202E4908601DE04FF0FF302B490860D4
:1015D0002B4925480068FEF7F7FD2349086011E014
:1015E000284921480068FFF7ABF804D84FF0FF30D6
:1015F0002249086006E022491B480068FEF792FD78
:10160000194908601748016817480068FEF714FE7A
:101610008046FFF72BF806461B4A1C4BFEF7F1FEEF
:101620000446FFF767F81A4908600A480068084945
:1016300008600D480068FFF719F8044622460B467B
:1016400014A000F095FBBDE8F0810000000080BF11
:101650006400002060000020242C01408400002051
:1016600000408F40800000207800002044DC9C4A2D
:101670000680B63F0680B6BF0000B44200000020DE
:101680000000B4430000B4C2771F575555D56440DD
:1016900068000020413A2025662000007FB50446FE
:1016A00001210846FFF7A2FD1E492046FEF792FDE4
:1016B00006464FF07E51FEF787FD0546FEF7C2FF56
:1016C00080B2ADF808004720ADF804001549204667
:1016D000FEF7B2FD0546FEF7C9FF134A03C200201C
:1016E000ADF80A00ADF8060001A94FF0804000F007
:1016F00081F901221146900700F0B9F81C208DF8FD
:10170000000000208DF801008DF8020001208DF806
:1017100003006846FFF7D4FC0121880700F08AF82F
:101720007FBD000000007A447000002070B50121E8
:101730001C4800F08BF8A0B301211A4800F077F89C
:101740001948006801F0B6F9184919480068FEF711
:10175000EDFF11D01648006801F03CFA0546154827
:101760000068FEF72FFF06462946FEF7DBFC04461D
:10177000FEF74FFF0F4908600E480068FF2803DDA1
:10178000FF200C49086008E00A48006810F1FF0FCC
:1017900003DA6FF0FE00074908600648006801F0B0
:1017A000DBF870BD0004004004000020000080BF92
:1017B000680000207C00002030B587B005460C464C
:1017C00001210420FFF712FD01F092F8ADF814504A
:1017D000ADF810400020ADF81600ADF8120004A9D5
:1017E000104800F007F96020ADF800000120ADF8C6
:1017F00002000020ADF8080069460A4800F040F8F1
:101800006946084800F092F80821064800F084F87C
:101810000821044800F0DCF80121024800F00AF831
:1018200007B030BD00080040CA4302827047CA4377
:101830000282704721B1028842F00102028004E076
:1018400002884FF6FE731A400280704730B5024698
:10185000002000230024158A05EA0103958905EA82
:10186000010413B10CB1012000E0002030BD1AB119
:1018700083890B43838102E083898B438381704793
:1018800070B5002400220023058C4FF6FE7635400B
:101890000584028C8388048B4FF68F752C40B51E0F
:1018A0002C400D882C43751E2A400D892A434D88F3
:1018B0002A43144DA8420BD0134DA84208D0134D13
:1018C000A84205D0124DA84202D0124DA84213D111
:1018D0004FF6F7752A404D892A434FF6FB752A408B
:1018E0008D882A434FF6FF652B404FF6FF552B405E
:1018F0008D892B43CD892B4383800483CD888586B6
:10190000028470BD002C01400034014000400140C1
:1019100000440140004801400A460021018B4FF677
:10192000F7731940114301837047000070B500241C
:1019300000220023058C4FF6EF7635400584028C9B
:101940008388048B48F6FF752C404FF6FF452C40EA
:101950000D884FF6FF7606EA05252C434FF6DF7516
:101960002A400D8906EA05152A434D8806EA051521
:101970002A43154DA84202D0144DA8421DD14FF65E
:101980007F752A404D894FF6FF7606EA05152A43F2
:101990004FF6BF752A408D8806EA05152A434FF693
:1019A000FF352B404FF2FF752B408D8906EA8505E8
:1019B0002B43CD8906EA85052B4383800483CD889C
:1019C0000587028470BD0000002C014000340140F6
:1019D0000A460021018B4FF2FF7319404FF6FF7347
:1019E00003EA022319430183704781867047018708
:1019F00070470000002202881D4B98420ED01D4BFC
:101A000098420BD0B0F1804F08D01B4B984205D0C4
:101A10001A4B984202D01A4B984204D14FF68F735A
:101A20001A404B881A43174B984207D0164B9842DE
:101A300004D04FF6FF431A40CB881A4302808B88AC
:101A400083850B8803850A4B98420BD0094B98423B
:101A500008D00E4B984205D00D4B984202D00D4B4A
:101A6000984201D10B7A03860123838270470000DC
:101A7000002C0140003401400004004000080040F8
:101A8000000C0040001000400014004000400140E5
:101A9000004401400048014010B540F22551224861
:101AA00000F0A2F800283ED01F4800F059F9C4B257
:101AB0001E48008800F4004018BB1C48008800F451
:101AC0008040B0B1442C03D00020184908802AE09F
:101AD00016480088C0F30D00082803D000201349E1
:101AE000088020E01148008840F400400F49088039
:101AF00019E0452C06D10D48008840F480400B4980
:101B0000088010E009480088C0F30D0008490C5413
:101B100006480088401C05490880084600880828B7
:101B200001DD0020088010BD003801405C0000206D
:101B30004C00002010B540F22551224800F054F826
:101B400000283ED01F4800F00BF9C4B21E480088A0
:101B500000F4004018BB1C48008800F48040B0B17D
:101B60000A2C03D00020184908802AE01648008873
:101B7000C0F30D00072803D000201349088020E09F
:101B80001148008840F400400F49088019E00D2CEE
:101B900006D10D48008840F480400B49088010E0D1
:101BA00009480088C0F30D0008490C540648008815
:101BB000401C0549088008460088072801DD0020F0
:101BC000088010BD004400405E000020540000204A
:101BD00021B1828942F40052828104E082894DF66B
:101BE000FF731A408281704770B5024600240023BB
:101BF0000025002040F66A16B14200D100BFC1F3B3
:101C0000421501F01F03012606FA03F3012D02D14C
:101C10009689334006E0022D02D1168A334001E056
:101C2000968A33400C12012606FA04F416883440D2
:101C300013B10CB1012000E0002070BDF0B50346E7
:101C4000002400260025002040F66A17B94200D182
:101C500000BF1846C1F3421401F01F06012707FA1E
:101C600006F5012C01D10C3004E0022C01D110301A
:101C700000E014301AB107682F43076002E00768DC
:101C8000AF430760F0BD00002DE9F04786B0054680
:101C90000E460024A24600BFA1460027B08900B12D
:101CA00000BF2F462C8A4CF6FF700440F088044396
:101CB0002C82AC894EF6F3100440B0883189084379
:101CC000718908430443AC81AC8A4FF6FF4004405D
:101CD000B0890443AC8201A8FFF7A8FA1F488742E5
:101CE00002D1DDF810A001E0DDF80CA0A88900F415
:101CF000004040B10AEBCA0000EB0A10316849000D
:101D0000B0FBF1F807E00AEBCA0000EB0A103168FB
:101D10008900B0FBF1F86420B8FBF0F00401200961
:101D2000642101FB1089A88900F4004040B13220F1
:101D300000EBC900B0FBF1F000F00700044308E03D
:101D4000322000EB09106421B0FBF1F000F00F002D
:101D500004432C8106B0BDE8F08700000038014044
:101D600001468888C0F30800704700BFFEE7000006
:101D70000FB4054B10B503A9044A029800F0DAF835
:101D800010BC5DF814FB00004D280008480000203E
:101D900002E008C8121F08C1002AFAD17047704734
:101DA000002001E001C1121F002AFBD17047000092
:101DB0002DE9FF5F82B00021DDE90430020DDDF87E
:101DC00040B0034318D044F61050A2F2FF32424311
:101DD0001514119801281FD0A5EB0B00401C5FEAD9
:101DE000000A4FF000064E4FDFF83891B0465046DB
:101DF00015D5CAF1000413E0119801244AA3012863
:101E000001D16FEA0B010298119AC0E90031C0E9D3
:101E1000024206B0BDE8F09FCBF10000DFE70446C8
:101E20000021404A491842EB0450CDE9001012E06D
:101E3000E00707D032463B4640464946FEF7E1FA06
:101E40008046894632463B4610461946FEF7D9FA87
:101E500006460F466410002CEAD1DDE90401DDE9F5
:101E60000023BAF1000F06DAFEF7CBFA42464B46E2
:101E7000FEF7C7FA05E0FEF736FB42464B46FEF793
:101E800032FB04460E460022284BFEF71BFC03D80B
:101E90004FF0FF30014607E00022254B2046314637
:101EA000FEF708FAFEF752FD102409E0002C0ADBC9
:101EB0000A220023FEF764FC039B30321A55641E8D
:101EC00050EA0102F2D1641C039AC4F111031444D4
:101ED000119A012A03D0012208430DD10AE00843D8
:101EE00004D000204FF0110B119072E7A3EB0B050B
:101EF0006D1E0DE05B4504DD4FF0000205F10105AC
:101F000004E003DA4FF00002A5F10105002AECD04D
:101F100002981199C0E90231C0E9004579E7000053
:101F2000000014400000F03F300000000000F043CB
:101F30000000E03F2DE9FF4F95B09B4689460646DD
:101F400000250FE2252877D100242746F84A0121F1
:101F5000059400E0044316F8013F203B01FA03F02A
:101F60001042F7D130782A2811D06FF02F03307843
:101F7000A0F13002092A16D8059A44F0020402EBB7
:101F8000820203EB42021044761C0590EFE759F8F9
:101F9000042B0592002A03DA504244F400540590C1
:101FA00044F00204761C30782E2816D116F8010F62
:101FB00044F004042A280DD06FF02F023078A0F1ED
:101FC0003003092B09D807EB870302EB4303C7183B
:101FD000761CF3E759F8047B761C30786C280FD018
:101FE00006DC4C2817D068280DD06A2814D104E0EC
:101FF000742810D07A280FD10DE044F400140AE0C0
:1020000044F4801401E044F440147278824202D116
:1020100004F58014761C761C307866280BD013DC0F
:10202000582877D009DC002875D04528F6D04628F6
:10203000F4D047281AD19DE118E0632835D06428F0
:1020400079D0652812D195E1702873D008DC672813
:10205000F1D069286FD06E280DD06F2806D1B5E079
:1020600073282CD0752875D0782874D05A461799C3
:1020700090476D1C75E1C4F30250022809D0032873
:102080000DD0D9F8001004280DD00D6009F1040915
:1020900067E1D9F80010EA17C1E90052F6E7D9F86C
:1020A00000100D80F2E70D70F0E719F8041B8DF8B1
:1020B000001000208DF80100EA46012003E059F8E5
:1020C00004AB4FF0FF3061074FF0000102D40DE088
:1020D00008F101018846B9420FDA8045F8DB1AF8A9
:1020E00008100029F4D108E008F101018846814276
:1020F000FADB1AF808100029F6D105985B46A0EB28
:10210000080721463846179A00F094FA284400EB55
:10211000080507E04DE029E10DE01AF8010B5A46E9
:1021200017999047B8F10108F7D25B462146384627
:10213000179A13E142E00A220092C4F302524FF0D0
:10214000000A022A08D059F804CB032A4FEAEC719E
:102150000AD00DE029E02AE009F1070121F0070289
:10216000F2E802C1914609E00FFA8CFC4FEAEC71EB
:10217000042A03D14FFA8CFC4FEAEC71002907DAEC
:102180000A460021DCF1000C61EB02012D2202E085
:10219000220504D52B228DF80420012203E0E2075A
:1021A00001D02022F7E7904659E00A2102E01022F0
:1021B0000DE010214FF0000A00910BE010224FF0CB
:1021C000000A44F004040827009203E008224FF0BC
:1021D000000A0092C4F30252022A05D059F804CB37
:1021E0000021032A08D009E009F1070121F00702C4
:1021F000F2E802C1914605E01FFA8CFC042A01D1E5
:102200000CF0FF0C4FF00008220728D5702806D0EC
:10221000009B83F0100353EA0A0305D00EE040222E
:102220008DF80420012208E05CEA010206D0302289
:102230008DF804208DF8050002229046009B83F063
:10224000080353EA0A030AD15CEA010201D16207DA
:1022500005D530228DF804204FF001087F1E582844
:1022600004D034A003900EA802900DE036A0F9E748
:1022700053466046009AFEF783FA84460398825CD0
:102280000298401E029002705CEA0100F0D10298B0
:1022900006A9081A00F1200A600702D524F4803448
:1022A00000E00127574502DDA7EB0A0000E000200F
:1022B00000EB0A01009005984144401A0590E003A4
:1022C00006D45B462146179A059800F0B3F90544F9
:1022D000002706E001A85A46C05D179990476D1C7B
:1022E0007F1C4745F6DBE0030CD55B462146179A79
:1022F000059800F09FF9054404E030205A461799EC
:1023000090476D1C0099481E00900029F5DC08E0FC
:10231000029802995A460078491C029117999047F1
:102320006D1CBAF10001AAF1010AF1DC65E10000BF
:10233000092801003031323334353637383961629B
:10234000636465660000000030313233343536375F
:1023500038394142434445460000000000F058F936
:102360000544761C307800287FF4ECAD19B028467F
:10237000BDE8F08F620700D4062709F1070222F0BA
:10238000070CFCE80223E14603F000485FEA080C72
:1023900002D00FF2702C0DE05FEA045C02D50FF260
:1023A000682C07E05FEAC47C02D00FF2602C01E0E9
:1023B000AFF2700C4FF0FF3823F00043CDF850C05F
:1023C00065280CD006DC452809D046281DD04728B2
:1023D0003DD13DE0662818D067287ED138E0002145
:1023E000112F01DB112000E0781CCDE9000106A9C6
:1023F0000EA8FFF7DDFCDDE90F010E9A0391002125
:10240000009207F1010A04914DE04FF0004000975F
:10241000CDE9011006A90EA8FFF7CAFCDDE90F02FD
:1024200003920E9B11990022DDF80CA000930492F8
:1024300011B9791C00EB010AB7EB0A0004D4C0F112
:10244000FF3007F1010A0490AAEB0700019044E075
:10245000012F00DA01270021112F01DD112000E0FA
:102460003846CDE9000106A90EA8FFF7A1FCDDE979
:102470000F010E9A0391002104910092BA462107A0
:102480000CD40399514500DA8A46BAF1010F05DDF3
:10249000009AAAF10101515C302908D0B84202DA51
:1024A00010F1040F06DA0121CDE9011015E0AAF1BF
:1024B0000101E9E7002805DC049901440491AAEB35
:1024C000000102E0411C514500DD8A460499401A92
:1024D000401C01904FF000400290200704D4019866
:1024E000504501DBCDF8048000208DF84F000298A4
:1024F0000DF14F07B0F1004F25D02B200E90029820
:102500004FF0020800280CDA404202902D200E9075
:1025100007E00A210298FEF71DF93031029007F812
:10252000011DB8F10001A8F10108F2DC02980028B1
:10253000EFD1791E0E980870307800F0200040F03E
:10254000450007F8020D12A8C01B00F107081498F7
:10255000007800B1012000EB0A01019801EBE07165
:1025600005984144401A401E0590E00306D45B469E
:102570002146179A059800F05DF8054414980078F4
:1025800018B15A46179990476D1CE00324D55B4655
:102590002146179A059800F04DF805441CE0049870
:1025A000002807DBDDE90301884203DD0098405C79
:1025B000179901E0179930205A469047049805F181
:1025C0000105401C04900198401E019004D12E206A
:1025D0005A46179990476D1CBAF10001AAF1010AF9
:1025E000DDDC05E017F8010B5A46179990476D1C82
:1025F000B8F10001A8F10108F4DC5B462146179A06
:102600000598ABE62D0000002B0000002000000024
:102610002DE9F041044600251E461746880404D4DF
:1026200005E039462020B0476D1C641EF9D52846C8
:10263000BDE8F0812DE9F041044600251E46904694
:10264000C80301D5302700E02027880404D505E021
:1026500041463846B0476D1C641EF9D52846BDE892
:10266000F081000010B5FEF7DBFB00F0E3F8002876
:1026700020D11DE000F0DEF8012812D100F0F4F8BE
:10268000044621460FA0FFF773FB002000F02CFA50
:102690004FF4B47000F0EAF94FF4FA7000F07EF8ED
:1026A00007E00EA0FFF764FB4FF47A7000F076F8B5
:1026B000E0E700BF0F48FEF7DDFE0F48FEF7EEFF34
:1026C00010BD000043757272656E74204D61676EB7
:1026D00069747564653A2025640D0A0043616E27AC
:1026E0007420646574656374206D61676E65740D34
:1026F0000A00000000002041CDCCCC3D002006495E
:1027000008600649086006490860064908600649ED
:102710000860064908607047140000201800002077
:102720001C000020200000202400002028000020A1
:102730002DE9F04704462046FDF75EFF07460022DC
:10274000044BFDF75EFE0546FDF7D4FF8146484683
:10275000BDE8F0870080B63F10B56FF00400FEF7CB
:1027600045FE0A4800680A49B0FBF1F009490870C3
:102770000846007800EB4001C1EBC0104FF6FF7136
:1027800001EAC0000449088010BD00009C00002040
:1027900000127A0042000020440000200146114A45
:1027A00012884A434FF0E0235A6100229A611A4688
:1027B000126942F001021A6100BF4FF0E022106975
:1027C00000F001021AB100F48032002AF5D04FF077
:1027D000E022126922F001024FF0E0231A61002288
:1027E0009A617047440000200146114A12784A431A
:1027F0004FF0E0235A6100229A611A46126942F0B2
:1028000001021A6100BF4FF0E022106900F00102DE
:102810001AB100F48032002AF5D04FF0E02212699C
:1028200022F001024FF0E0231A6100229A61704702
:102830004200002070B500250B2000F0B5F80446DA
:1028400004F0200000B10125284670BD00BF054AF4
:10285000128802F04002002AF9D0C2B2014B1B1DBF
:102860001A8070470044004010B51C211B2000F066
:10287000B7F8C0B210BD10B50D210C2000F0B0F8B3
:1028800010BD10B5FFF7F7FF0446FFF751FF10BD6D
:1028900008B5FFF761FF4FF4A060FEF749FCFEF7B3
:1028A000EFFB4FF47A3000F043F900F00FF800200E
:1028B0000423082207210090FEF792F90120024923
:1028C000086000BFFEE70000BC81214210B5FFF7A1
:1028D000C9FE064B002211461046FEF733FC40F2BB
:1028E000CF2140F2E730FEF767FF10BD0000C8417E
:1028F00010B501210920FEF789FC40201449088108
:10290000802113488181002010E01249104A42F8CA
:10291000201018220E49083101EB8001CA700322F1
:102920000B49083101EB80018A70401C0228ECDB66
:10293000002409E0064A083202EB8401083A52F802
:102940002400FEF7B8F9641C022CF3DB10BD000074
:10295000B0000020000C014010B50446002C0CDD36
:10296000A1B20E48FFF741F80D4A91895068FEF771
:102970002DFA01200B4908600FE0002C0DDA084AFF
:1029800011891068FEF722FA604281B20348FFF70E
:102990002EF84FF0FF300349086010BD00080040DA
:1029A000B00000200000002070B504460025FEF7AE
:1029B000EBFA6C20FEF7AEFAFEF730FB2046FEF78E
:1029C000A9FAFEF72BFBFEF7DFFA6D20FEF7A2FA5D
:1029D000FEF724FB0120FEF765FA0546284670BD88
:1029E0002DE9FC4107460D460026002007E00021A6
:1029F0001C4A116001211C4AC2F8A011401C082881
:102A0000F5DBFEF7C1FA6C20FEF784FAFEF706FB51
:102A10002846FEF77FFAFEF701FBFEF7B5FA6D20B8
:102A2000FEF778FAFEF7FAFA002405E00120FEF737
:102A300039FA2DF81400641C022CF7DBFEF7CAFAF1
:102A4000BDF802004FF6FF7101EA0020ADF8020068
:102A5000BDF80200BDF8001040EA01063046BDE8AE
:102A6000FC810000A08121420080214210B5044673
:102A70000E4804800088010A032000F011F90220AA
:102A8000FFF7B2FE094800780002C1B2042000F04E
:102A900007F90220FFF7A8FE04210320FFF7A0FF9B
:102AA000034908800846008810BD00003C00002053
:102AB0003E0000200149086070470000140000201B
:102AC000034B1860034B1960034B1A6070470000FA
:102AD000080000200C0000201000002001490860C0
:102AE000704700003000002010B504460E480480F6
:102AF0000088010A012000F0D3F80220FFF774FEDD
:102B0000094800780002C1B2022000F0C9F8022092
:102B1000FFF76AFE02210120FFF762FF03490880E8
:102B20000846008810BD0000380000203A00002050
:102B300010B586B0044601210420FEF767FB012191
:102B40004804FEF753FB0420ADF8140003208DF871
:102B5000160018208DF8170005A91C48FEF7ABF8E1
:102B60000820ADF8140004208DF8170005A91748B7
:102B7000FEF7A1F826208DF8000003208DF8010053
:102B80008DF8020001208DF803006846FEF798FAE0
:102B900001940020ADF80800ADF80A00ADF80C0073
:102BA000ADF810000C20ADF80E0001A90848FFF7A1
:102BB0006BF8012240F225510548FFF73FF801214B
:102BC0000348FFF705F806B010BD000000080140FB
:102BD000004400402DE9F047054627480168284693
:102BE000FDF7F5FA0446254801682046FDF7ECFAA2
:102BF0000746394622480068FDF7ECFA214908608B
:102C0000214621480068FDF78DFA1F4908601B48DE
:102C100001684FF08040FDF7DDFA80462146FDF760
:102C2000D6FA0646194801683046FDF77BFA18497E
:102C3000086012480068154908601048046014488C
:102C4000016814480068FDF7C5FA80460E4801681F
:102C500011480068FDF7BEFA81460A4801684846F7
:102C6000FDF760FA06464146FDF75CFA0B4908603D
:102C700008460068BDE8F087140000202800002006
:102C8000080000201C000020200000202C00002054
:102C900024000020100000200C000020180000205C
:102CA00070B505460C46FEF76FF96C20FEF732F959
:102CB000FEF7B4F92846FEF72DF9FEF7AFF92046E6
:102CC000FEF728F9FEF7AAF9FEF784F970BD0000B7
:102CD000F02C000800000020B0000000901D00084B
:102CE000A02D0008B000002010040000A01D000866
:102CF00000000000000000000000000000000000D4
:102D000000000000000000000000000000000000C3
:102D100000000000000000000000000000000000B3
:102D200000000000000000000000000000000000A3
:102D30000000000000000000000000000000000093
:102D40000000000000000000000000000000000083
:102D500000000000000080BF000080BF00000000F5
:102D60000000000000000000000000000000000063
:102D70000000000000000000000000000102030449
:102D800001020304060708090204060800A24A0417
:102D9000000000000000000001020304060708090B
:04000005080000ED02
:00000001FF
