:020000040800F2
:1000000020050020010100083D1500080B01000833
:1000100039150008A5090008572200080000000053
:100020000000000000000000000000008117000830
:1000300095100008000000001701000819010008D1
:100040001B0100081B0100081B0100081B01000820
:100050001B0100081B0100081B0100081B01000810
:100060001B0100081B0100081B0100081B01000800
:100070001B0100081B0100081B0100081B010008F0
:100080001B0100081B0100081B0100081B010008E0
:100090001B0100081B0100081B0100081B010008D0
:1000A0001B0100081B0100081B0100081B010008C0
:1000B00071190008ED1B00081B0100081B01000856
:1000C0001B0100081B0100081B0100081B010008A0
:1000D0001B010008851F0008212000081B010008E3
:1000E0001B0100081B0100081B010008DFF80CD0F1
:1000F00000F010FC004800476D2E0008200500208D
:100100000648804706480047FEE7FEE7FEE7FEE7B1
:10011000FEE7FEE7FEE7FEE7FEE7FEE795180008CC
:10012000ED000008F0B480EA0102D40F4200B2EB07
:10013000410F02D20246084611464A0042D0C30D82
:10014000DDB2C1F3C752AD1A202D35DAC1F3160165
:1001500041F4000204B15242C5F1200602FA06F150
:100160002A411044B3EBD05F23D0C4B1012DA0EBE2
:10017000C35009DCF0BC4FF0004202EAC352DBB2CC
:1001800000F5000000F00BBB400000F1807000EBB8
:10019000C350A0F1807040EAD170490009E04908DD
:1001A00041EAC071A0EBC35000F50000400800EB2D
:1001B000C350F0BC00F0EABA6142012202EB4101F7
:1001C000001BF6E7F0BC704781F00041AAE780F021
:1001D0000040A7E780EA010210B502F000434000AA
:1001E00022D04A001FD0010E01EB1261C0F356006D
:1001F000C2F3560240F4000042F40002A0FB0220C9
:1002000000047F39140400D0401C50EA124001D48D
:100210004000491EC2B20C0604EBD010401C40083E
:10022000802A02D003E0002010BD20F00100002948
:1002300000DA0020184310BD2DE9FE4F804681EA08
:100240000300C00F0C46009021F0004123F0004550
:10025000B8EB0200A94105D24046214690461C4613
:100260000B46024623F00040104347D0270DC7F34A
:100270000A00C3F30A510290401A019040286BDA39
:10028000C3F3130040F4801B0098924620B1002372
:10029000D2EB030A63EB0B0B01985946C0F1400205
:1002A000504600F042FA06460D4650465946019A1D
:1002B00000F05AFA10EB08006141002487EA11525D
:1002C00084EAE7731A4340D0009A62B3019A012A84
:1002D0004FEA075215DC001B61EB02014FF00042B0
:1002E00002EA0752CDE90042001C41F58011324676
:1002F0002B4600F091FA03B0BDE8F08F404621464E
:10030000F9E7001B61EB0201001C41F580130018A6
:100310005B412018A2F5001747EB030140EAD570B6
:10032000B6196D4111E06D084FEA360645EAC07511
:100330004FEA0752001B61EB0201001C41F58011DE
:1003400049084FEA30000019514132462B4603B0AC
:10035000BDE8F04F00F051BA0098012240000023A0
:10036000D0EB020263EBE073009821464FEAE074A1
:10037000B8EB000061EB0401E9E783F000435BE7C1
:1003800081F0004158E72DE9FE4F81EA030404F0B3
:10039000004421F0004100944FF0000B23F0004393
:1003A00050EA01045ED052EA03045BD0C3F30A545E
:1003B000C1F30A552C44A4F2F3340194A0FB025477
:1003C000C1F3130141F48011C3F3130343F4801309
:1003D00001FB024400FB034E840A970A44EA81545D
:1003E00047EA8357A4FB076802958D0A05FB07853A
:1003F0004FEA932C04FB0C542705029D4FEA065844
:1004000047EA1637B5EB08056EEB070C870E920E20
:1004100047EA811742EA8312A7FB0201B6EB0B0100
:1004200064EB00042B0D43EA0C335E1844EB1C50C4
:10043000DA465146E7FB0201C5F313044FEA0B33DA
:1004400043EA14534FEA0432019C43EA0603A4F141
:100450000C040294009CCDE900B400F0DDF903B077
:10046000BDE8F08F00200146F9E72DE9F04D81EA63
:10047000030404F0004B21F0004514464FF0000A3D
:1004800023F0004150EA050220D054EA01021DD0B9
:10049000C5F30A570246C5F31303C1F31300C1F3B2
:1004A0000A5640F4801543F48013A7EB0608101B8E
:1004B000D64608F2FD3873EB050002D308F10108B7
:1004C00001E092185B41B8F1000F03DA0020014609
:1004D000BDE8F08D00204FF48011064684460EE002
:1004E000171B73EB050705D3121B63EB05030643CC
:1004F0004CEA010C49084FEA300092185B4150EA7F
:100500000107EDD152EA030012D082EA040083EA27
:100510000501084305D0101BAB4106D20122002380
:1005200006E000224FF0004302E06FF0010253109A
:100530001AEB06004CEB085110EB0A0041EB0B01E3
:10054000BDE8F04D00F059B9C10F80EAE0700844F1
:10055000CA079623002100F022B90EB5C10F80EA28
:10056000E0700844CA07002140F233438DE80E00D2
:100570000A460B4600F050F903B000BD20F00040E1
:10058000C10DC0F3160040F400007F2901DA0020FD
:100590007047962903DCC1F19601C840704796392F
:1005A0008840704770B5C1F30A5201F0004500243D
:1005B000C1F3130140F2FF3341F480119A4201DA92
:1005C000002070BD40F233439A42A2F2334203DC72
:1005D000524200F0B9F800E090402C43F1D0404284
:1005E00070BDC1F30A5210B5C1F3130140F2FF33DD
:1005F00041F480119A4201DA002010BD40F23343E9
:100600009A42A2F2334203DC524200F09DF810BD40
:10061000904010BD00F0004230F000400AD0C10D03
:1006200001F56071C0F3160042EA0151C2084007AB
:100630001143704700200146704701F0004330B479
:1006400021F0004150EA010206D00A0DA2F56072C5
:10065000C1F31301002A02DC30BC00207047440FB4
:1006600044EAC104C100E01830BC00EBC25000F005
:100670008DB80000002801DBC0F10040002901DB3B
:10068000C1F1004181427047002801DBC0F1004008
:10069000002901DBC1F100418842704730B50B46AB
:1006A000014600202022012409E021FA02F59D42A2
:1006B00005D303FA02F5491B04FA02F52844151E76
:1006C000A2F10102F1DC30BD2DE9F05F054600200A
:1006D00092469B4688460646814640241BE02846B3
:1006E00041464746224600F02FF853465A46C01A64
:1006F000914110D311461846224600F016F82D1AE3
:1007000067EB01084F4622460120002100F00DF85A
:1007100017EB00094E41201EA4F10104DFDC48461E
:1007200031462A464346BDE8F09F202A04DB203AA2
:1007300000FA02F1002070479140C2F1200320FA34
:1007400003F3194390407047202A04DB203A21FA32
:1007500002F00021704721FA02F3D040C2F12002DA
:100760009140084319467047202A06DBCB17203AF0
:1007700041FA02F043EAE07306E041FA02F3D040A6
:10078000C2F1200291400843194670470029A8BFD2
:100790007047401C490008BF20F00100704710B4AA
:1007A000B0FA80FC00FA0CF050EA010404BF10BC5F
:1007B000704749B1CCF1200421FA04F411FA0CF18C
:1007C00018BF012121430843A3EB0C01CB1D4FEAC5
:1007D00000614FEA102042BF002010BC704700EBC0
:1007E000C35010440029A4BF10BC7047401C4900EE
:1007F00008BF20F0010010BC704710B5141E73F143
:10080000000408DA401C41F1000192185B411A43D0
:1008100001D120F0010010BD2DE9F04D92469B461C
:1008200011B1B1FA81F202E0B0FA80F220329046C2
:10083000FFF77BFF04460F4640EA0A0041EA0B013E
:1008400053465A46084313D0114653EA010019D0C3
:10085000C8F140025046FFF777FF05460E46504666
:1008600059464246FFF761FF084305D0012004E0E6
:1008700020463946BDE8F08D0020054346EAE07683
:100880002C4337430A986305E40AA0EB08000022D2
:10089000FD0A44EA47540A3002D500200146E9E740
:1008A000010510196941DDE9084500196941BDE8F4
:1008B000F04DA2E7C1F30A52C1F3130140F2FF3336
:1008C00041F480119A4202DA00200146704740F25A
:1008D00033439A42A2F2334202DC5242FFF734BF62
:1008E000FFF723BF30B5041E71F1000404DB4FF0A5
:1008F0000044404264EB0101141E73F1000405DB67
:100900001C464FF00043524263EB0403994208BF78
:10091000904230BD064C074D06E0E06840F0010310
:1009200094E8070098471034AC42F6D3FFF7E2FB97
:1009300094330008B433000810B54FF47A710648B8
:1009400001F0C9FA4FF47A71034801F0C6FA0020A9
:100950000249086010BD00000008004000000020AF
:1009600070B50246002319E0002012E052F8204042
:1009700002EB80056D68AC420ADA02EB80056C6818
:1009800052F8205002EB8006756042F8204000BF0C
:10099000401CCC1A641E8442E8DC5B1C481E984252
:1009A000E2DC70BD00BFFEE710B50021837A0122B2
:1009B00002FA03F13D4A126842F001023B4B1A6011
:1009C0003A4A1C3212688A43384B1C331A60027B45
:1009D000CAB9364A0C3212688A43344B0C331A6057
:1009E0004288C38842EA0343304A4032847A42F85C
:1009F00034300288838842EA03432C4A4032847AA6
:100A000002EBC4025360027B012A19D1274A0C323F
:100A100012680A43254B0C331A604288038842EA65
:100A20000343224A4032847A42F83430C2888388B1
:100A300042EA03431D4A4032847A02EBC402536007
:100A4000C27A3AB9194A121D12688A43174B1B1D04
:100A50001A6006E0154A121D12680A43134B1B1D4B
:100A60001A60028932B9114A143212688A430F4B54
:100A700014331A600289012A06D10C4A1432126812
:100A80000A430A4B14331A60427B012A06D1074AF3
:100A90001C3212680A43054B1C331A60034A126861
:100AA00022F00102014B1A6010BD000000660040F8
:100AB00030B5024600200023146824F002041460BC
:100AC000146844F00104146000E05B1C546804F0F6
:100AD00001041CB94FF6FF74A342F6D1546804F028
:100AE00001040CB900206CE08C79012C04D114684D
:100AF00044F08004146003E0146824F0800414605F
:100B0000CC79012C04D1146844F04004146003E053
:100B1000146824F0400414600C7A012C04D1146889
:100B200044F02004146003E0146824F020041460EE
:100B30004C7A012C04D1146844F01004146003E0D2
:100B4000146824F0100414608C7A012C04D1146809
:100B500044F00804146003E0146824F008041460EE
:100B6000CC7A012C04D1146844F00404146003E02E
:100B7000146824F0040414608C78A407CD7844EA47
:100B800005640D7944EA05444D7944EA05540D881D
:100B90006D1E2C43D461146824F0010414600023FA
:100BA00000E05B1C546804F001041CB14FF6FF74B4
:100BB000A342F6D1546804F001040CB1002000E017
:100BC000012030BD0246002019B9D36803F00300AC
:100BD00006E0012903D1136903F0030000E00020BF
:100BE000704700002DE9F04188B004460D461646D6
:100BF0001F46DDF838800121042000F047FD012167
:100C0000480600F033FD4FF48050ADF81C0003207F
:100C10008DF81E0018208DF81F0007A9244800F049
:100C20003AFA4FF40060ADF81C0048208DF81F0020
:100C300007A91F4800F02FFA00208DF816008DF844
:100C400017008DF818008DF819008DF81A00012092
:100C50008DF81B008DF812808DF813408DF814600C
:100C60008DF81550ADF8107004A91248FFF720FF59
:100C700000208DF80A008DF80B0001208DF80C0083
:100C80002020ADF800000020ADF802002020ADF8D3
:100C900004000020ADF80600ADF8080001208DF832
:100CA0000D006846FFF780FE002008B0BDE8F08127
:100CB000000801400064004010B500F5D87303EB54
:100CC00001131B6803F004031372137A53B900F580
:100CD000D87303EB01131B6840F2FF7404EA53530B
:100CE000136009E000F5D87303EB01131B686FF084
:100CF000604404EAD303536000F5D87303EB011397
:100D00001B6803F00203537200F5D87303EB011361
:100D10005B6803F00F03937200F5D87303EB0113C4
:100D20005B681B0AD37400F5D87303EB01139B684F
:100D3000D37200F5D87303EB01139B681C0A14737C
:100D400000F5D87303EB01139B681C0C547300F57A
:100D5000D87303EB01139B681B0E937300F5D873D4
:100D600003EB0113DB68D37300F5D87303EB0113B6
:100D7000DB681C0A147400F5D87303EB0113DB68FD
:100D80001C0C547400F5D87303EB0113DB681B0EC5
:100D9000937421B9C36843F02003C36003E003697F
:100DA00043F02003036110BD10B502460020936894
:100DB00003F08063B3F1806F00D110E0936803F01B
:100DC0000063B3F1006F01D1012008E0936803F0E4
:100DD0008053B3F1805F01D1022000E00420042899
:100DE00074D002F5C07303EB00131B6803F0010419
:100DF00002F5C07303EB00131C600B7A7BB94B7ACE
:100E00000C8843EA445302F5C07404EB00142468D0
:100E1000234302F5C07404EB0014236010E00B7A46
:100E20004C6843EAC4034C7A234302F5C07404EBD4
:100E300000142468234302F5C07404EB00142360FB
:100E40008B7A03F00F038B7202F5C07303EB001370
:100E50005B6823F00F0402F5C07303EB00135C60C2
:100E600002F5C07303EB00135B688C7A234302F531
:100E7000C07404EB001463608B7B1C064B7B44EA5C
:100E800003440B7B44EA0323CC7A234302F5C0746A
:100E900004EB0014A3608B7C1C064B7C44EA0344E7
:100EA0000B7C44EA0323CC7B234302F5C07404EBA0
:100EB0000014E36002F5C07303EB00131B6843F0FA
:100EC000010402F5C07303EB00131C6010BD0000A9
:100ED00010B50246002321B1012907D002290FD104
:100EE00009E090681D4C00EA04030BE090681C4C7C
:100EF00000EA040306E090681A4C00EA040301E0EB
:100F0000002300BF00BF184C181BA34216D007DCFB
:100F100083B16FF08060184470B1022818D111E0DD
:100F2000B0F5007F10D0114C204448B1B0F5003F1F
:100F30000ED10BE002230DE000230BE0002309E0BB
:100F4000002307E0012305E0012303E0012301E082
:100F5000002300BF00BFD8B210BD00000300000492
:100F60000003000800000310000100080001FFF763
:100F700070B504464FF000520821204600F04EF8AC
:100F80000546284670BD000070B504460848046058
:100F900046200749087153204871302088714FF06E
:100FA00000520821024800F039F80546284670BD75
:100FB0004800002030B585B0054600211448FFF7F1
:100FC00001FE10B9002005B030BD6A46002110486E
:100FD000FFF772FE00240F480068C0430E49C1F8B5
:100FE000BC0104E00DF10B00005D2855641C082CC9
:100FF000F8D30F2001F0ECFE06480068C043064914
:10100000C1F8BC010F2001F0E3FE9DF80A00DAE709
:1010100000640040BC812142008021422DE9F04162
:1010200086B080460D4616460024700D0190C6F32A
:10103000D100029000208DF80C008DF80D008DF885
:101040000E5000BF06E018F804100DF10F00015516
:10105000601C84B2AC42F6DB01A90D48FFF7A4FE88
:101060000746002401E0601C84B239460848FFF7B7
:101070002FFF18B940F6FF708442F4DB40F6FF7092
:10108000844203DB012006B0BDE8F0810020FAE7CE
:101090000064004070472DE9F0410246002500261B
:1010A000002000230024002791F803C00CF00F0556
:1010B00091F803C00CF0100CBCF1000F03D091F8B4
:1010C00002C04CEA050591F800C0BCF1000F31D018
:1010D000146800202BE04FF0010C0CFA00F3B1F87B
:1010E00000C00CEA03069E4220D183004FF00F0C93
:1010F0000CFA03F7BC4305FA03FC4CEA040491F82C
:1011000003C0BCF1280F06D14FF0010C0CFA00FC13
:10111000C2F814C00AE091F803C0BCF1480F05D131
:101120004FF0010C0CFA00FCC2F810C0401C08285B
:10113000D1D31460B1F800C0BCF1FF0F34DD5468A6
:1011400000202EE000F1080C4FF0010808FA0CF323
:10115000B1F800C00CEA03069E4221D183004FF093
:101160000F0C0CFA03F7BC4305FA03FC4CEA040429
:1011700091F803C0BCF1280F05D100F1080C08FA62
:101180000CF8C2F8148091F803C0BCF1480F07D1E5
:1011900000F1080C4FF0010808FA0CF8C2F81080B2
:1011A000401C0828CED35460BDE8F08141617047EF
:1011B0000161704700B500200E4908600E480068C4
:1011C00020F0F0000C4908600846006840F030004C
:1011D000086000200949C1F8A401012000F040F98D
:1011E00001200449086000F03BF900200349C1F8E0
:1011F000A00100BDA0812142040C014000802142D9
:1012000008B50121082000F041FA4FF44070ADF814
:10121000000010208DF8030003208DF802006946BD
:101220000448FFF738FF4FF440710248FFF7C0FF52
:1012300008BD0000000C014000B500200E49086008
:101240000E48006820F0F0000C490860084600686D
:1012500040F03000086001200949C1F8A40100F005
:10126000FFF801200449086000F0FAF80020044962
:10127000C1F8A00100BD0000A0812142040C014082
:101280000080214230B5044600231748006820F052
:10129000F000154908600846006840F080000860CA
:1012A000002516E0002011490860012000F0D8F860
:1012B00001200F49C1F8A0015806030E0B487C38E5
:1012C000006808B1581CC3B2012000F0C9F8681CBE
:1012D000C5B2082DE6DB14B9FFF7AEFF01E0FFF75A
:1012E00069FF184630BD0000040C0140A081214276
:1012F0000080214210B503461848006820F0F00035
:10130000164908600846006840F030000860002078
:101310001349086000241DE0D80920B101201049BC
:10132000091D086003E000200D49091D08605806EA
:10133000030E012000F094F801200949086000F034
:101340008FF800200749C1F8A001012000F088F8BB
:10135000601CC4B2082CDFDB10BD0000040C01408F
:10136000A08121420080214200B50F48006820F092
:10137000F0000D4908600846006840F03000086041
:1013800001200A4908600A49C1F8A00100F068F884
:10139000002006490860012000F062F8002004499E
:1013A000C1F8A00100BD0000040C0140A48121424D
:1013B0000080214200B50E48006820F0F0000C4982
:1013C00008600846006840F03000086001200949C4
:1013D000086000200849C1F8A401012000F040F88D
:1013E00001200449091D086000F03AF800BD000022
:1013F000040C0140A08121420080214200B500235D
:101400001448006820F0F00012490860084600689F
:1014100040F08000086001200F49086000F020F8CB
:1014200001200E49C1F8A00100F01AF807E0581C8D
:10143000C3B2FA2B03DDFFF7BDFF012000BD064854
:10144000803800680028F2D10349091F086000BFF6
:10145000F4E70000040C0140A481214200802142F5
:10146000002100BF48E000BF00BF00BF00BF00BFB9
:1014700000BF00BF00BF00BF00BF00BF00BF00BF74
:1014800000BF00BF00BF00BF00BF00BF00BF00BF64
:1014900000BF00BF00BF00BF00BF00BF00BF00BF54
:1014A00000BF00BF00BF00BF00BF00BF00BF00BF44
:1014B00000BF00BF00BF00BF00BF00BF00BF00BF34
:1014C00000BF00BF00BF00BF00BF00BF00BF00BF24
:1014D00000BF00BF00BF00BF00BF00BF00BF00BF14
:1014E00000BF00BF00BF00BF00BF00BF00BF00BF04
:1014F00000BF00BF00BF491C8142B4D37047000049
:1015000008B50121082000F0C1F84FF40040ADF803
:10151000000010208DF8030003208DF802006946BA
:101520000448FFF7B8FD4FF400410248FFF73EFEC4
:1015300008BD0000000C014000BFFEE7704700003E
:1015400070B5002100230F22C47804B3154C246821
:1015500004F4E064C4F5E064210AC1F10403CA4064
:10156000447804FA03F184781440214309010E4CB5
:101570000678A155047804F01F050124AC400578D5
:101580006D11AD0005F1E025C5F8004109E00478D2
:1015900004F01F050124AC40044D0678761145F88F
:1015A000264070BD0CED00E000E400E080E100E0CA
:1015B00002490143024A1160704700000000FA0529
:1015C0000CED00E02DE9F04105460E4617461C469D
:1015D0003A463146284601F0B3FD204601F0BEFDF3
:1015E00001F0BAFB204600F003F8BDE8F0810000EE
:1015F0007FB504460121022000F038F81949204641
:10160000FEF7E8FD06464FF07E51FEF7DDFD05468C
:10161000FEF7B4FF80B2ADF808004720ADF8040033
:101620000020ADF80A00ADF8060001A90E4800F050
:1016300057FC012211460C4800F08FFB1D208DF84D
:10164000000002208DF801008DF8020001208DF8C5
:1016500003006846FFF774FF0121034800F060FBB8
:101660007FBD000000007A440004004029B1064A12
:10167000D2690243044BDA6104E0034AD26982432F
:10168000014BDA61704700000010024029B1064AA0
:1016900092690243044B9A6104E0034A92698243CF
:1016A000014B9A61704700000010024030B50021E4
:1016B0000022002400232D4D6D6805F00C0121B19E
:1016C000042905D0082923D105E0294D056022E031
:1016D000274D05601FE0254D6D6805F47012234D00
:1016E0006D6805F48034022505EB92421CB9214D4A
:1016F000554305600BE01D4D6D6805F400351DB1C7
:101700001C4D5543056002E0194D5543056002E04C
:10171000174D056000BF00BF144D6D6805F0F00166
:101720000909154D6B5C0568DD4045600F4D6D681E
:1017300005F4E061090A104D6B5C4568DD40856089
:101740000A4D6D6805F46051C90A0B4D6B5C456824
:10175000DD40C560054D6D6805F44041890B074DBE
:101760006B5CC568B5FBF3F5056130BD0010024048
:1017700000127A0000093D00A4000020B4000020FF
:10178000704710B500F002F810BD00000CB5002045
:10179000019000903348006840F48030314908607F
:1017A00000BF3048006800F4003000900198401CF1
:1017B0000190009818B90198B0F5A06FF1D12948AF
:1017C000006800F4003010B10120009001E000201A
:1017D00000900098012843D12348006840F0100091
:1017E000214908600846006820F0030008600846A8
:1017F000006840F0020008601A48406819494860D3
:101800000846406848600846406840F48060486088
:101810000846406820F47C1048600846406840F460
:10182000E81048600846006840F08070086000BF1B
:101830000C48006800F000700028F9D009484068A2
:1018400020F00300074948600846406840F0020065
:10185000486000BF0348406800F00C000828F9D138
:101860000CBD00000010024000200240042808D1F6
:101870004FF0E021096941F004014FF0E0221161CD
:1018800007E04FF0E021096921F004014FF0E02268
:101890001161704710B51348006840F0010011490C
:1018A000086008464068104908400E4948600846EC
:1018B00000680E4908400B4908600846006820F49B
:1018C000802008600846406820F4FE0048604FF41D
:1018D0001F008860FFF755FF4FF000600449086063
:1018E00010BD0000001002400000FFF8FFFFF6FEF0
:1018F00008ED00E07FB504460121C802FFF7C6FEEF
:1019000019492046FEF766FC06464FF07E51FEF769
:101910005BFC0546FEF732FE80B2ADF808004720BA
:10192000ADF804000020ADF80600ADF80A008DF80F
:101930000C0001A90D4800F0D3FA01210B4800F07A
:10194000E9F919208DF8000001208DF801008DF8CB
:1019500002008DF803006846FFF7F2FD01210348FD
:1019600000F0DEF97FBD000000007A44002C014049
:101970002DE9F05F0121880700F0DEF9002871D021
:1019800069480068401C58B901F069FA6749086065
:101990000846006864490860002065490880BDE089
:1019A00001F05DFA61490860614800886149096891
:1019B00008446049086000205D4908805B48006871
:1019C00059490968401A5C4908600868002801DB29
:1019D000014600E04142012902DC0020564908602E
:1019E00055480068002813DB53480068B0F5806F45
:1019F00003DC0120514908601DE04FF0FF304F49E2
:101A000008604D480068A0F6FF704B49086012E07E
:101A10004948006810F5806F04DB4FF0FF304749FC
:101A2000086008E00120454908604348006800F666
:101A3000FF70414908603D4800683B4908604048E4
:101A400000680F285EDB4FF0000900203C49086069
:101A50000F213C48FEF784FF3A48C0693A490860C4
:101A6000002438E05EE038480068FEF776FD07465F
:101A7000364A374BFEF787FC0546FEF793FD824654
:101A8000304850F8240030490968A0EB010BBBF145
:101A9000000F01DB584601E0CBF10000BAF1000F66
:101AA00001DB514601E0CAF10001884208DC25480B
:101AB00050F824002749096808442649086005E0D1
:101AC00009F1010900201F4941F8240000201D49A7
:101AD00041F82400641C0F2CC5DBC9F10F001D491F
:101AE000096891FBF0F01C490860124800680F215A
:101AF00090FBF1F01949086000200E490860154973
:101B0000086006E00C4801680E480D4A126840F86B
:101B100022100B480068401C094908600121880711
:101B200000F0FBF8BDE8F09F8C000020880000204A
:101B3000242C0140800000209000002000000020A4
:101B400094000020CC000020A00000209A999999D0
:101B50009999B93F980000209C0000208400002043
:101B60007FB5044601210846FFF780FD1D49204648
:101B7000FEF730FB06464FF07E51FEF725FB05468B
:101B8000FEF7FCFC80B2ADF808004720ADF8040079
:101B900014492046FEF71EFB134908600020ADF8EB
:101BA0000A00ADF8060001A94FF0804000F098F956
:101BB00001221146900700F0D0F81C208DF800009B
:101BC00001208DF8010000208DF8020001208DF821
:101BD00003006846FFF7B4FC0121880700F0A0F875
:101BE0007FBD000000007A447800002070B501211C
:101BF000214800F0A1F800283CD02048006801F0FE
:101C000043FA00211D480068FEF734FD2CD01C4823
:101C10000068401C18B31A480068FEF795FC05469A
:101C200001F018FB0446174801682046FEF77AFACF
:101C3000144908604FF07E5112480068FEF724FDF9
:101C400004D84FF07E500F49086008E00E490D4857
:101C50000068FEF70FFD02D80B480A4908600948E2
:101C6000006800F04FFB01E000F03AFB0121024860
:101C700000F053F870BD0000000400400400002094
:101C80009C0000207C000020000080BF70B588B060
:101C900006460D46144601210420FFF7E7FCADF887
:101CA0001860ADF814500020ADF81A00ADF8160019
:101CB00005A9174800F014F96020ADF804000120D0
:101CC000ADF806000020ADF80C0084B901A9104859
:101CD00000F04CF801A90E4800F09EF808210C48CD
:101CE00000F090F808210A4800F0E8F809E0012C1B
:101CF00007D101A9064800F08FF80821044800F038
:101D0000DDF80121024800F00BF808B070BD0000BA
:101D100000080040CA4302827047CA4302827047EB
:101D200021B1028842F00102028004E002884FF6ED
:101D3000FE731A400280704730B50246002000232F
:101D40000024158A05EA0103958905EA010413B107
:101D50000CB1012000E0002030BD1AB183890B4393
:101D6000838102E083898B438381704770B50024AF
:101D700000220023058C4FF6FE7635400584028C48
:101D80008388048B4FF68F752C40B51E2C400D8830
:101D90002C43751E2A400D892A434D882A43144D31
:101DA000A8420BD0134DA84208D0134DA84205D02D
:101DB000124DA84202D0124DA84213D14FF6F7752A
:101DC0002A404D892A434FF6FB752A408D882A43C5
:101DD0004FF6FF652B404FF6FF552B408D892B4367
:101DE000CD892B4383800483CD888586028470BD92
:101DF000002C0140003401400040014000440140FB
:101E0000004801400A460021018B4FF6F773194044
:101E1000114301837047000070B5002400220023A5
:101E2000058C4FF6EF7635400584028C8388048B51
:101E300048F6FF752C404FF6FF452C400D884FF6B5
:101E4000FF7606EA05252C434FF6DF752A400D89FB
:101E500006EA05152A434D8806EA05152A43154D5D
:101E6000A84202D0144DA8421DD14FF67F752A40DA
:101E70004D894FF6FF7606EA05152A434FF6BF75E2
:101E80002A408D8806EA05152A434FF6FF352B4078
:101E90004FF2FF752B408D8906EA85052B43CD89CE
:101EA00006EA85052B4383800483CD880587028459
:101EB00070BD0000002C0140003401400A460021A2
:101EC000018B4FF2FF7319404FF6FF7303EA0223B1
:101ED000194301837047818670470187704700006E
:101EE000002202881D4B98420ED01D4B98420BD009
:101EF000B0F1804F08D01B4B984205D01A4B984246
:101F000002D01A4B984204D14FF68F731A404B8877
:101F10001A43174B984207D0164B984204D04FF6FD
:101F2000FF431A40CB881A4302808B8883850B8835
:101F300003850A4B98420BD0094B984208D00E4BB0
:101F4000984205D00D4B984202D00D4B984201D1DA
:101F50000B7A03860123838270470000002C014026
:101F6000003401400004004000080040000C004024
:101F700000100040001400400040014000440140B7
:101F80000048014010B540F22551224800F0A2F867
:101F900000283ED01F4800F059F9C4B21E480088FE
:101FA00000F4004018BB1C48008800F48040B0B129
:101FB000442C03D00020184908802AE016480088E5
:101FC000C0F30D00082803D000201349088020E04A
:101FD0001148008840F400400F49088019E0452C62
:101FE00006D10D48008840F480400B49088010E07D
:101FF00009480088C0F30D0008490C5406480088C1
:10200000401C0549088008460088082801DD00209A
:10201000088010BD003801407000002060000020E2
:1020200010B540F22551224800F054F800283ED067
:102030001F4800F00BF9C4B21E48008800F40040AD
:1020400018BB1C48008800F48040B0B10A2C03D0B3
:102050000020184908802AE016480088C0F30D00C7
:10206000072803D000201349088020E01148008889
:1020700040F400400F49088019E00D2C06D10D48AE
:10208000008840F480400B49088010E0094800882F
:10209000C0F30D0008490C5406480088401C05494F
:1020A000088008460088072801DD0020088010BD50
:1020B00000440040720000206800002021B18289A5
:1020C00042F40052828104E082894DF6FF731A4087
:1020D0008281704770B5024600240023002500204D
:1020E00040F66A16B14200D100BFC1F3421501F0BB
:1020F0001F03012606FA03F3012D02D1968933400E
:1021000006E0022D02D1168A334001E0968A334060
:102110000C12012606FA04F41688344013B10CB1EF
:10212000012000E0002070BDF0B503460024002629
:102130000025002040F66A17B94200D100BF1846BA
:10214000C1F3421401F01F06012707FA06F5012C1E
:1021500001D10C3004E0022C01D1103000E0143029
:102160001AB107682F43076002E00768AF430760B2
:10217000F0BD00002DE9F04786B005460E4600246C
:10218000A24600BFA1460027B08900B100BF2F467C
:102190002C8A4CF6FF700440F08804432C82AC89F2
:1021A0004EF6F3100440B088318908437189084322
:1021B0000443AC81AC8A4FF6FF400440B08904432D
:1021C000AC8201A8FFF772FA1F48874202D1DDF8FE
:1021D00010A001E0DDF80CA0A88900F4004040B197
:1021E0000AEBCA0000EB0A1031684900B0FBF1F8B5
:1021F00007E00AEBCA0000EB0A1031688900B0FB67
:10220000F1F86420B8FBF0F004012009642101FB1F
:102210001089A88900F4004040B1322000EBC900C9
:10222000B0FBF1F000F00700044308E0322000EBBF
:1022300009106421B0FBF1F000F00F0004432C8181
:1022400006B0BDE8F08700000038014001468888EC
:10225000C0F30800704700BFFEE7000010B5012181
:102260000820FFF713FA80201B4988811B4808606B
:1022700018211948C1730321817340210182202153
:102280008182012010E01549134A42F820101022E3
:1022900011490C3101EB8001CA7003220E490C3147
:1022A00001EB80018A70401C0328ECDB002409E06C
:1022B000094A0C3202EB84010C3A52F82400FEF772
:1022C000EAFE641C032CF3DB012240F2CF2140F232
:1022D000E730FFF7DBFC10BD08010020000C0140D7
:1022E00010B50120044908600449C1F89401002197
:1022F0000348FFF7F2FD10BD988121420080214282
:10230000000800402DE9F047044600212046FEF772
:10231000BBF91BD201202149086000202049C1F8E7
:1023200094012046FEF776F9074600221D4BFEF782
:102330002AF80546FEF755F91FFA80F949461A486A
:10234000FFF7CBFD01201949086024E00021204659
:10235000FEF790F91FD200201049086001201049B3
:10236000C1F8940112492046FDF734FF8246FEF77A
:1023700051F9074600220B4BFEF705F80546FEF71C
:1023800030F91FFA80F949460748FFF7A6FD4FF0DC
:10239000FF3006490860BDE8F087000098812142BF
:1023A0000080214200388F400008004000000020DB
:1023B000000080BF0FB4054B10B503A9044A029872
:1023C00000F0DAF810BC5DF814FB0000352E0008B0
:1023D0005C00002002E008C8121F08C1002AFAD1E0
:1023E00070477047002001E001C1121F002AFBD195
:1023F000704700002DE9FF5F82B00021DDE9043065
:10240000020DDDF840B0034318D044F61050A2F29C
:10241000FF3242431514119801281FD0A5EB0B0081
:10242000401C5FEA000A4FF000064E4FDFF838917B
:10243000B046504615D5CAF1000413E011980124A6
:102440004AA3012801D16FEA0B010298119AC0E951
:102450000031C0E9024206B0BDE8F09FCBF10000B8
:10246000DFE704460021404A491842EB0450CDE919
:10247000001012E0E00707D032463B46404649468E
:10248000FDF781FF8046894632463B461046194695
:10249000FDF779FF06460F466410002CEAD1DDE90E
:1024A0000401DDE90023BAF1000F06DAFDF76BFF46
:1024B00042464B46FDF767FF05E0FDF7D6FF424673
:1024C0004B46FDF7D2FF04460E460022284BFEF78E
:1024D00009FA03D84FF0FF30014607E00022254BF0
:1024E00020463146FDF7A8FEFEF7E4F9102409E086
:1024F000002C0ADB0A220023FEF7E6F8039B3032A9
:102500001A55641E50EA0102F2D1641C039AC4F108
:1025100011031444119A012A03D0012208430DD15A
:102520000AE0084304D000204FF0110B119072E72D
:10253000A3EB0B056D1E0DE05B4504DD4FF00002C3
:1025400005F1010504E003DA4FF00002A5F10105F1
:10255000002AECD002981199C0E90231C0E9004587
:1025600079E70000000014400000F03F3000000058
:102570000000F0430000E03F2DE9FF4F95B09B467F
:102580008946064600250FE2252877D100242746F4
:10259000F84A0121059400E0044316F8013F203B6E
:1025A00001FA03F01042F7D130782A2811D06FF0E9
:1025B0002F033078A0F13002092A16D8059A44F08A
:1025C000020402EB820203EB42021044761C0590E7
:1025D000EFE759F8042B0592002A03DA504244F43D
:1025E0000054059044F00204761C30782E2816D151
:1025F00016F8010F44F004042A280DD06FF02F02C2
:102600003078A0F13003092B09D807EB870302EBE0
:102610004303C718761CF3E759F8047B761C30781F
:102620006C280FD006DC4C2817D068280DD06A28FB
:1026300014D104E0742810D07A280FD10DE044F4AE
:1026400000140AE044F4801401E044F44014727869
:10265000824202D104F58014761C761C30786628FC
:102660000BD013DC582877D009DC002875D045281A
:10267000F6D04628F4D047281AD19DE118E0632807
:1026800035D0642879D0652812D195E1702873D0AF
:1026900008DC6728F1D069286FD06E280DD06F282C
:1026A00006D1B5E073282CD0752875D0782874D061
:1026B0005A46179990476D1C75E1C4F302500228E1
:1026C00009D003280DD0D9F8001004280DD00D60D2
:1026D00009F1040967E1D9F80010EA17C1E90052CD
:1026E000F6E7D9F800100D80F2E70D70F0E719F861
:1026F000041B8DF8001000208DF80100EA4601202F
:1027000003E059F804AB4FF0FF3061074FF00001D0
:1027100002D40DE008F101018846B9420FDA804584
:10272000F8DB1AF808100029F4D108E008F10101DB
:1027300088468142FADB1AF808100029F6D105987C
:102740005B46A0EB080721463846179A00F094FA3A
:10275000284400EB080507E04DE029E10DE01AF8F8
:10276000010B5A4617999047B8F10108F7D25B461A
:1027700021463846179A13E142E00A220092C4F338
:1027800002524FF0000A022A08D059F804CB032A5B
:102790004FEAEC710AD00DE029E02AE009F10701C7
:1027A00021F00702F2E802C1914609E00FFA8CFC21
:1027B0004FEAEC71042A03D14FFA8CFC4FEAEC711A
:1027C000002907DA0A460021DCF1000C61EB020166
:1027D0002D2202E0220504D52B228DF804200122AF
:1027E00003E0E20701D02022F7E7904659E00A21F2
:1027F00002E010220DE010214FF0000A00910BE0E2
:1028000010224FF0000A44F004040827009203E06D
:1028100008224FF0000A0092C4F30252022A05D0A7
:1028200059F804CB0021032A08D009E009F1070177
:1028300021F00702F2E802C1914605E01FFA8CFC84
:10284000042A01D10CF0FF0C4FF00008220728D514
:10285000702806D0009B83F0100353EA0A0305D0CA
:102860000EE040228DF80420012208E05CEA01021B
:1028700006D030228DF804208DF805000222904603
:10288000009B83F0080353EA0A030AD15CEA0102C1
:1028900001D1620705D530228DF804204FF00108E0
:1028A0007F1E582804D034A003900EA802900DE09B
:1028B00036A0F9E753466046009AFDF705FF8446C7
:1028C0000398825C0298401E029002705CEA01004C
:1028D000F0D1029806A9081A00F1200A600702D573
:1028E00024F4803400E00127574502DDA7EB0A00FD
:1028F00000E0002000EB0A01009005984144401AD6
:102900000590E00306D45B462146179A059800F02F
:10291000B3F90544002706E001A85A46C05D17999F
:1029200090476D1C7F1C4745F6DBE0030CD55B46EA
:102930002146179A059800F09FF9054404E03020DD
:102940005A46179990476D1C0099481E009000291F
:10295000F5DC08E0029802995A460078491C029179
:10296000179990476D1CBAF10001AAF1010AF1DC38
:1029700065E1000009280100303132333435363743
:1029800038396162636465660000000030313233BB
:10299000343536373839414243444546000000005B
:1029A00000F058F90544761C307800287FF4ECAD2F
:1029B00019B02846BDE8F08F620700D4062709F158
:1029C000070222F0070CFCE80223E14603F000486E
:1029D0005FEA080C02D00FF2702C0DE05FEA045C95
:1029E00002D50FF2682C07E05FEAC47C02D00FF238
:1029F000602C01E0AFF2700C4FF0FF3823F0004381
:102A0000CDF850C065280CD006DC452809D04628F2
:102A10001DD047283DD13DE0662818D067287ED1DB
:102A200038E00021112F01DB112000E0781CCDE9F6
:102A3000000106A90EA8FFF7DDFCDDE90F010E9AE3
:102A400003910021009207F1010A04914DE04FF03B
:102A500000400097CDE9011006A90EA8FFF7CAFCB7
:102A6000DDE90F0203920E9B11990022DDF80CA004
:102A70000093049211B9791C00EB010AB7EB0A002C
:102A800004D4C0F1FF3007F1010A0490AAEB07005B
:102A9000019044E0012F00DA01270021112F01DD10
:102AA000112000E03846CDE9000106A90EA8FFF785
:102AB000A1FCDDE90F010E9A03910021049100921F
:102AC000BA4621070CD40399514500DA8A46BAF177
:102AD000010F05DD009AAAF10101515C302908D0EF
:102AE000B84202DA10F1040F06DA0121CDE9011033
:102AF00015E0AAF10101E9E7002805DC0499014489
:102B00000491AAEB000102E0411C514500DD8A4618
:102B10000499401A401C01904FF000400290200799
:102B200004D40198504501DBCDF8048000208DF8D5
:102B30004F0002980DF14F07B0F1004F25D02B2028
:102B40000E9002984FF0020800280CDA40420290E2
:102B50002D200E9007E00A210298FDF79FFD3031ED
:102B6000029007F8011DB8F10001A8F10108F2DC9C
:102B700002980028EFD1791E0E980870307800F086
:102B8000200040F0450007F8020D12A8C01B00F11C
:102B900007081498007800B1012000EB0A010198A1
:102BA00001EBE07105984144401A401E0590E00396
:102BB00006D45B462146179A059800F05DF8054457
:102BC0001498007818B15A46179990476D1CE00385
:102BD00024D55B462146179A059800F04DF8054428
:102BE0001CE00498002807DBDDE90301884203DDCF
:102BF0000098405C179901E0179930205A46904799
:102C0000049805F10105401C04900198401E0190B4
:102C100004D12E205A46179990476D1CBAF1000135
:102C2000AAF1010ADDDC05E017F8010B5A461799F5
:102C300090476D1CB8F10001A8F10108F4DC5B4677
:102C40002146179A0598ABE62D0000002B000000E6
:102C5000200000002DE9F041044600251E461746DD
:102C6000880404D405E039462020B0476D1C641E5A
:102C7000F9D52846BDE8F0812DE9F041044600254C
:102C80001E469046C80301D5302700E0202788045F
:102C900004D505E041463846B0476D1C641EF9D5A1
:102CA0002846BDE8F081000010B5FEF7A9FA00F053
:102CB000B5F8002820D11DE000F0B0F8012812D1AD
:102CC00000F0C6F8044621460FA0FFF773FB002072
:102CD00000F04AFA4FF4B47000F0B2F94FF4FA7011
:102CE00000F076F807E00EA0FFF764FB4FF47A706F
:102CF00000F06EF8E0E700BF0F48FEF7FBFD0F485D
:102D0000FEF72EFF10BD000043757272656E7420D1
:102D10004D61676E69747564653A2025640D0A001B
:102D200043616E277420646574656374206D616708
:102D30006E65740D0A00000000002041B81E053FBA
:102D4000002003E00021034A1154401C0828F9DB4D
:102D50007047000050000020002006490860064926
:102D60000860064908600649086006490860064987
:102D70000860704714000020180000201C0000208C
:102D800020000020240000202800002010B56FF053
:102D90000400FEF76BFD0A4800680A49B0FBF1F039
:102DA000094908700846007800EB4001C1EBC010EB
:102DB0004FF6FF7101EAC0000449088010BD000011
:102DC000B800002000127A00580000205A000020AD
:102DD0000146114A12884A434FF0E0235A6100220B
:102DE0009A611A46126942F001021A6100BF4FF05F
:102DF000E022106900F001021AB100F48032002ACA
:102E0000F5D04FF0E022126922F001024FF0E023EA
:102E10001A6100229A6170475A00002070B500259F
:102E20000B2000F0ABF8044604F0200000B10125AF
:102E3000284670BD00BF054A128802F04002002AF1
:102E4000F9D0C2B2014B1B1D1A80704700440040EC
:102E500010B51C211B2000F0ADF8C0B210BD10B59C
:102E60000D210C2000F0A6F810BD000008B5FFF7FA
:102E70008DFF4FF4A060FEF79BFBFEF741FB4FF484
:102E80007A3000F095F900F065F80020042308225C
:102E900007210090FDF7A6FE14E00B48FEF78AF824
:102EA00080B109490868FDF7B5FB044622460B4688
:102EB00006A0FFF77FFA0448006806490860024848
:102EC00000F00AF8E9E700005000002025660D0A2E
:102ED000000000000400002010B5044620794628B8
:102EE00024D004DC412807D0432824D114E05328FF
:102EF00007D054281FD113E010480068104908601B
:102F00001AE0002020710D4920680860FFF718FFC3
:102F10000CA0FEF72DF80FE00BA0FEF729F80BE050
:102F2000FDF70AFD09A0FEF723F805E00848006850
:102F3000FEF72AF800E000BF00BF10BD44000020EB
:102F400004000020523000005243000053300000C3
:102F50007400002010B5FFF781F9FFF7A5FE4FF0D0
:102F60008043034A03490448FEF72CFB10BD0000D0
:102F70006F12833A17B7D1385839B43B70B504464D
:102F80000025FEF7F1F96C20FEF7B4F9FEF736FAEA
:102F90002046FEF7AFF9FEF731FAFEF7E5F96D20AE
:102FA000FEF7A8F9FEF72AFA0120FEF76BF90546AD
:102FB000284670BD2DE9FC4107460D46002600203D
:102FC00007E000211C4A116001211C4AC2F8A0112F
:102FD000401C0828F5DBFEF7C7F96C20FEF78AF9DC
:102FE000FEF70CFA2846FEF785F9FEF707FAFEF71A
:102FF000BBF96D20FEF77EF9FEF700FA002405E02C
:103000000120FEF73FF92DF81400641C022CF7DBB9
:10301000FEF7D0F9BDF802004FF6FF7101EA00207B
:10302000ADF80200BDF80200BDF8001040EA01064C
:103030003046BDE8FC810000A08121420080214291
:1030400010B504460E4804800088010A032000F0F1
:1030500089F90220FEF704FA094800780002C1B29B
:10306000042000F07FF90220FEF7FAF90421032082
:10307000FFF7A0FF034908800846008810BD000044
:103080003C0000203E0000202DE9F14F82B0244892
:103090000068FDF762FA06460F460298FDF7BAFA95
:1030A000204A214BCDE90001FDF76DF980463246FB
:1030B0003B46FDF768F904461C4A1D4BFDF763F9D2
:1030C0008246FDF7BAFA1B490860002119480068DA
:1030D000FDF7D0FA22D0002116480068FDF7D4FA97
:1030E0000ED214480068FDF795FA0646124A134BB3
:1030F000FDF743F90446FDF7A0FA0E4908600DE01C
:103100000C480068FDF786FA06460B4A0B4BFDF7A4
:1031100093F80446FDF791FA06490860BDE8FE8F72
:1031200084000020B9FC87F4DBD7E53F2D431CEB7E
:10313000E2361A3F140000209A9999999999D93F3B
:10314000034B1860034B1960034B1A607047000073
:10315000080000200C000020100000200149086039
:10316000704700003000002010B504460E4804806F
:103170000088010A012000F0F5F80220FEF770F93E
:10318000094800780002C1B2022000F0EBF80220EA
:10319000FEF766F902210120FFF70CFF03490880C2
:1031A0000846008810BD0000380000203A000020CA
:1031B00010B586B0044601210420FEF767FA01210C
:1031C0004804FEF753FA0420ADF8140003208DF8EC
:1031D000160018208DF8170005A91C48FDF75BFFA5
:1031E0000820ADF8140004208DF8170005A9174831
:1031F000FDF751FF26208DF8000003208DF8010017
:103200008DF8020001208DF803006846FEF798F95A
:1032100001940020ADF80800ADF80A00ADF80C00EC
:10322000ADF810000C20ADF80E0001A90848FEF71B
:10323000A1FF012240F225510548FEF775FF01214B
:103240000348FEF73BFF06B010BD00000008014038
:10325000004400402DE9F04F85B0834632480168B4
:103260005846FCF7B4FF8246304801685046FCF7E8
:10327000ABFF04902E4804990068FCF7ABFF2D4982
:1032800008602D48C0F800A0284801684FF0804031
:10329000FCF7A0FF05465146FCF799FF0446274876
:1032A00001682046FCF73EFF254908601F4800687A
:1032B000224908601D48C0F800A021480168214843
:1032C0000068FCF787FF05461B4801681E48006838
:1032D000FCF780FF0646174801683046FCF722FFDE
:1032E00004462946FCF71EFF184908600846006896
:1032F000FDF790F904460D465046FDF78BF906465A
:103300000F4609480068FDF785F9804642460B469E
:103310000FA0CDE90067CDE90245FFF74BF80B4858
:10332000006805B0BDE8F08F1400002028000020E0
:10333000080000201C000020200000202C0000209D
:1033400024000020100000200C00002018000020A5
:10335000473A25662C453A25663A2C4F3A25660DA4
:103360000A00000070B505460C46FDF7FDFF6C2015
:10337000FDF7C0FFFEF742F82846FDF7BBFFFEF75A
:103380003DF82046FDF7B6FFFEF738F8FEF712F8D5
:1033900070BD0000B433000800000020CC00000025
:1033A000D423000880340008CC000020540400001E
:1033B000E4230008000000000000000000000000FE
:1033C00000000000000000000000000000000000FD
:1033D00000000000000000000000000000000000ED
:1033E00000000000000000000000000000000000DD
:1033F00000000000000000000000000000000000CD
:1034000000000000000000000000000000000000BC
:1034100000000000000000000000000000000000AC
:103420000000000000000000000080BF000000005D
:10343000000000000000000000000000000000008C
:10344000FFFFFFFF00000000000000000000000080
:10345000FFFFFFFF00000000000000000102030466
:1034600001020304060708090204060800A24A0430
:103470000000000000000000010203040607080924
:04000005080000ED02
:00000001FF
