:020000040800F2
:100000001005002001010008F11200080B01000892
:10001000ED12000859070008172000080000000032
:10002000000000000000000000000000351500087E
:10003000490E00080000000017010008190100081F
:100040001B0100081B0100081B0100081B01000820
:100050001B0100081B0100081B0100081B01000810
:100060001B0100081B0100081B0100081B01000800
:100070001B0100081B0100081B0100081B010008F0
:100080001B0100081B0100081B0100081B010008E0
:100090001B0100081B0100081B0100081B010008D0
:1000A0001B0100081B0100081B0100081B010008C0
:1000B00025170008DD1900081B0100081B010008B6
:1000C0001B0100081B0100081B0100081B010008A0
:1000D0001B010008451D0008E11D00081B01000868
:1000E0001B0100081B0100081B010008DFF80CD0F1
:1000F00000F0FEFA004800477123000810050020B8
:100100000648804706480047FEE7FEE7FEE7FEE7B1
:10011000FEE7FEE7FEE7FEE7FEE7FEE7491600081A
:10012000ED000008F0B480EA0102D40F4200B2EB07
:10013000410F02D20246084611464A0042D0C30D82
:10014000DDB2C1F3C752AD1A202D35DAC1F3160165
:1001500041F4000204B15242C5F1200602FA06F150
:100160002A411044B3EBD05F23D0C4B1012DA0EBE2
:10017000C35009DCF0BC4FF0004202EAC352DBB2CC
:1001800000F5000000F028BA400000F1807000EB9C
:10019000C350A0F1807040EAD170490009E04908DD
:1001A00041EAC071A0EBC35000F50000400800EB2D
:1001B000C350F0BC00F007BA6142012202EB4101DA
:1001C000001BF6E7F0BC704781F00041AAE780F021
:1001D0000040A7E780EA010210B502F000434000AA
:1001E00022D04A001FD0010E01EB1261C0F356006D
:1001F000C2F3560240F4000042F40002A0FB0220C9
:1002000000047F39140400D0401C50EA124001D48D
:100210004000491EC2B20C0604EBD010401C40083E
:10022000802A02D003E0002010BD20F00100002948
:1002300000DA0020184310BD2DE9FE4F81EA0304C7
:1002400004F0004421F0004100944FF0000B23F033
:10025000004350EA01045ED052EA03045BD0C3F3CA
:100260000A54C1F30A552C44A4F2F3340194A0FBC0
:100270000254C1F3130141F48011C3F3130343F497
:10028000801301FB024400FB034E840A970A44EAF0
:10029000815447EA8357A4FB076802958D0A05FB42
:1002A00007854FEA932C04FB0C542705029D4FEA67
:1002B000065847EA1637B5EB08056EEB070C870EB4
:1002C000920E47EA811742EA8312A7FB0201B6EBBE
:1002D0000B0164EB00042B0D43EA0C335E1844EB76
:1002E0001C50DA465146E7FB0201C5F313044FEAFE
:1002F0000B3343EA14534FEA0432019C43EA0603EA
:10030000A4F10C040294009CCDE900B400F0A1F922
:1003100003B0BDE8F08F00200146F9E72DE9F04D6C
:1003200081EA030404F0004B21F0004514464FF02D
:10033000000A23F0004150EA050220D054EA0102ED
:100340001DD0C5F30A570246C5F31303C1F31300CA
:10035000C1F30A5640F4801543F48013A7EB060856
:10036000101BD64608F2FD3873EB050002D308F1E6
:10037000010801E092185B41B8F1000F03DA002098
:100380000146BDE8F08D00204FF4801106468446FA
:100390000EE0171B73EB050705D3121B63EB050378
:1003A00006434CEA010C49084FEA300092185B41C1
:1003B00050EA0107EDD152EA030012D082EA0400AC
:1003C00083EA0501084305D0101BAB4106D2012288
:1003D000002306E000224FF0004302E06FF001022C
:1003E00053101AEB06004CEB085110EB0A0041EBDE
:1003F0000B01BDE8F04D00F01DB90EB5C10F80EA4C
:10040000E0700844CA07002140F233438DE80E0033
:100410000A460B4600F01DF903B000BD20F0004075
:10042000C10DC0F3160040F400007F2901DA00205E
:100430007047962903DCC1F19601C8407047963990
:1004400088407047C1F30A5210B5C1F3130140F25E
:10045000FF3341F480119A4201DA002010BD40F2CE
:1004600033439A42A2F2334203DC524200F09BF83B
:1004700010BD904010BD00F0004230F000400AD0A6
:10048000C10D01F56071C0F3160042EA0151C208C6
:1004900040071143704700200146704730B5041EE5
:1004A00071F1000404DB4FF00044404264EB0101B1
:1004B000141E73F1000405DB1C464FF0004352424A
:1004C00063EB04038B4208BF824230BD30B5041E8B
:1004D00071F1000404DB4FF00044404264EB010181
:1004E000141E73F1000405DB1C464FF0004352421A
:1004F00063EB0403994208BF904230BD01F0004312
:1005000030B421F0004150EA010206D00A0DA2F5F4
:100510006072C1F31301002A02DC30BC0020704776
:10052000440F44EAC104C100E01830BC00EBC250E3
:1005300000F049B8002801DBC0F10040002901DBD0
:10054000C1F1004181427047002801DBC0F1004049
:10055000002901DBC1F100418842704730B50B46EC
:10056000014600202022012409E021FA02F59D42E3
:1005700005D303FA02F5491B04FA02F52844151EB7
:10058000A2F10102F1DC30BD202A04DB203A00FA9E
:1005900002F1002070479140C2F1200320FA03F3DA
:1005A000194390407047202A04DB203A21FA02F0D8
:1005B0000021704721FA02F3D040C2F1200291409D
:1005C0000843194670470029A8BF7047401C4900DE
:1005D00008BF20F00100704710B4B0FA80FC00FAA8
:1005E0000CF050EA010404BF10BC704749B1CCF1D3
:1005F000200421FA04F411FA0CF118BF012121435F
:100600000843A3EB0C01CB1D4FEA00614FEA102019
:1006100042BF002010BC704700EBC35010440029BB
:10062000A4BF10BC7047401C490008BF20F0010067
:1006300010BC704710B5141E73F1000408DA401C9A
:1006400041F1000192185B411A4301D120F00100F1
:1006500010BD2DE9F04D92469B4611B1B1FA81F2E1
:1006600002E0B0FA80F220329046FFF78DFF044698
:100670000F4640EA0A0041EA0B0153465A46084336
:1006800013D0114653EA010019D0C8F14002504678
:10069000FFF789FF05460E46504659464246FFF78A
:1006A00073FF084305D0012004E020463946BDE829
:1006B000F08D0020054346EAE0762C4337430A9844
:1006C0006305E40AA0EB08000022FD0A44EA47544F
:1006D0000A3002D500200146E9E7010510196941F9
:1006E000DDE9084500196941BDE8F04DA2E70000C9
:1006F000064C074D06E0E06840F0010394E807006F
:1007000098471034AC42F6D3FFF7F4FC18290008E0
:100710003829000870B50246002319E0002012E0D5
:1007200052F8204002EB80056D68AC420ADA02EB19
:1007300080056C6852F8205002EB8006756042F824
:10074000204000BF401CCC1A641E8442E8DC5B1CC5
:10075000481E9842E2DC70BD00BFFEE710B50021E4
:10076000837A012202FA03F13D4A126842F0010243
:100770003B4B1A603A4A1C3212688A43384B1C338E
:100780001A60027BCAB9364A0C3212688A43344B6B
:100790000C331A604288C38842EA0343304A40322D
:1007A000847A42F834300288838842EA03432C4A30
:1007B0004032847A02EBC4025360027B012A19D1D1
:1007C000274A0C3212680A43254B0C331A604288C0
:1007D000038842EA0343224A4032847A42F83430A2
:1007E000C288838842EA03431D4A4032847A02EB7E
:1007F000C4025360C27A3AB9194A121D12688A4378
:10080000174B1B1D1A6006E0154A121D12680A4399
:10081000134B1B1D1A60028932B9114A1432126837
:100820008A430F4B14331A600289012A06D10C4AFD
:10083000143212680A430A4B14331A60427B012AAD
:1008400006D1074A1C3212680A43054B1C331A6052
:10085000034A126822F00102014B1A6010BD000029
:100860000066004030B5024600200023146824F0E2
:1008700002041460146844F00104146000E05B1C7E
:10088000546804F001041CB94FF6FF74A342F6D17A
:10089000546804F001040CB900206CE08C79012C40
:1008A00004D1146844F08004146003E0146824F058
:1008B00080041460CC79012C04D1146844F0400405
:1008C000146003E0146824F0400414600C7A012CD6
:1008D00004D1146844F02004146003E0146824F088
:1008E000200414604C7A012C04D1146844F01004E4
:1008F000146003E0146824F0100414608C7A012C56
:1009000004D1146844F00804146003E0146824F06F
:1009100008041460CC7A012C04D1146844F0040457
:10092000146003E0146824F0040414608C78A407B5
:10093000CD7844EA05640D7944EA05444D7944EAEA
:1009400005540D886D1E2C43D461146824F00104F5
:100950001460002300E05B1C546804F001041CB127
:100960004FF6FF74A342F6D1546804F001040CB1B1
:10097000002000E0012030BD0246002019B9D368F4
:1009800003F0030006E0012903D1136903F003001B
:1009900000E00020704700002DE9F04188B00446D7
:1009A0000D4616461F46DDF838800121042000F070
:1009B00047FD0121480600F033FD4FF48050ADF8AB
:1009C0001C0003208DF81E0018208DF81F0007A9B9
:1009D000244800F03AFA4FF40060ADF81C004820BB
:1009E0008DF81F0007A91F4800F02FFA00208DF88E
:1009F00016008DF817008DF818008DF819008DF885
:100A00001A0001208DF81B008DF812808DF813401C
:100A10008DF814608DF81550ADF8107004A91248C7
:100A2000FFF720FF00208DF80A008DF80B00012051
:100A30008DF80C002020ADF800000020ADF8020079
:100A40002020ADF804000020ADF80600ADF8080045
:100A500001208DF80D006846FFF780FE002008B0E9
:100A6000BDE8F081000801400064004010B500F5C9
:100A7000D87303EB01131B6803F004031372137A9A
:100A800053B900F5D87303EB01131B6840F2FF74F0
:100A900004EA5353136009E000F5D87303EB011324
:100AA0001B686FF0604404EAD303536000F5D87309
:100AB00003EB01131B6803F00203537200F5D873B4
:100AC00003EB01135B6803F00F03937200F5D87317
:100AD00003EB01135B681B0AD37400F5D87303EBB7
:100AE00001139B68D37200F5D87303EB01139B6865
:100AF0001C0A147300F5D87303EB01139B681C0CDC
:100B0000547300F5D87303EB01139B681B0E9373AA
:100B100000F5D87303EB0113DB68D37300F5D873CA
:100B200003EB0113DB681C0A147400F5D87303EBA4
:100B30000113DB681C0C547400F5D87303EB01132C
:100B4000DB681B0E937421B9C36843F02003C360B4
:100B500003E0036943F02003036110BD10B50246B2
:100B60000020936803F08063B3F1806F00D110E040
:100B7000936803F00063B3F1006F01D1012008E036
:100B8000936803F08053B3F1805F01D1022000E04D
:100B90000420042874D002F5C07303EB00131B6813
:100BA00003F0010402F5C07303EB00131C600B7A21
:100BB0007BB94B7A0C8843EA445302F5C07404EBCA
:100BC00000142468234302F5C07404EB001423606E
:100BD00010E00B7A4C6843EAC4034C7A234302F5D5
:100BE000C07404EB00142468234302F5C07404EBC2
:100BF000001423608B7A03F00F038B7202F5C0732D
:100C000003EB00135B6823F00F0402F5C07303EBE2
:100C100000135C6002F5C07303EB00135B688C7A11
:100C2000234302F5C07404EB001463608B7B1C0645
:100C30004B7B44EA03440B7B44EA0323CC7A2343F3
:100C400002F5C07404EB0014A3608B7C1C064B7C83
:100C500044EA03440B7C44EA0323CC7B234302F5A0
:100C6000C07404EB0014E36002F5C07303EB0013DF
:100C70001B6843F0010402F5C07303EB00131C6012
:100C800010BD000010B50246002321B1012907D094
:100C900002290FD109E090681D4C00EA04030BE023
:100CA00090681C4C00EA040306E090681A4C00EAC5
:100CB000040301E0002300BF00BF184C181BA3422F
:100CC00016D007DC83B16FF08060184470B1022841
:100CD00018D111E0B0F5007F10D0114C204448B17C
:100CE000B0F5003F0ED10BE002230DE000230BE036
:100CF000002309E0002307E0012305E0012303E0CE
:100D0000012301E0002300BF00BFD8B210BD0000E6
:100D100003000004000300080000031000010008A5
:100D20000001FFF770B504464FF00052082120463D
:100D300000F04EF80546284670BD000070B5044628
:100D40000848046046200749087153204871302044
:100D500088714FF000520821024800F039F805462A
:100D6000284670BD4800002030B585B005460021FA
:100D70001448FFF701FE10B9002005B030BD6A46E7
:100D800000211048FFF772FE00240F480068C0439E
:100D90000E49C1F8BC0104E00DF10B00005D2855BF
:100DA000641C082CF8D30F2001F094FA0648006860
:100DB000C0430649C1F8BC010F2001F08BFA9DF831
:100DC0000A00DAE700640040BC8121420080214231
:100DD0002DE9F04186B080460D4616460024700D80
:100DE0000190C6F3D100029000208DF80C008DF820
:100DF0000D008DF80E5000BF06E018F804100DF13C
:100E00000F000155601C84B2AC42F6DB01A90D480D
:100E1000FFF7A4FE0746002401E0601C84B23946B7
:100E20000848FFF72FFF18B940F6FF708442F4DB43
:100E300040F6FF70844203DB012006B0BDE8F0817C
:100E40000020FAE70064004070472DE9F0410246B7
:100E500000250026002000230024002791F803C06D
:100E60000CF00F0591F803C00CF0100CBCF1000F52
:100E700003D091F802C04CEA050591F800C0BCF11E
:100E8000000F31D0146800202BE04FF0010C0CFA59
:100E900000F3B1F800C00CEA03069E4220D18300A3
:100EA0004FF00F0C0CFA03F7BC4305FA03FC4CEAB5
:100EB000040491F803C0BCF1280F06D14FF0010CD7
:100EC0000CFA00FCC2F814C00AE091F803C0BCF1AF
:100ED000480F05D14FF0010C0CFA00FCC2F810C00D
:100EE000401C0828D1D31460B1F800C0BCF1FF0F3A
:100EF00034DD546800202EE000F1080C4FF00108AA
:100F000008FA0CF3B1F800C00CEA03069E4221D1A6
:100F100083004FF00F0C0CFA03F7BC4305FA03FCF7
:100F20004CEA040491F803C0BCF1280F05D100F18C
:100F3000080C08FA0CF8C2F8148091F803C0BCF150
:100F4000480F07D100F1080C4FF0010808FA0CF81F
:100F5000C2F81080401C0828CED35460BDE8F08150
:100F6000416170470161704700B500200E4908607B
:100F70000E48006820F0F0000C4908600846006840
:100F800040F03000086000200949C1F8A4010120A8
:100F900000F040F901200449086000F03BF900200E
:100FA0000349C1F8A00100BDA0812142040C014009
:100FB0000080214208B50121082000F041FA4FF4D9
:100FC0004070ADF8000010208DF8030003208DF86C
:100FD000020069460448FFF738FF4FF440710248A9
:100FE000FFF7C0FF08BD0000000C014000B5002065
:100FF0000E4908600E48006820F0F0000C490860B7
:101000000846006840F03000086001200949C1F836
:10101000A40100F0FFF801200449086000F0FAF88C
:1010200000200449C1F8A00100BD0000A0812142B8
:10103000040C01400080214230B5044600231748CB
:10104000006820F0F000154908600846006840F08C
:1010500080000860002516E000201149086001208A
:1010600000F0D8F801200F49C1F8A0015806030E7E
:101070000B487C38006808B1581CC3B2012000F04E
:10108000C9F8681CC5B2082DE6DB14B9FFF7AEFF3E
:1010900001E0FFF769FF184630BD0000040C014075
:1010A000A08121420080214210B503461848006803
:1010B00020F0F000164908600846006840F0300053
:1010C000086000201349086000241DE0D80920B101
:1010D00001201049091D086003E000200D49091D89
:1010E00008605806030E012000F094F80120094919
:1010F000086000F08FF800200749C1F8A001012026
:1011000000F088F8601CC4B2082CDFDB10BD0000C2
:10111000040C0140A08121420080214200B50F480B
:10112000006820F0F0000D4908600846006840F0B3
:101130003000086001200A4908600A49C1F8A0018E
:1011400000F068F8002006490860012000F062F80D
:1011500000200449C1F8A00100BD0000040C0140BA
:10116000A48121420080214200B50E48006820F091
:10117000F0000C4908600846006840F03000086044
:1011800001200949086000200849C1F8A401012094
:1011900000F040F801200449091D086000F03AF809
:1011A00000BD0000040C0140A081214200802142CA
:1011B00000B500231448006820F0F00012490860D0
:1011C0000846006840F08000086001200F49086070
:1011D00000F020F801200E49C1F8A00100F01AF833
:1011E00007E0581CC3B2FA2B03DDFFF7BDFF012057
:1011F00000BD0648803800680028F2D10349091F65
:10120000086000BFF4E70000040C0140A481214203
:1012100000802142002100BF48E000BF00BF00BFA6
:1012200000BF00BF00BF00BF00BF00BF00BF00BFC6
:1012300000BF00BF00BF00BF00BF00BF00BF00BFB6
:1012400000BF00BF00BF00BF00BF00BF00BF00BFA6
:1012500000BF00BF00BF00BF00BF00BF00BF00BF96
:1012600000BF00BF00BF00BF00BF00BF00BF00BF86
:1012700000BF00BF00BF00BF00BF00BF00BF00BF76
:1012800000BF00BF00BF00BF00BF00BF00BF00BF66
:1012900000BF00BF00BF00BF00BF00BF00BF00BF56
:1012A00000BF00BF00BF00BF00BF491C8142B4D3D4
:1012B0007047000008B50121082000F0C1F84FF484
:1012C0000040ADF8000010208DF8030003208DF8D9
:1012D000020069460448FFF7B8FD4FF40041024898
:1012E000FFF73EFE08BD0000000C014000BFFEE716
:1012F0007047000070B5002100230F22C47804B3AA
:10130000154C246804F4E064C4F5E064210AC1F1DA
:101310000403CA40447804FA03F18478144021435A
:1013200009010E4C0678A155047804F01F0501242C
:10133000AC4005786D11AD0005F1E025C5F8004120
:1013400009E0047804F01F050124AC40044D067840
:10135000761145F8264070BD0CED00E000E400E099
:1013600080E100E002490143024A11607047000039
:101370000000FA050CED00E02DE9F04105460E46AF
:1013800017461C463A463146284601F0BDF920462C
:1013900001F0C8F900F062FF204600F003F8BDE854
:1013A000F08100007FB504460121022000F038F8EA
:1013B00019492046FEF70EFF06464FF07E51FEF714
:1013C00003FF0546FFF72AF880B2ADF80800472072
:1013D000ADF804000020ADF80A00ADF8060001A940
:1013E0000E4800F05DFC012211460C4800F095FB10
:1013F0001D208DF8000001208DF8010002208DF8DD
:10140000020001208DF803006846FFF773FF0121F9
:10141000024800F065FB7FBD00007A4400040040F4
:1014200029B1064AD2690243044BDA6104E0034A57
:10143000D2698243014BDA6170470000001002401C
:1014400029B1064A92690243044B9A6104E0034AB7
:1014500092698243014B9A6170470000001002407C
:1014600030B500210022002400232D4D6D6805F0C9
:101470000C0121B1042905D0082923D105E0294D0B
:10148000056022E0274D05601FE0254D6D6805F4DD
:101490007012234D6D6805F48034022505EB9242ED
:1014A0001CB9214D554305600BE01D4D6D6805F4D9
:1014B00000351DB11C4D5543056002E0194D5543E3
:1014C000056002E0174D056000BF00BF144D6D6858
:1014D00005F0F0010909154D6B5C0568DD404560BC
:1014E0000F4D6D6805F4E061090A104D6B5C4568AD
:1014F000DD4085600A4D6D6805F46051C90A0B4DE9
:101500006B5C4568DD40C560054D6D6805F4404184
:10151000890B074D6B5CC568B5FBF3F5056130BD04
:101520000010024000127A0000093D00A4000020D3
:10153000B4000020704710B500F002F810BD0000A4
:101540000CB50020019000903348006840F48030D2
:101550003149086000BF3048006800F40030009056
:101560000198401C0190009818B90198B0F5A06F3F
:10157000F1D12948006800F4003010B1012000903A
:1015800001E0002000900098012843D12348006822
:1015900040F01000214908600846006820F0030070
:1015A00008600846006840F0020008601A48406879
:1015B000194948600846406848600846406840F459
:1015C000806048600846406820F47C104860084607
:1015D000406840F4E81048600846006840F08070B9
:1015E000086000BF0C48006800F000700028F9D0C7
:1015F0000948406820F003000749486008464068F1
:1016000040F00200486000BF0348406800F00C0052
:101610000828F9D10CBD0000001002400020024053
:10162000042808D14FF0E021096941F004014FF08E
:10163000E022116107E04FF0E021096921F0040187
:101640004FF0E0221161704710B51348006840F078
:1016500001001149086008464068104908400E49D9
:101660004860084600680E4908400B490860084673
:10167000006820F4802008600846406820F4FE00DE
:1016800048604FF41F008860FFF755FF4FF000607F
:101690000449086010BD0000001002400000FFF87F
:1016A000FFFFF6FE08ED00E07FB504460121C80209
:1016B000FFF7C6FE19492046FEF78CFD06464FF09F
:1016C0007E51FEF781FD0546FEF7A8FE80B2ADF81B
:1016D00008004720ADF804000020ADF80600ADF882
:1016E0000A008DF80C0001A90D4800F0D9FA01217B
:1016F0000B4800F0EFF919208DF8000001208DF85B
:1017000001008DF802008DF803006846FFF7F2FD36
:101710000121034800F0E4F97FBD000000007A4495
:10172000002C01402DE9F05F0121880700F0E4F969
:10173000002871D072480068401C58B900F011FEB2
:1017400070490860084600686D49086000206E49CD
:101750000880CFE000F005FE6A4908606A4800880A
:101760006A49096808446949086000206649088098
:101770006448006862490968401A6549086008467B
:101780000068012806DC08460068B0F1FF3F01DB75
:10179000002008605E480068002813DB5C48006891
:1017A000B0F5806F03DC01205A4908601DE04FF05E
:1017B000FF305849086056480068A0F6FF70544949
:1017C000086012E05248006810F5806F04DB4FF0AB
:1017D000FF305049086008E001204E4908604C483D
:1017E000006800F6FF704A490860464800684449AE
:1017F0000860494800680D2870DB4FF0000B00209E
:10180000454908600D214548FEF784FF434880693B
:1018100043490860DA4641E070E041480068FEF75D
:10182000ECFD80463F4A404BFEF706FD04460D4660
:101830003A4951F82A00FEF7E0FD064622462B46BB
:10184000FEF72CFE1ED836480068FEF7D6FD04468B
:10185000364A374BFEF7F0FC06460F462F4951F843
:101860002A00FEF7CAFD804632463B46FEF72EFEB2
:1018700008D82A4850F82A002E49096808442D49FA
:10188000086005E00BF1010B0020244941F82A0013
:101890000020224941F82A000AF1010ABAF10D0F8D
:1018A000BBDBCBF10D002349096891FBF0F0224925
:1018B0000860164800680D2190FBF1F01F49086090
:1018C000124802681C4801681DA000F0A7FB002018
:1018D0000E4908601749086007E0FFE70C480068F8
:1018E0000E490D4A126841F822000B480068401C5E
:1018F000094908600121880700F0EFF8BDE8F09F72
:101900008C00002088000020242C01408000002052
:10191000900000200000002094000020CC00002057
:10192000A00000209A9999999999F13FCDCCCCCCFF
:10193000CCCCEC3F980000209C00002084000020CC
:10194000733A25642073743A25640D0A0000000080
:101950007FB5044601210846FFF762FD1D49204678
:10196000FEF738FC06464FF07E51FEF72DFC05468B
:10197000FEF754FD80B2ADF808004720ADF8040032
:1019800014492046FEF726FC134908600020ADF8F4
:101990000A00ADF8060001A94FF0804000F080F980
:1019A00001221146900700F0B8F81C208DF80000C5
:1019B00001208DF8010000208DF8020001208DF833
:1019C00003006846FFF796FC0121880700F088F8BD
:1019D0007FBD000000007A447800002010B501218E
:1019E0001B4800F089F890B31A48006800F068FEC0
:1019F00019491A480068FEF79DFD20D01748006875
:101A000000F00CFF0446164801682046FEF78AFBEA
:101A1000134908604FF07E5111480068FEF794FDAD
:101A200004D84FF07E500E49086008E00A490C487F
:101A30000068FEF77FFD02D807480949086008489A
:101A4000006800F069FD0121014800F046F810BD72
:101A50000004004004000020000080BF740000204B
:101A60007C00002030B587B005460C4601210420DB
:101A7000FFF7D6FC00F01CFDADF81450ADF8104097
:101A80000020ADF81600ADF8120004A9104800F0CF
:101A900007F96020ADF800000120ADF80200002039
:101AA000ADF8080069460A4800F040F86946084861
:101AB00000F092F80821064800F084F80821044854
:101AC00000F0DCF80121024800F00AF807B030BD50
:101AD00000080040CA4302827047CA43028270472E
:101AE00021B1028842F00102028004E002884FF630
:101AF000FE731A400280704730B502460020002372
:101B00000024158A05EA0103958905EA010413B149
:101B10000CB1012000E0002030BD1AB183890B43D5
:101B2000838102E083898B438381704770B50024F1
:101B300000220023058C4FF6FE7635400584028C8A
:101B40008388048B4FF68F752C40B51E2C400D8872
:101B50002C43751E2A400D892A434D882A43144D73
:101B6000A8420BD0134DA84208D0134DA84205D06F
:101B7000124DA84202D0124DA84213D14FF6F7756C
:101B80002A404D892A434FF6FB752A408D882A4307
:101B90004FF6FF652B404FF6FF552B408D892B43A9
:101BA000CD892B4383800483CD888586028470BDD4
:101BB000002C01400034014000400140004401403D
:101BC000004801400A460021018B4FF6F773194087
:101BD000114301837047000070B5002400220023E8
:101BE000058C4FF6EF7635400584028C8388048B94
:101BF00048F6FF752C404FF6FF452C400D884FF6F8
:101C0000FF7606EA05252C434FF6DF752A400D893D
:101C100006EA05152A434D8806EA05152A43154D9F
:101C2000A84202D0144DA8421DD14FF67F752A401C
:101C30004D894FF6FF7606EA05152A434FF6BF7524
:101C40002A408D8806EA05152A434FF6FF352B40BA
:101C50004FF2FF752B408D8906EA85052B43CD8910
:101C600006EA85052B4383800483CD88058702849B
:101C700070BD0000002C0140003401400A460021E4
:101C8000018B4FF2FF7319404FF6FF7303EA0223F3
:101C900019430183704781867047018770470000B0
:101CA000002202881D4B98420ED01D4B98420BD04B
:101CB000B0F1804F08D01B4B984205D01A4B984288
:101CC00002D01A4B984204D14FF68F731A404B88BA
:101CD0001A43174B984207D0164B984204D04FF640
:101CE000FF431A40CB881A4302808B8883850B8878
:101CF00003850A4B98420BD0094B984208D00E4BF3
:101D0000984205D00D4B984202D00D4B984201D11C
:101D10000B7A03860123838270470000002C014068
:101D2000003401400004004000080040000C004066
:101D300000100040001400400040014000440140F9
:101D40000048014010B540F22551224800F0A2F8A9
:101D500000283ED01F4800F059F9C4B21E48008840
:101D600000F4004018BB1C48008800F48040B0B16B
:101D7000442C03D00020184908802AE01648008827
:101D8000C0F30D00082803D000201349088020E08C
:101D90001148008840F400400F49088019E0452CA4
:101DA00006D10D48008840F480400B49088010E0BF
:101DB00009480088C0F30D0008490C540648008803
:101DC000401C0549088008460088082801DD0020DD
:101DD000088010BD00380140700000206000002025
:101DE00010B540F22551224800F054F800283ED0AA
:101DF0001F4800F00BF9C4B21E48008800F40040F0
:101E000018BB1C48008800F48040B0B10A2C03D0F5
:101E10000020184908802AE016480088C0F30D0009
:101E2000072803D000201349088020E011480088CB
:101E300040F400400F49088019E00D2C06D10D48F0
:101E4000008840F480400B49088010E00948008871
:101E5000C0F30D0008490C5406480088401C054991
:101E6000088008460088072801DD0020088010BD92
:101E700000440040720000206800002021B18289E7
:101E800042F40052828104E082894DF6FF731A40C9
:101E90008281704770B5024600240023002500208F
:101EA00040F66A16B14200D100BFC1F3421501F0FD
:101EB0001F03012606FA03F3012D02D19689334050
:101EC00006E0022D02D1168A334001E0968A3340A3
:101ED0000C12012606FA04F41688344013B10CB132
:101EE000012000E0002070BDF0B50346002400266C
:101EF0000025002040F66A17B94200D100BF1846FD
:101F0000C1F3421401F01F06012707FA06F5012C60
:101F100001D10C3004E0022C01D1103000E014306B
:101F20001AB107682F43076002E00768AF430760F4
:101F3000F0BD00002DE9F04786B005460E460024AE
:101F4000A24600BFA1460027B08900B100BF2F46BE
:101F50002C8A4CF6FF700440F08804432C82AC8934
:101F60004EF6F3100440B088318908437189084364
:101F70000443AC81AC8A4FF6FF400440B08904436F
:101F8000AC8201A8FFF76CFA1F48874202D1DDF846
:101F900010A001E0DDF80CA0A88900F4004040B1D9
:101FA0000AEBCA0000EB0A1031684900B0FBF1F8F7
:101FB00007E00AEBCA0000EB0A1031688900B0FBA9
:101FC000F1F86420B8FBF0F004012009642101FB62
:101FD0001089A88900F4004040B1322000EBC9000C
:101FE000B0FBF1F000F00700044308E0322000EB02
:101FF00009106421B0FBF1F000F00F0004432C81C4
:1020000006B0BDE8F087000000380140014688882E
:10201000C0F30800704700BFFEE700000FB4054B97
:1020200010B503A9044A029800F018F810BC5DF836
:1020300014FB0000392300085C00002002E008C8FF
:10204000121F08C1002AFAD170477047002001E032
:1020500001C1121F002AFBD1704700002DE9FF4F7C
:1020600089B09B460446002506E025280BD05A4639
:102070000B999047641C6D1C20780028F5D10DB099
:102080002846BDE8F08F0027B8460122474900E006
:10209000074314F8013F203B02FA03F00842F7D14E
:1020A00020782E2819D114F8010F47F004072A28A8
:1020B0000ED06FF02F022078A0F1300109290CD842
:1020C00008EB880102EB410100EB0108641CF2E718
:1020D0000A98641C50F8048B0A9020780028CED00F
:1020E000642808D0692806D075281ED05A460B9956
:1020F00090476D1C58E00A994FF00A0901C90A91EE
:10210000002802DA40422D2102E0390504D52B21B6
:102110008DF82010012103E0F90704D02021F7E712
:102120008A4608AE0DE00021FAE70A994FF00A0945
:1021300001C90A91F7E74946FEF710FA303106F86F
:10214000011D0028F7D1ADEB060000F1200978074A
:1021500001D44FF00108C84502DDA8EB090000E0FA
:1021600000208046002706E008A85A46C05D0B996B
:1021700090476D1C7F1C5745F6DB04E030205A4623
:102180000B9990476D1CB8F10001A8F10108F5DC2E
:1021900005E016F8010B5A460B9990476D1CB9F1F2
:1021A0000001A9F10109F4DC641C65E709280100BC
:1021B00010B5FEF7FFFE00F0B3F8002820D11DE0B7
:1021C00000F0AEF8012812D100F0C4F80446214610
:1021D0000FA0FFF723FF002000F0AAFA4FF4B4701D
:1021E00000F04AFA4FF4FA7000F074F807E00EA01D
:1021F000FFF714FF4FF47A7000F06CF8E0E700BFCF
:102200000F48FFF751FA4FF07C50FFF7A1FB10BDCC
:1022100043757272656E74204D61676E6974756482
:10222000653A2025640D0A0043616E2774206465B9
:1022300074656374206D61676E65740D0A0000003B
:1022400000002041002003E00021034A1154401CFB
:102250000828F9DB704700005000002000200649E4
:102260000860064908600649086006490860064992
:10227000086006490860704714000020180000201C
:102280001C00002020000020240000202800002046
:1022900010B56FF00400FFF7C3F90A4800680A4957
:1022A000B0FBF1F0094908700846007800EB4001E6
:1022B000C1EBC0104FF6FF7101EAC000044908806D
:1022C00010BD0000B800002000127A005800002065
:1022D0005A0000200146114A12884A434FF0E02379
:1022E0005A6100229A611A46126942F001021A618B
:1022F00000BF4FF0E022106900F001021AB100F4B3
:102300008032002AF5D04FF0E022126922F001025B
:102310004FF0E0231A6100229A6170475A000020B2
:1023200070B500250B2000F045F9044604F02000AC
:1023300000B10125284670BD00BF054A128802F091
:102340004002002AF9D0C2B2014B1B1D1A8070470F
:102350000044004010B51C211B2000F047F9C0B21A
:1023600010BD10B50D210C2000F040F910BD00008B
:1023700008B5FFF78DFF4FF4A060FEF7F3FFFEF7FF
:1023800099FF4FF47A3000F0F7F900F079F8002067
:102390000423082207210090FEF7FEFA01200B49D2
:1023A00008604FF07E5000F0B7F80DE04FF47A70FF
:1023B000FFF790FF06A0FFF731FE0748FEF7D4FCB9
:1023C00010B1054800F00AF8F0E70000BC81214296
:1023D0006D61696E0D0A00005000002010B50446C2
:1023E0002079462824D004DC412807D0432824D172
:1023F00014E0532807D054281FD113E01048006878
:10240000104908601AE0002020710D49206808601A
:10241000FFF718FF0CA0FEF785FC0FE00BA0FEF7FE
:1024200081FC0BE000F018F809A0FEF77BFC05E04A
:1024300008480068FEF782FC00E000BF00BF10BD46
:1024400044000020040000205230000052430000ED
:10245000533000007400002010B5074A118910683D
:10246000FEF780FD044A91895068FEF77BFD00204D
:102470000249086010BD000000010020000000209B
:1024800010B540F2CF2140F2E730FFF7EBFAFFF74B
:102490008FFE034B034A04490448FEF76DFF10BD4D
:1024A0000000484217B7D138ACC5273717B75139A4
:1024B00010B501210820FEF7C3FF40201449088110
:1024C000802113488181002010E01249104A42F80F
:1024D000201018220E49083101EB8001CA70032236
:1024E0000B49083101EB80018A70401C0228ECDBAB
:1024F000002409E0064A083202EB8401083A52F847
:102500002400FEF7A2FC641C022CF3DB10BD0000CB
:1025100000010020000C01402DE9F0470446002195
:102520002046FEF711F818D22046FDF7A4FF074613
:1025300000221C4BFDF780FE0546FDF783FF1FFAC6
:1025400080F949461848FFF7A6FB00211648FFF717
:10255000A4FB01201549086021E000212046FDF779
:10256000E9FF1CD200211048FFF795FB10492046D7
:10257000FDF730FE8246FDF77EFF07460022094B3D
:10258000FDF75AFE0546FDF75DFF1FFA80F9494643
:102590000548FFF782FB4FF0FF3004490860BDE8B3
:1025A000F087000000388F40000800400000002045
:1025B000000080BF70B504460025FEF7AFFD6C201B
:1025C000FEF772FDFEF7F4FD2046FEF76DFDFEF707
:1025D000EFFDFEF7A3FD6D20FEF766FDFEF7E8FDBB
:1025E0000120FEF729FD0546284670BD2DE9FC4176
:1025F00007460D460026002007E000211C4A116016
:1026000001211C4AC2F8A011401C0828F5DBFEF786
:1026100085FD6C20FEF748FDFEF7CAFD2846FEF753
:1026200043FDFEF7C5FDFEF779FD6D20FEF73CFD8D
:10263000FEF7BEFD002405E00120FEF7FDFC2DF8AD
:102640001400641C022CF7DBFEF78EFDBDF80200BF
:102650004FF6FF7101EA0020ADF80200BDF802005C
:10266000BDF8001040EA01063046BDE8FC810000DC
:10267000A08121420080214210B504460E4804800A
:102680000088010A032000F02FF90220FEF7C2FDA6
:10269000094800780002C1B2042000F025F90220A8
:1026A000FEF7B8FD04210320FFF7A0FF03490880CF
:1026B0000846008810BD00003C0000203E000020BD
:1026C0002DE9F14F0C480068FDF797FE04460D46D2
:1026D0000098FDF7D0FE8046084A094BFDF7ACFD97
:1026E000064622462B46FDF719FE8246FDF706FFF9
:1026F00004490860BDE8F88F84000020E17A14AE38
:102700004711514014000020034B1860034B19601F
:10271000034B1A6070470000080000200C000020E6
:1027200010000020014908607047000030000020C0
:1027300010B504460E4804800088010A012000F00C
:10274000D3F80220FEF766FD094800780002C1B206
:10275000022000F0C9F80220FEF75CFD02210120F2
:10276000FFF744FF034908800846008810BD0000B9
:10277000380000203A00002010B586B00446012140
:102780000420FEF75DFE01214804FEF749FE042007
:10279000ADF8140003208DF8160018208DF81700EE
:1027A00005A91C48FEF751FB0820ADF814000420D1
:1027B0008DF8170005A91748FEF747FB26208DF86E
:1027C000000003208DF801008DF8020001208DF833
:1027D00003006846FEF78EFD01940020ADF8080066
:1027E000ADF80A00ADF80C00ADF810000C20ADF803
:1027F0000E0001A90848FFF79DFB012240F2255178
:102800000548FFF771FB01210348FFF737FB06B0CE
:1028100010BD000000080140004400402DE9F047D1
:102820000546274801682846FDF7D1FC044625489F
:1028300001682046FDF7C8FC074639462248006873
:10284000FDF7C8FC21490860214621480068FDF7D2
:1028500069FC1F4908601B4801684FF08040FDF784
:10286000B9FC80462146FDF7B2FC064619480168CE
:102870003046FDF757FC18490860124800681549B2
:102880000860104804601448016814480068FDF7A7
:10289000A1FC80460E48016811480068FDF79AFCCB
:1028A00081460A4801684846FDF73CFC0646414619
:1028B000FDF738FC0B49086008460068BDE8F08762
:1028C0001400002028000020080000201C00002028
:1028D000200000202C0000202400002010000020F8
:1028E0000C0000201800002070B505460C46FEF7CD
:1028F00015FC6C20FEF7D8FBFEF75AFC2846FEF7C5
:10290000D3FBFEF755FC2046FEF7CEFBFEF750FC4E
:10291000FEF72AFC70BD00003829000800000020E6
:10292000CC0000003C200008042A0008CC00002055
:10293000440400004C2000080000000000000000DB
:102940000000000000000000000000000000000087
:102950000000000000000000000000000000000077
:102960000000000000000000000000000000000067
:102970000000000000000000000000000000000057
:102980000000000000000000000000000000000047
:102990000000000000000000000000000000000037
:1029A000000000000000000000000000000080BFE8
:1029B0000000000000000000000000000000000017
:1029C00000000000FFFFFFFF00000000000000000B
:1029D00000000000000000000000000000000000F7
:1029E00001020304010203040607080902040608A1
:1029F00000A24A04000000000000000001020304DD
:042A000006070809B4
:04000005080000ED02
:00000001FF
