:020000040800F2
:10000000C004002001010008590E00080B0100087F
:10001000550E00085D070008CB1A0008000000001C
:100020000000000000000000000000009D1000081B
:10003000510A00080000000017010008190100081B
:100040001B0100081B0100081B0100081B01000820
:100050001B0100081B0100081B0100081B01000810
:100060001B0100081B0100081B0100081B01000800
:100070001B0100081B0100081B0100081B010008F0
:100080001B0100081B0100081B0100081B010008E0
:100090001B0100081B0100081B0100081B010008D0
:1000A0001B010008991200081B0100081B01000831
:1000B000B51200088D1400081B0100081B01000880
:1000C0001B0100081B0100081B0100081B010008A0
:1000D0001B010008F9170008951800081B0100080B
:1000E0001B0100081B0100081B010008DFF80CD0F1
:1000F00000F012FB004800478D1E0008C0040020DD
:100100000648804706480047FEE7FEE7FEE7FEE7B1
:10011000FEE7FEE7FEE7FEE7FEE7FEE7B1110008B7
:10012000ED000008F0B480EA0102D40F4200B2EB07
:10013000410F02D20246084611464A0042D0C30D82
:10014000DDB2C1F3C752AD1A202D35DAC1F3160165
:1001500041F4000204B15242C5F1200602FA06F150
:100160002A411044B3EBD05F23D0C4B1012DA0EBE2
:10017000C35009DCF0BC4FF0004202EAC352DBB2CC
:1001800000F5000000F03CBA400000F1807000EB88
:10019000C350A0F1807040EAD170490009E04908DD
:1001A00041EAC071A0EBC35000F50000400800EB2D
:1001B000C350F0BC00F01BBA6142012202EB4101C6
:1001C000001BF6E7F0BC704781F00041AAE780F021
:1001D0000040A7E780EA010210B502F000434000AA
:1001E00022D04A001FD0010E01EB1261C0F356006D
:1001F000C2F3560240F4000042F40002A0FB0220C9
:1002000000047F39140400D0401C50EA124001D48D
:100210004000491EC2B20C0604EBD010401C40083E
:10022000802A02D003E0002010BD20F00100002948
:1002300000DA0020184310BD30B480EA010202F059
:10024000004530F0004221F0004013D090B1C30DC2
:10025000D40DC2F31601C0F31600E41A41F40001F4
:1002600040F400027D34914201D3641C00E0490057
:10027000002C02DA30BC002070474FF4000000234D
:10028000914201D3891A034340084FEA4101F7D153
:1002900051B1914202D14FF0004105E002D24FF03E
:1002A000010101E06FF0010103EBC450284430BCB0
:1002B00000F09DB92DE9FE4F81EA030404F00044EB
:1002C00021F0004100944FF0000B23F0004350EA6E
:1002D00001045ED052EA03045BD0C3F30A54C1F3B5
:1002E0000A552C44A4F2F3340194A0FB0254C1F348
:1002F000130141F48011C3F3130343F4801301FB92
:10030000024400FB034E840A970A44EA815447EAF8
:100310008357A4FB076802958D0A05FB07854FEA02
:10032000932C04FB0C542705029D4FEA065847EA1C
:100330001637B5EB08056EEB070C870E920E47EAF1
:10034000811742EA8312A7FB0201B6EB0B0164EBB3
:1003500000042B0D43EA0C335E1844EB1C50DA46C4
:100360005146E7FB0201C5F313044FEA0B3343EA9E
:1003700014534FEA0432019C43EA0603A4F10C042F
:100380000294009CCDE900B400F077F903B0BDE819
:10039000F08F00200146F9E72DE9F04D81EA0304D2
:1003A00004F0004B21F0004514464FF0000A23F002
:1003B000004150EA050220D054EA01021DD0C5F3E5
:1003C0000A570246C5F31303C1F31300C1F30A56DB
:1003D00040F4801543F48013A7EB0608101BD646A3
:1003E00008F2FD3873EB050002D308F1010801E0C3
:1003F00092185B41B8F1000F03DA00200146BDE816
:10040000F08D00204FF48011064684460EE0171B45
:1004100073EB050705D3121B63EB050306434CEA98
:10042000010C49084FEA300092185B4150EA01077D
:10043000EDD152EA030012D082EA040083EA0501FA
:10044000084305D0101BAB4106D20122002306E071
:1004500000224FF0004302E06FF0010253101AEB4C
:1004600006004CEB085110EB0A0041EB0B01BDE814
:10047000F04D00F0F3B8C10F80EAE0700844CA07FD
:100480009623002100F0BCB80EB5C10F80EAE070E1
:100490000844CA07002140F233438DE80E000A46A3
:1004A0000B4600F0EAF803B000BD0EB540F2334150
:1004B00002910021CDE900110A460B4600F0DDF85B
:1004C00003B000BD00F0004220F00040C10DC0F3B9
:1004D000160040F400007F2901DA002070479629B9
:1004E00003DCC1F19601C84001E096398840002A3A
:1004F000F4D04042704720F00040C10DC0F3160018
:1005000040F400007F2901DA00207047962903DCBF
:10051000C1F19601C840704796398840704700F095
:10052000004230F000400AD0C10D01F56071C0F307
:10053000160042EA0151C2084007114370470020EB
:100540000146704701F0004330B421F0004150EA09
:10055000010206D00A0DA2F56072C1F31301002A50
:1005600002DC30BC00207047440F44EAC104C100E3
:10057000E01830BC00EBC25000F039B8002801DBB5
:10058000C0F10040002901DBC1F100418142704708
:10059000002801DBC0F10040002901DBC1F100416E
:1005A0008842704730B50B460146002020220124C6
:1005B00009E021FA02F59D4205D303FA02F5491B31
:1005C00004FA02F52844151EA2F10102F1DC30BD47
:1005D000202A04DB203A00FA02F100207047914003
:1005E000C2F1200320FA03F3194390407047002919
:1005F000A8BF7047401C490008BF20F001007047A9
:1006000010B4B0FA80FC00FA0CF050EA010404BF08
:1006100010BC704749B1CCF1200421FA04F411FA5E
:100620000CF118BF012121430843A3EB0C01CB1DA2
:100630004FEA00614FEA102042BF002010BC704713
:1006400000EBC35010440029A4BF10BC7047401CED
:10065000490008BF20F0010010BC704710B5141EFF
:1006600073F1000408DA401C41F1000192185B416B
:100670001A4301D120F0010010BD2DE9F04D924642
:100680009B4611B1B1FA81F202E0B0FA80F2203259
:100690009046FFF79DFF04460F4640EA0A0041EAF4
:1006A0000B0153465A46084313D0114653EA010042
:1006B00019D0C8F14002504600F040F805460E46F9
:1006C000504659464246FFF783FF084305D00120B4
:1006D00004E020463946BDE8F08D0020054346EA97
:1006E000E0762C4337430A986305E40AA0EB080040
:1006F0000022FD0A44EA47540A3002D50020014690
:10070000E9E7010510196941DDE90845001969416A
:10071000BDE8F04DA2E70000064C074D06E0E0689A
:1007200040F0010394E8070098471034AC42F6D338
:10073000FFF7E0FCCC220008EC220008202A04DBB2
:10074000203A21FA02F00021704721FA02F3D0404A
:10075000C2F12002914008431946704700BFFEE7EE
:1007600010B50021837A012202FA03F13D4A126892
:1007700042F001023B4B1A603A4A1C3212688A432B
:10078000384B1C331A60027BCAB9364A0C321268E5
:100790008A43344B0C331A604288C38842EA0343CD
:1007A000304A4032847A42F834300288838842EA00
:1007B00003432C4A4032847A02EBC4025360027B2A
:1007C000012A19D1274A0C3212680A43254B0C33EF
:1007D0001A604288038842EA0343224A4032847AFC
:1007E00042F83430C288838842EA03431D4A4032CB
:1007F000847A02EBC4025360C27A3AB9194A121DD4
:1008000012688A43174B1B1D1A6006E0154A121D19
:1008100012680A43134B1B1D1A60028932B9114A30
:10082000143212688A430F4B14331A600289012A6A
:1008300006D10C4A143212680A430A4B14331A6068
:10084000427B012A06D1074A1C3212680A43054B33
:100850001C331A60034A126822F00102014B1A602D
:1008600010BD00000066004030B5024600200023A5
:10087000146824F002041460146844F00104146045
:1008800000E05B1C546804F001041CB94FF6FF74CF
:10089000A342F6D1546804F001040CB900206CE0C6
:1008A0008C79012C04D1146844F08004146003E0B6
:1008B000146824F080041460CC79012C04D11468ED
:1008C00044F04004146003E0146824F04004146011
:1008D0000C7A012C04D1146844F02004146003E065
:1008E000146824F0200414604C7A012C04D114689C
:1008F00044F01004146003E0146824F01004146041
:100900008C7A012C04D1146844F00804146003E0CC
:10091000146824F008041460CC7A012C04D1146803
:1009200044F00404146003E0146824F00404146028
:100930008C78A407CD7844EA05640D7944EA05442F
:100940004D7944EA05540D886D1E2C43D46114681A
:1009500024F001041460002300E05B1C546804F0E0
:1009600001041CB14FF6FF74A342F6D1546804F0A1
:1009700001040CB1002000E0012030BD2DE9F04160
:1009800088B004460D4616461F46DDF83880012122
:10099000042000F009FB0121480600F0F5FA4FF4AD
:1009A0008050ADF81C0003208DF81E0018208DF833
:1009B0001F0007A9244800F04CF84FF40060ADF880
:1009C0001C0048208DF81F0007A91F4800F041F8BF
:1009D00000208DF816008DF817008DF818008DF89E
:1009E00019008DF81A0001208DF81B008DF8128077
:1009F0008DF813408DF814608DF81550ADF8107017
:100A000004A91248FFF730FF00208DF80A008DF886
:100A10000B0001208DF80C002020ADF80000002014
:100A2000ADF802002020ADF804000020ADF806006B
:100A3000ADF8080001208DF80D006846FFF790FE24
:100A4000002008B0BDE8F0810008014000640040CB
:100A500070472DE9F04102460025002600200023C2
:100A60000024002791F803C00CF00F0591F803C093
:100A70000CF0100CBCF1000F03D091F802C04CEA4E
:100A8000050591F800C0BCF1000F31D014680020BA
:100A90002BE04FF0010C0CFA00F3B1F800C00CEAA7
:100AA00003069E4220D183004FF00F0C0CFA03F78F
:100AB000BC4305FA03FC4CEA040491F803C0BCF102
:100AC000280F06D14FF0010C0CFA00FCC2F814C03C
:100AD0000AE091F803C0BCF1480F05D14FF0010CBA
:100AE0000CFA00FCC2F810C0401C0828D1D31460D6
:100AF000B1F800C0BCF1FF0F34DD546800202EE0D7
:100B000000F1080C4FF0010808FA0CF3B1F800C02E
:100B10000CEA03069E4221D183004FF00F0C0CFA21
:100B200003F7BC4305FA03FC4CEA040491F803C044
:100B3000BCF1280F05D100F1080C08FA0CF8C2F836
:100B4000148091F803C0BCF1480F07D100F1080CE4
:100B50004FF0010808FA0CF8C2F81080401C082871
:100B6000CED35460BDE8F0814161704701617047A8
:100B700010B500200E4908600E48006820F0F00013
:100B80000C4908600846006840F03000086000200A
:100B90000949C1F8A401012001F024F90120044908
:100BA000086001F01FF900200349C1F8A00110BD41
:100BB000A0812142040C01400080214208B501219E
:100BC000082000F0F1F94FF44070ADF8000010205B
:100BD0008DF8030003208DF8020069460448FFF7F2
:100BE00038FF4FF440710248FFF7C0FF08BD000016
:100BF000000C014010B500200E4908600E48006846
:100C000020F0F0000C4908600846006840F0300011
:100C1000086001200949C1F8A40101F0E3F80120AE
:100C20000449086001F0DEF800200449C1F8A00181
:100C300010BD0000A0812142040C0140008021422F
:100C400070B5054600241748006820F0F0001549EB
:100C500008600846006840F080000860002616E042
:100C6000002011490860012001F0BCF801200F4963
:100C7000C1F8A0016006040E0B487C38006808B17A
:100C8000601CC4B2012001F0ADF8701CC6B2082E81
:100C9000E6DB15B9FFF7AEFF01E0FFF769FF20467D
:100CA00070BD0000040C0140A0812142008021425F
:100CB00070B504461848006820F0F0001649086036
:100CC0000846006840F030000860002013490860C2
:100CD00000251DE0E00920B101201049091D086030
:100CE00003E000200D49091D08606006040E012084
:100CF00001F078F801200949086001F073F800203C
:100D00000749C1F8A001012001F06CF8681CC5B2C8
:100D1000082DDFDB70BD0000040C0140A0812142E2
:100D20000080214210B50F48006820F0F0000D4906
:100D300008600846006840F03000086001200A4959
:100D400008600A49C1F8A00101F04CF800200649EA
:100D50000860012001F046F800200449C1F8A00114
:100D600010BD0000040C0140A481214200802142FA
:100D700010B50E48006820F0F0000C4908600846E5
:100D8000006840F030000860012009490860002038
:100D90000849C1F8A401012001F024F80120044908
:100DA000091D086001F01EF810BD0000040C014090
:100DB000A08121420080214210B50024144800681F
:100DC00020F0F000124908600846006840F08000FA
:100DD000086001200F49086001F004F801200E4965
:100DE000C1F8A00100F0FEFF07E0601CC4B2FA2CBD
:100DF00003DDFFF7BDFF012010BD06488038006805
:100E00000028F2D10349091F086000BFF4E7000081
:100E1000040C0140A48121420080214208B5012137
:100E2000082000F0C1F84FF40040ADF80000102099
:100E30008DF8030003208DF8020069460448FFF78F
:100E400008FE4FF400410248FFF78EFE08BD000087
:100E5000000C014000BFFEE77047000070B50021A4
:100E600000230F22C47804B3154C246804F4E06412
:100E7000C4F5E064210AC1F10403CA40447804FACD
:100E800003F184781440214309010E4C0678A155E2
:100E9000047804F01F050124AC4005786D11AD0005
:100EA00005F1E025C5F8004109E0047804F01F05CC
:100EB0000124AC40044D0678761145F8264070BDFB
:100EC0000CED00E000E400E080E100E002490143B5
:100ED000024A1160704700000000FA050CED00E0C6
:100EE0002DE9F04105460E4617461C463A46314666
:100EF000284601F0E3F8204601F0EEF800F0FCFE91
:100F0000204600F003F8BDE8F08100007FB50446FC
:100F10000121022000F038F819492046FFF75AF95C
:100F200006464FF07E51FFF74FF90546FFF7E3FA0B
:100F300080B2ADF808004720ADF804000020ADF8FD
:100F40000A00ADF8060001A90E4800F003FC0122DA
:100F500011460C4800F03BFB1D208DF800000420DA
:100F60008DF8010001208DF802008DF8030068461D
:100F7000FFF774FF0121034800F00CFB7FBD000068
:100F800000007A440004004029B1064AD2690243B5
:100F9000044BDA6104E0034AD2698243014BDA610F
:100FA000704700000010024029B1064A92690243CE
:100FB000044B9A6104E0034A92698243014B9A61AF
:100FC000704700000010024030B5002100220024CC
:100FD00000232D4D6D6805F00C0121B1042905D0C9
:100FE000082923D105E0294D056022E0274D056041
:100FF0001FE0254D6D6805F47012234D6D6805F4F2
:101000008034022505EB92421CB9214D5543056001
:101010000BE01D4D6D6805F400351DB11C4D5543A9
:10102000056002E0194D5543056002E0174D05606B
:1010300000BF00BF144D6D6805F0F0010909154DA2
:101040006B5C0568DD4045600F4D6D6805F4E0613F
:10105000090A104D6B5C4568DD4085600A4D6D687E
:1010600005F46051C90A0B4D6B5C4568DD40C560F5
:10107000054D6D6805F44041890B074D6B5CC568F3
:10108000B5FBF3F5056130BD0010024000127A0097
:1010900000093D008800002098000020704710B52E
:1010A00000F002F810BD00000CB500200190009087
:1010B0003348006840F480303149086000BF304850
:1010C000006800F4003000900198401C01900098E6
:1010D00018B90198B0F5A06FF1D12948006800F463
:1010E000003010B10120009001E000200090009835
:1010F000012843D12348006840F0100021490860CE
:101100000846006820F0030008600846006840F0C8
:10111000020008601A48406819494860084640685B
:1011200048600846406840F480604860084640686F
:1011300020F47C1048600846406840F4E81048609D
:101140000846006840F08070086000BF0C480068E6
:1011500000F000700028F9D00948406820F0030032
:10116000074948600846406840F00200486000BFF8
:101170000348406800F00C000828F9D10CBD0000BD
:101180000010024000200240042808D14FF0E02166
:10119000096941F004014FF0E022116107E04FF0CE
:1011A000E021096921F004014FF0E022116170474C
:1011B00010B51348006840F0010011490860084666
:1011C0004068104908400E494860084600680E49CA
:1011D00008400B4908600846006820F48020086039
:1011E0000846406820F4FE0048604FF41F00886005
:1011F000FFF755FF4FF000600449086010BD000084
:10120000001002400000FFF8FFFFF6FE08ED00E0CE
:101210007FB504460121C802FFF7C6FE1C492046DF
:10122000FEF7D8FF06464FF07E51FEF7CDFF05468C
:10123000FFF761F980B2ADF808004720ADF804006F
:101240000020ADF80600ADF80A008DF80C0001A9E9
:10125000104800F07FFA01210E4800F095F90122B4
:1012600011460C4800F0B3F919208DF80000002059
:101270008DF801008DF8020001208DF8030068460A
:10128000FFF7ECFD0121034800F084F97FBD000069
:1012900000007A44002C014010B50121044800F000
:1012A00085F918B10121024800F071F910BD000064
:1012B000002C01402DE9F0410121880700F076F96A
:1012C00000287BD00121880700F061F93C493D48A6
:1012D0000068FFF753F90BD100F0D1FD3A490860DF
:1012E000084600683749086000203849088065E0F2
:1012F00000F0C5FD3449086034480088344908606E
:1013000000203249088032480068FFF7BDF80646E1
:101310000022304BFFF740F80446FFF713F92E493F
:1013200008602848016828480068FEF74DFF2B49EF
:101330000860002129480068FFF72AF915D82849D4
:1013400026480068FFF71AF903D8012025490860EC
:101350001DE04FF0FF302349086023491F48006813
:10136000FEF732FF1D49086011E020491B48006864
:10137000FFF70EF904D84FF0FF301A49086006E075
:10138000194916480068FEF7CDFE14490860124856
:10139000016812480068FEF74FFF8046FFF7BFF86C
:1013A0000646134A134BFEF785FF0446FFF7CAF8BB
:1013B000114908600448006802490860BDE8F081EE
:1013C000000080BF6400002060000020242C014049
:1013D0008400002000408F40800000207800002022
:1013E0000000B442000000200000B4430000B4C27A
:1013F000514A085655D56440680000207FB5044620
:1014000001210846FFF7C0FD1E492046FEF7E2FE17
:1014100006464FF07E51FEF7D7FE0546FFF76BF804
:1014200080B2ADF808004720ADF804001549204609
:10143000FEF702FF0546FFF772F8134A03C20020C9
:10144000ADF80A00ADF8060001A94FF0804000F0A9
:1014500081F901221146900700F0B9F81C208DF89F
:10146000000000208DF801008DF8020001208DF8A9
:1014700003006846FFF7F2FC0121880700F08AF8B4
:101480007FBD000000007A447000002070B501218B
:101490001C4800F08BF8A0B301211A4800F077F83F
:1014A0001948006800F004FE184919480068FFF761
:1014B00065F811D01648006800F08AFE0546154808
:1014C0000068FEF7D8FF06462946FEF72BFE0446C5
:1014D000FEF7F8FF0F4908600E480068FF2803DD9B
:1014E000FF200C49086008E00A48006810F1FF0F6F
:1014F00003DA6FF0FE00074908600648006800F054
:1015000029FD70BD0004004004000020000080BFE1
:10151000680000207C00002030B587B005460C46EE
:1015200001210420FFF730FD00F0E0FCADF814507D
:10153000ADF810400020ADF81600ADF8120004A977
:10154000104800F007F96020ADF800000120ADF868
:1015500002000020ADF8080069460A4800F040F893
:101560006946084800F092F80821064800F084F81F
:101570000821044800F0DCF80121024800F00AF8D4
:1015800007B030BD00080040CA4302827047CA431A
:101590000282704721B1028842F00102028004E019
:1015A00002884FF6FE731A400280704730B502463B
:1015B000002000230024158A05EA0103958905EA25
:1015C000010413B10CB1012000E0002030BD1AB1BC
:1015D00083890B43838102E083898B438381704736
:1015E00070B5002400220023058C4FF6FE763540AE
:1015F0000584028C8388048B4FF68F752C40B51EB2
:101600002C400D882C43751E2A400D892A434D8895
:101610002A43144DA8420BD0134DA84208D0134DB5
:10162000A84205D0124DA84202D0124DA84213D1B3
:101630004FF6F7752A404D892A434FF6FB752A402D
:101640008D882A434FF6FF652B404FF6FF552B4000
:101650008D892B43CD892B4383800483CD88858658
:10166000028470BD002C0140003401400040014064
:1016700000440140004801400A460021018B4FF61A
:10168000F7731940114301837047000070B50024BF
:1016900000220023058C4FF6EF7635400584028C3E
:1016A0008388048B48F6FF752C404FF6FF452C408D
:1016B0000D884FF6FF7606EA05252C434FF6DF75B9
:1016C0002A400D8906EA05152A434D8806EA0515C4
:1016D0002A43154DA84202D0144DA8421DD14FF601
:1016E0007F752A404D894FF6FF7606EA05152A4395
:1016F0004FF6BF752A408D8806EA05152A434FF636
:10170000FF352B404FF2FF752B408D8906EA85058A
:101710002B43CD8906EA85052B4383800483CD883E
:101720000587028470BD0000002C01400034014098
:101730000A460021018B4FF2FF7319404FF6FF73E9
:1017400003EA0223194301837047818670470187AA
:1017500070470000002202881D4B98420ED01D4B9E
:1017600098420BD0B0F1804F08D01B4B984205D067
:101770001A4B984202D01A4B984204D14FF68F73FD
:101780001A404B881A43174B984207D0164B984281
:1017900004D04FF6FF431A40CB881A4302808B884F
:1017A00083850B8803850A4B98420BD0094B9842DE
:1017B00008D00E4B984205D00D4B984202D00D4BED
:1017C000984201D10B7A038601238382704700007F
:1017D000002C01400034014000040040000800409B
:1017E000000C004000100040001400400040014088
:1017F000004401400048014010B540F22551224804
:1018000000F0A2F800283ED01F4800F059F9C4B2F9
:101810001E48008800F4004018BB1C48008800F4F3
:101820008040B0B1442C03D00020184908802AE041
:1018300016480088C0F30D00082803D00020134983
:10184000088020E01148008840F400400F490880DB
:1018500019E0452C06D10D48008840F480400B4922
:10186000088010E009480088C0F30D0008490C54B6
:1018700006480088401C054908800846008808285A
:1018800001DD0020088010BD003801405C00002010
:101890004C00002010B540F22551224800F054F8C9
:1018A00000283ED01F4800F00BF9C4B21E48008843
:1018B00000F4004018BB1C48008800F48040B0B120
:1018C0000A2C03D00020184908802AE01648008816
:1018D000C0F30D00072803D000201349088020E042
:1018E0001148008840F400400F49088019E00D2C91
:1018F00006D10D48008840F480400B49088010E074
:1019000009480088C0F30D0008490C5406480088B7
:10191000401C0549088008460088072801DD002092
:10192000088010BD004400405E00002054000020EC
:1019300021B1828942F40052828104E082894DF60D
:10194000FF731A408281704770B50246002400235D
:101950000025002040F66A16B14200D100BFC1F355
:10196000421501F01F03012606FA03F3012D02D1EF
:101970009689334006E0022D02D1168A334001E0F9
:10198000968A33400C12012606FA04F41688344075
:1019900013B10CB1012000E0002070BDF0B503468A
:1019A000002400260025002040F66A17B94200D125
:1019B00000BF1846C1F3421401F01F06012707FAC1
:1019C00006F5012C01D10C3004E0022C01D11030BD
:1019D00000E014301AB107682F43076002E007687F
:1019E000AF430760F0BD00002DE9F04786B0054623
:1019F0000E460024A24600BFA1460027B08900B1D0
:101A000000BF2F462C8A4CF6FF700440F088044338
:101A10002C82AC894EF6F3100440B088318908431B
:101A2000718908430443AC81AC8A4FF6FF400440FF
:101A3000B0890443AC8201A8FFF7C6FA1F48874269
:101A400002D1DDF810A001E0DDF80CA0A88900F4B7
:101A5000004040B10AEBCA0000EB0A1031684900AF
:101A6000B0FBF1F807E00AEBCA0000EB0A1031689E
:101A70008900B0FBF1F86420B8FBF0F00401200904
:101A8000642101FB1089A88900F4004040B1322094
:101A900000EBC900B0FBF1F000F00700044308E0E0
:101AA000322000EB09106421B0FBF1F000F00F00D0
:101AB00004432C8106B0BDE8F087000000380140E7
:101AC00001468888C0F30800704700BFFEE70000A9
:101AD0000FB4054B10B503A9044A029800F018F89A
:101AE00010BC5DF814FB0000491E000848000020EF
:101AF00002E008C8121F08C1002AFAD170477047D7
:101B0000002001E001C1121F002AFBD17047000034
:101B10002DE9FF4F89B09B460446002506E02528A5
:101B20000BD05A460B999047641C6D1C20780028F6
:101B3000F5D10DB02846BDE8F08F0027B846012248
:101B4000474900E0074314F8013F203B02FA03F045
:101B50000842F7D120782E2819D114F8010F47F048
:101B600004072A280ED06FF02F022078A0F1300150
:101B700009290CD808EB880102EB410100EB0108B0
:101B8000641CF2E70A98641C50F8048B0A902078D1
:101B90000028CED0642808D0692806D075281ED029
:101BA0005A460B9990476D1C58E00A994FF00A0964
:101BB00001C90A91002802DA40422D2102E03905CC
:101BC00004D52B218DF82010012103E0F90704D062
:101BD0002021F7E78A4608AE0DE00021FAE70A99CE
:101BE0004FF00A0901C90A91F7E74946FEF7DAFC06
:101BF000303106F8011D0028F7D1ADEB060000F1E9
:101C00002009780701D44FF00108C84502DDA8EB90
:101C1000090000E000208046002706E008A85A4698
:101C2000C05D0B9990476D1C7F1C5745F6DB04E0A7
:101C300030205A460B9990476D1CB8F10001A8F16D
:101C40000108F5DC05E016F8010B5A460B999047A0
:101C50006D1CB9F10001A9F10109F4DC641C65E710
:101C60000928010010B5FEF7A9FF00F0E1F80028EF
:101C700020D11DE000F0DCF8012812D100F0F2F8CC
:101C8000044621460FA0FFF723FF002000F02AFAA8
:101C90004FF4B47000F0E8F94FF4FA7000F07CF8FB
:101CA00007E00EA0FFF714FF4FF47A7000F074F80D
:101CB000E0E700BF0F48FFF7ABFA4FF07E50FFF7A9
:101CC0009DFB10BD43757272656E74204D61676E29
:101CD00069747564653A2025640D0A0043616E27B6
:101CE0007420646574656374206D61676E65740D3E
:101CF0000A00000000002041002006490860064953
:101D000008600649086006490860064908600649F7
:101D10000860704714000020180000201C000020FC
:101D20002000002024000020280000202DE9F0479A
:101D300004462046FEF7B9FB07460022044BFEF797
:101D4000B9FA0546FEF7FEFB81464846BDE8F08736
:101D50000080B63F10B56FF00400FFF715FA0A488F
:101D600000680A49B0FBF1F009490870084600789C
:101D700000EB4001C1EBC0104FF6FF7101EAC0005B
:101D80000449088010BD00009C00002000127A0069
:101D900042000020440000200146114A12884A43B4
:101DA0004FF0E0235A6100229A611A46126942F00C
:101DB00001021A6100BF4FF0E022106900F0010239
:101DC0001AB100F48032002AF5D04FF0E0221269F7
:101DD00022F001024FF0E0231A6100229A6170475D
:101DE000440000200146114A12784A434FF0E02394
:101DF0005A6100229A611A46126942F001021A6180
:101E000000BF4FF0E022106900F001021AB100F4A7
:101E10008032002AF5D04FF0E022126922F0010250
:101E20004FF0E0231A6100229A61704742000020BF
:101E300070B500250B2000F0B5F8044604F0200032
:101E400000B10125284670BD00BF054A128802F086
:101E50004002002AF9D0C2B2014B1B1D1A80704704
:101E60000044004010B51C211B2000F0B7F8C0B2A0
:101E700010BD10B50D210C2000F0B0F810BD10B54C
:101E8000FFF7F7FF0446FFF751FF10BD08B5FFF756
:101E900061FF4FF4A060FFF719F8FEF7BFFF4FF4A2
:101EA0007A3000F043F900F00FF8002004230822F4
:101EB00007210090FEF762FD01200249086000BF83
:101EC000FEE70000BC81214210B5FFF7CBFE064BB8
:101ED000002211461046FFF703F840F2CF2140F2EE
:101EE000E730FFF719FB10BD0000C84110B5012114
:101EF0000920FFF759F84020144908818021134830
:101F00008181002010E01249104A42F82010182266
:101F10000E49083101EB8001CA7003220B490831D8
:101F200001EB80018A70401C0228ECDB002409E0F0
:101F3000064A083202EB8401083A52F82400FEF700
:101F400088FD641C022CF3DB10BD0000B0000020F3
:101F5000000C014010B50446002C0CDDA1B20E4867
:101F6000FFF7F3FB0D4A91895068FEF7FDFD012054
:101F70000B4908600FE0002C0DDA084A118910683F
:101F8000FEF7F2FD604281B20348FFF7E0FB4FF03D
:101F9000FF300349086010BD00080040B000002079
:101FA0000000002070B504460025FEF7BBFE6C2043
:101FB000FEF77EFEFEF700FF2046FEF779FEFEF7F5
:101FC000FBFEFEF7AFFE6D20FEF772FEFEF7F4FE9D
:101FD0000120FEF735FE0546284670BD2DE9FC417F
:101FE00007460D460026002007E000211C4A11602C
:101FF00001211C4AC2F8A011401C0828F5DBFEF79D
:1020000091FE6C20FEF754FEFEF7D6FE2846FEF742
:102010004FFEFEF7D1FEFEF785FE6D20FEF748FE6F
:10202000FEF7CAFE002405E00120FEF709FE2DF8A8
:102030001400641C022CF7DBFEF79AFEBDF80200C8
:102040004FF6FF7101EA0020ADF80200BDF8020072
:10205000BDF8001040EA01063046BDE8FC810000F2
:10206000A08121420080214210B504460E48048020
:102070000088010A032000F011F90220FFF7B2FEE8
:10208000094800780002C1B2042000F007F90220DC
:10209000FFF7A8FE04210320FFF7A0FF03490880F3
:1020A0000846008810BD00003C0000203E000020D3
:1020B000014908607047000014000020034B1860BD
:1020C000034B1960034B1A607047000008000020A2
:1020D0000C0000201000002001490860704700003B
:1020E0003000002010B504460E4804800088010A24
:1020F000012000F0D3F80220FFF774FE09480078B1
:102100000002C1B2022000F0C9F80220FFF76AFE07
:1021100002210120FFF762FF03490880084600887A
:1021200010BD0000380000203A00002010B586B035
:10213000044601210420FEF737FF01214804FEF781
:1021400023FF0420ADF8140003208DF8160018209A
:102150008DF8170005A91C48FEF77BFC0820ADF898
:10216000140004208DF8170005A91748FEF771FC2C
:1021700026208DF8000003208DF801008DF8020064
:1021800001208DF803006846FEF768FE01940020E8
:10219000ADF80800ADF80A00ADF80C00ADF810007D
:1021A0000C20ADF80E0001A90848FFF71DFC012224
:1021B00040F225510548FFF7F1FB01210348FFF7E5
:1021C000B7FB06B010BD000000080140004400400D
:1021D0002DE9F0470546274801682846FDF7F7FF37
:1021E0000446254801682046FDF7EEFF07463946BC
:1021F00022480068FDF7EEFF21490860214621488A
:102200000068FDF78FFF1F4908601B4801684FF009
:102210008040FDF7DFFF80462146FDF7D8FF0646E8
:10222000194801683046FDF77DFF184908601248DB
:102230000068154908601048046014480168144893
:102240000068FDF7C7FF80460E4801681148006826
:10225000FDF7C0FF81460A4801684846FDF762FF66
:1022600006464146FDF75EFF0B49086008460068D8
:10227000BDE8F0871400002028000020080000209E
:102280001C000020200000202C0000202400002042
:10229000100000200C0000201800002070B505463A
:1022A0000C46FEF73FFD6C20FEF702FDFEF784FDB5
:1022B0002846FEF7FDFCFEF77FFD2046FEF7F8FC02
:1022C000FEF77AFDFEF754FD70BD0000EC22000819
:1022D00000000020B0000000F01A00089C23000855
:1022E000B000002010040000001B000800000000E7
:1022F00000000000000000000000000000000000DE
:1023000000000000000000000000000000000000CD
:1023100000000000000000000000000000000000BD
:1023200000000000000000000000000000000000AD
:10233000000000000000000000000000000000009D
:10234000000000000000000000000000000000008D
:10235000000080BF000080BF0000000000000000FF
:10236000000000000000000000000000000000006D
:102370000000000000000000010203040102030449
:10238000060708090204060800A24A04000000002B
:0C23900000000000010203040607080919
:04000005080000ED02
:00000001FF
