:020000040800F2
:100000001005002001010008B11000080B010008D4
:10001000AD10000815090008CF1D00080000000001
:10002000000000000000000000000000F5120008C1
:10003000090C000800000000170100081901000861
:100040001B0100081B0100081B0100081B01000820
:100050001B0100081B0100081B0100081B01000810
:100060001B0100081B0100081B0100081B01000800
:100070001B0100081B0100081B0100081B010008F0
:100080001B0100081B0100081B0100081B010008E0
:100090001B0100081B0100081B0100081B010008D0
:1000A0001B0100081B0100081B0100081B010008C0
:1000B000E5140008611700081B0100081B01000877
:1000C0001B0100081B0100081B0100081B010008A0
:1000D0001B010008FD1A0008991B00081B010008FD
:1000E0001B0100081B0100081B010008DFF80CD0F1
:1000F00000F040FB0048004799210008100500204F
:100100000648804706480047FEE7FEE7FEE7FEE7B1
:10011000FEE7FEE7FEE7FEE7FEE7FEE7091400085C
:10012000ED000008F0B480EA0102D40F4200B2EB07
:10013000410F02D20246084611464A0042D0C30D82
:10014000DDB2C1F3C752AD1A202D35DAC1F3160165
:1001500041F4000204B15242C5F1200602FA06F150
:100160002A411044B3EBD05F23D0C4B1012DA0EBE2
:10017000C35009DCF0BC4FF0004202EAC352DBB2CC
:1001800000F5000000F06ABA400000F1807000EB5A
:10019000C350A0F1807040EAD170490009E04908DD
:1001A00041EAC071A0EBC35000F50000400800EB2D
:1001B000C350F0BC00F049BA6142012202EB410198
:1001C000001BF6E7F0BC704781F00041AAE780F021
:1001D0000040A7E780EA010210B502F000434000AA
:1001E00022D04A001FD0010E01EB1261C0F356006D
:1001F000C2F3560240F4000042F40002A0FB0220C9
:1002000000047F39140400D0401C50EA124001D48D
:100210004000491EC2B20C0604EBD010401C40083E
:10022000802A02D003E0002010BD20F00100002948
:1002300000DA0020184310BD2DE9FE4F804681EA08
:100240000300C00F0C46009021F0004123F0004550
:10025000B8EB0200A94105D24046214690461C4613
:100260000B46024623F00040104347D0270DC7F34A
:100270000A00C3F30A510290401A019040286BDA39
:10028000C3F3130040F4801B0098924620B1002372
:10029000D2EB030A63EB0B0B01985946C0F1400205
:1002A000504600F0A1F906460D4650465946019ABF
:1002B00000F0B9F910EB08006141002487EA1152FF
:1002C00084EAE7731A4340D0009A62B3019A012A84
:1002D0004FEA075215DC001B61EB02014FF00042B0
:1002E00002EA0752CDE90042001C41F58011324676
:1002F0002B4600F0F0F903B0BDE8F08F40462146F0
:10030000F9E7001B61EB0201001C41F580130018A6
:100310005B412018A2F5001747EB030140EAD570B6
:10032000B6196D4111E06D084FEA360645EAC07511
:100330004FEA0752001B61EB0201001C41F58011DE
:1003400049084FEA30000019514132462B4603B0AC
:10035000BDE8F04F00F0B0B9009801224000002342
:10036000D0EB020263EBE073009821464FEAE074A1
:10037000B8EB000061EB0401E9E783F000435BE7C1
:1003800081F0004158E72DE9FE4F81EA030404F0B3
:10039000004421F0004100944FF0000B23F0004393
:1003A00050EA01045ED052EA03045BD0C3F30A545E
:1003B000C1F30A552C44A4F2F3340194A0FB025477
:1003C000C1F3130141F48011C3F3130343F4801309
:1003D00001FB024400FB034E840A970A44EA81545D
:1003E00047EA8357A4FB076802958D0A05FB07853A
:1003F0004FEA932C04FB0C542705029D4FEA065844
:1004000047EA1637B5EB08056EEB070C870E920E20
:1004100047EA811742EA8312A7FB0201B6EB0B0100
:1004200064EB00042B0D43EA0C335E1844EB1C50C4
:10043000DA465146E7FB0201C5F313044FEA0B33DA
:1004400043EA14534FEA0432019C43EA0603A4F141
:100450000C040294009CCDE900B400F03CF903B018
:10046000BDE8F08F00200146F9E7C10F80EAE07097
:100470000844CA079623002100F0F0B80EB5C10F5A
:1004800080EAE0700844CA07002140F233438DE857
:100490000E000A460B4600F01EF903B000BD20F026
:1004A0000040C10DC0F3160040F400007F2901DABE
:1004B00000207047962903DCC1F19601C8407047BF
:1004C00096398840704770B5C1F30A5201F0004573
:1004D0000024C1F3130140F2FF3341F480119A422A
:1004E00001DA002070BD40F233439A42A2F2334257
:1004F00003DC524200F087F800E090402C43F1D03A
:10050000404270BDC1F30A5210B5C1F3130140F26D
:10051000FF3341F480119A4201DA002010BD40F20D
:1005200033439A42A2F2334203DC524200F06BF8AA
:1005300010BD904010BD00F0004230F000400AD0E5
:10054000C10D01F56071C0F3160042EA0151C20805
:1005500040071143704700200146704701F00043F7
:1005600030B421F0004150EA010206D00A0DA2F594
:100570006072C1F31301002A02DC30BC0020704716
:10058000440F44EAC104C100E01830BC00EBC25083
:1005900000F05BB8002801DBC0F10040002901DB5E
:1005A000C1F1004181427047002801DBC0F10040E9
:1005B000002901DBC1F100418842704730B50B468C
:1005C000014600202022012409E021FA02F59D4283
:1005D00005D303FA02F5491B04FA02F52844151E57
:1005E000A2F10102F1DC30BD202A04DB203A00FA3E
:1005F00002F1002070479140C2F1200320FA03F37A
:10060000194390407047202A04DB203A21FA02F077
:100610000021704721FA02F3D040C2F1200291403C
:10062000084319467047202A06DBCB17203A41FAC7
:1006300002F043EAE07306E041FA02F3D040C2F16F
:10064000200291400843194670470029A8BF70470F
:10065000401C490008BF20F00100704710B4B0FAF8
:1006600080FC00FA0CF050EA010404BF10BC704793
:1006700049B1CCF1200421FA04F411FA0CF118BFAD
:10068000012121430843A3EB0C01CB1D4FEA00617C
:100690004FEA102042BF002010BC704700EBC3504F
:1006A00010440029A4BF10BC7047401C490008BF7B
:1006B00020F0010010BC704710B5141E73F1000447
:1006C00008DA401C41F1000192185B411A4301D144
:1006D00020F0010010BD2DE9F04D92469B4611B16E
:1006E000B1FA81F202E0B0FA80F220329046FFF7D0
:1006F0007BFF04460F4640EA0A0041EA0B015346DD
:100700005A46084313D0114653EA010019D0C8F1E4
:1007100040025046FFF777FF05460E4650465946C1
:100720004246FFF761FF084305D0012004E0204660
:100730003946BDE8F08D0020054346EAE0762C43BB
:1007400037430A986305E40AA0EB08000022FD0A7B
:1007500044EA47540A3002D500200146E9E7010582
:1007600010196941DDE9084500196941BDE8F04DFE
:10077000A2E70000064C074D06E0E06840F00103E8
:1007800094E8070098471034AC42F6D3FFF7B2FC68
:10079000D0250008F025000810B50121082000F040
:1007A0002FFD4020174988818021164801820020B2
:1007B00010E01549134A42F82010182211490C3153
:1007C00001EB8001CA7003220E490C3101EB80015C
:1007D0008A70401C0228ECDB002409E0094A0C3234
:1007E00002EB84010C3A52F8240000F00EFA641C6B
:1007F000022CF3DB002240F2CF2140F2E73000F080
:10080000FFFF10BDF4000020000C014010B54FF4B4
:100810007A71064801F01BF94FF47A71034801F030
:1008200018F900200249086010BD000000080040CF
:10083000000000202DE9F047044600212046FFF784
:10084000B3FE18D22046FFF776FE074600221C4B67
:10085000FFF799FD0546FFF755FE1FFA80F9494657
:10086000184801F0F4F80021164801F0F2F80120D0
:100870001549086021E000212046FFF78BFE1CD2BD
:100880000021104801F0E3F810492046FFF7A2FCD0
:100890008246FFF750FE07460022094BFFF773FD23
:1008A0000546FFF72FFE1FFA80F94946054801F07B
:1008B000D0F84FF0FF3004490860BDE8F087000031
:1008C00000408F400008004000000020000080BF72
:1008D00070B50246002319E0002012E052F82040D3
:1008E00002EB80056D68AC420ADA02EB80056C68A9
:1008F00052F8205002EB8006756042F8204000BF9D
:10090000401CCC1A641E8442E8DC5B1C481E9842E2
:10091000E2DC70BD00BFFEE710B50021837A012242
:1009200002FA03F13D4A126842F001023B4B1A60A1
:100930003A4A1C3212688A43384B1C331A60027BD5
:10094000CAB9364A0C3212688A43344B0C331A60E7
:100950004288C38842EA0343304A4032847A42F8EC
:1009600034300288838842EA03432C4A4032847A36
:1009700002EBC4025360027B012A19D1274A0C32D0
:1009800012680A43254B0C331A604288038842EAF6
:100990000343224A4032847A42F83430C288838842
:1009A00042EA03431D4A4032847A02EBC402536098
:1009B000C27A3AB9194A121D12688A43174B1B1D95
:1009C0001A6006E0154A121D12680A43134B1B1DDC
:1009D0001A60028932B9114A143212688A430F4BE5
:1009E00014331A600289012A06D10C4A14321268A3
:1009F0000A430A4B14331A60427B012A06D1074A84
:100A00001C3212680A43054B1C331A60034A1268F1
:100A100022F00102014B1A6010BD00000066004088
:100A200030B5024600200023146824F0020414604C
:100A3000146844F00104146000E05B1C546804F086
:100A400001041CB94FF6FF74A342F6D1546804F0B8
:100A500001040CB900206CE08C79012C04D11468DD
:100A600044F08004146003E0146824F080041460EF
:100A7000CC79012C04D1146844F04004146003E0E4
:100A8000146824F0400414600C7A012C04D114681A
:100A900044F02004146003E0146824F0200414607F
:100AA0004C7A012C04D1146844F01004146003E063
:100AB000146824F0100414608C7A012C04D114689A
:100AC00044F00804146003E0146824F0080414607F
:100AD000CC7A012C04D1146844F00404146003E0BF
:100AE000146824F0040414608C78A407CD7844EAD8
:100AF00005640D7944EA05444D7944EA05540D88AE
:100B00006D1E2C43D461146824F00104146000238A
:100B100000E05B1C546804F001041CB14FF6FF7444
:100B2000A342F6D1546804F001040CB1002000E0A7
:100B3000012030BD2DE9F04188B004460D4616462F
:100B40001F46DDF838800121042000F059FB012107
:100B5000480600F045FB4FF48050ADF81C00032020
:100B60008DF81E0018208DF81F0007A9244800F0FA
:100B70004CF84FF40060ADF81C0048208DF81F00C1
:100B800007A91F4800F041F800208DF816008DF8E5
:100B900017008DF818008DF819008DF81A00012043
:100BA0008DF81B008DF812808DF813408DF81460BD
:100BB0008DF81550ADF8107004A91248FFF730FFFA
:100BC00000208DF80A008DF80B0001208DF80C0034
:100BD0002020ADF800000020ADF802002020ADF884
:100BE00004000020ADF80600ADF8080001208DF8E3
:100BF0000D006846FFF790FE002008B0BDE8F081C8
:100C0000000801400064004070472DE9F0410246B1
:100C100000250026002000230024002791F803C0AF
:100C20000CF00F0591F803C00CF0100CBCF1000F94
:100C300003D091F802C04CEA050591F800C0BCF160
:100C4000000F31D0146800202BE04FF0010C0CFA9B
:100C500000F3B1F800C00CEA03069E4220D18300E5
:100C60004FF00F0C0CFA03F7BC4305FA03FC4CEAF7
:100C7000040491F803C0BCF1280F06D14FF0010C19
:100C80000CFA00FCC2F814C00AE091F803C0BCF1F1
:100C9000480F05D14FF0010C0CFA00FCC2F810C04F
:100CA000401C0828D1D31460B1F800C0BCF1FF0F7C
:100CB00034DD546800202EE000F1080C4FF00108EC
:100CC00008FA0CF3B1F800C00CEA03069E4221D1E9
:100CD00083004FF00F0C0CFA03F7BC4305FA03FC3A
:100CE0004CEA040491F803C0BCF1280F05D100F1CF
:100CF000080C08FA0CF8C2F8148091F803C0BCF193
:100D0000480F07D100F1080C4FF0010808FA0CF861
:100D1000C2F81080401C0828CED35460BDE8F08192
:100D2000416170470161704700B500200E490860BD
:100D30000E48006820F0F0000C4908600846006882
:100D400040F03000086000200949C1F8A4010120EA
:100D500000F040F901200449086000F03BF9002050
:100D60000349C1F8A00100BDA0812142040C01404B
:100D70000080214208B50121082000F041FA4FF41B
:100D80004070ADF8000010208DF8030003208DF8AE
:100D9000020069460448FFF738FF4FF440710248EB
:100DA000FFF7C0FF08BD0000000C014000B50020A7
:100DB0000E4908600E48006820F0F0000C490860F9
:100DC0000846006840F03000086001200949C1F879
:100DD000A40100F0FFF801200449086000F0FAF8CF
:100DE00000200449C1F8A00100BD0000A0812142FB
:100DF000040C01400080214230B50446002317480E
:100E0000006820F0F000154908600846006840F0CE
:100E100080000860002516E00020114908600120CC
:100E200000F0D8F801200F49C1F8A0015806030EC0
:100E30000B487C38006808B1581CC3B2012000F090
:100E4000C9F8681CC5B2082DE6DB14B9FFF7AEFF80
:100E500001E0FFF769FF184630BD0000040C0140B7
:100E6000A08121420080214210B503461848006845
:100E700020F0F000164908600846006840F0300095
:100E8000086000201349086000241DE0D80920B143
:100E900001201049091D086003E000200D49091DCB
:100EA00008605806030E012000F094F8012009495B
:100EB000086000F08FF800200749C1F8A001012068
:100EC00000F088F8601CC4B2082CDFDB10BD000005
:100ED000040C0140A08121420080214200B50F484E
:100EE000006820F0F0000D4908600846006840F0F6
:100EF0003000086001200A4908600A49C1F8A001D1
:100F000000F068F8002006490860012000F062F84F
:100F100000200449C1F8A00100BD0000040C0140FC
:100F2000A48121420080214200B50E48006820F0D3
:100F3000F0000C4908600846006840F03000086086
:100F400001200949086000200849C1F8A4010120D6
:100F500000F040F801200449091D086000F03AF84B
:100F600000BD0000040C0140A0812142008021420C
:100F700000B500231448006820F0F0001249086012
:100F80000846006840F08000086001200F490860B2
:100F900000F020F801200E49C1F8A00100F01AF875
:100FA00007E0581CC3B2FA2B03DDFFF7BDFF012099
:100FB00000BD0648803800680028F2D10349091FA7
:100FC000086000BFF4E70000040C0140A481214246
:100FD00000802142002100BF48E000BF00BF00BFE9
:100FE00000BF00BF00BF00BF00BF00BF00BF00BF09
:100FF00000BF00BF00BF00BF00BF00BF00BF00BFF9
:1010000000BF00BF00BF00BF00BF00BF00BF00BFE8
:1010100000BF00BF00BF00BF00BF00BF00BF00BFD8
:1010200000BF00BF00BF00BF00BF00BF00BF00BFC8
:1010300000BF00BF00BF00BF00BF00BF00BF00BFB8
:1010400000BF00BF00BF00BF00BF00BF00BF00BFA8
:1010500000BF00BF00BF00BF00BF00BF00BF00BF98
:1010600000BF00BF00BF00BF00BF491C8142B4D316
:101070007047000008B50121082000F0C1F84FF4C6
:101080000040ADF8000010208DF8030003208DF81B
:10109000020069460448FFF7B8FD4FF400410248DA
:1010A000FFF73EFE08BD0000000C014000BFFEE758
:1010B0007047000070B5002100230F22C47804B3EC
:1010C000154C246804F4E064C4F5E064210AC1F11D
:1010D0000403CA40447804FA03F18478144021439D
:1010E00009010E4C0678A155047804F01F0501246F
:1010F000AC4005786D11AD0005F1E025C5F8004163
:1011000009E0047804F01F050124AC40044D067882
:10111000761145F8264070BD0CED00E000E400E0DB
:1011200080E100E002490143024A1160704700007B
:101130000000FA050CED00E02DE9F04105460E46F1
:1011400017461C463A463146284601F03DF92046EE
:1011500001F048F900F096FF204600F003F8BDE8E2
:10116000F08100007FB504460121022000F038F82C
:1011700019492046FFF72EF806464FF07E51FFF73B
:1011800023F80546FFF78BF980B2ADF80800472039
:10119000ADF804000020ADF80A00ADF8060001A982
:1011A0000E4800F059FC012211460C4800F091FB5A
:1011B0001D208DF8000002208DF801008DF802003E
:1011C00001208DF803006846FFF774FF01210348F2
:1011D00000F062FB7FBD000000007A440004004084
:1011E00029B1064AD2690243044BDA6104E0034A9A
:1011F000D2698243014BDA6170470000001002405F
:1012000029B1064A92690243044B9A6104E0034AF9
:1012100092698243014B9A617047000000100240BE
:1012200030B500210022002400232D4D6D6805F00B
:101230000C0121B1042905D0082923D105E0294D4D
:10124000056022E0274D05601FE0254D6D6805F41F
:101250007012234D6D6805F48034022505EB92422F
:101260001CB9214D554305600BE01D4D6D6805F41B
:1012700000351DB11C4D5543056002E0194D554325
:10128000056002E0174D056000BF00BF144D6D689A
:1012900005F0F0010909154D6B5C0568DD404560FE
:1012A0000F4D6D6805F4E061090A104D6B5C4568EF
:1012B000DD4085600A4D6D6805F46051C90A0B4D2B
:1012C0006B5C4568DD40C560054D6D6805F44041C7
:1012D000890B074D6B5CC568B5FBF3F5056130BD47
:1012E0000010024000127A0000093D00900000202A
:1012F000A0000020704710B500F002F810BD0000FB
:101300000CB50020019000903348006840F4803014
:101310003149086000BF3048006800F40030009098
:101320000198401C0190009818B90198B0F5A06F81
:10133000F1D12948006800F4003010B1012000907C
:1013400001E0002000900098012843D12348006864
:1013500040F01000214908600846006820F00300B2
:1013600008600846006840F0020008601A484068BB
:10137000194948600846406848600846406840F49B
:10138000806048600846406820F47C104860084649
:10139000406840F4E81048600846006840F08070FB
:1013A000086000BF0C48006800F000700028F9D009
:1013B0000948406820F00300074948600846406833
:1013C00040F00200486000BF0348406800F00C0095
:1013D0000828F9D10CBD0000001002400020024096
:1013E000042808D14FF0E021096941F004014FF0D1
:1013F000E022116107E04FF0E021096921F00401CA
:101400004FF0E0221161704710B51348006840F0BA
:1014100001001149086008464068104908400E491B
:101420004860084600680E4908400B4908600846B5
:10143000006820F4802008600846406820F4FE0020
:1014400048604FF41F008860FFF755FF4FF00060C1
:101450000449086010BD0000001002400000FFF8C1
:10146000FFFFF6FE08ED00E07FB504460121C8024B
:10147000FFF7C6FE19492046FEF7ACFE06464FF0C0
:101480007E51FEF7A1FE0546FFF709F880B2ADF8E0
:1014900008004720ADF804000020ADF80600ADF8C4
:1014A0000A008DF80C0001A90D4800F0D5FA0121C1
:1014B0000B4800F0EBF919208DF8000001208DF8A1
:1014C00001008DF802008DF803006846FFF7F2FD79
:1014D0000121034800F0E0F97FBD000000007A44DC
:1014E000002C01402DE9F05F0121880700F0E0F9B0
:1014F000002871D069480068401C58B900F045FECA
:10150000674908600846006864490860002065492A
:101510000880BDE000F039FE61490860614800883C
:101520006149096808446049086000205D490880F5
:101530005B48006859490968401A5C4908600868B6
:10154000002801DB014600E04142012902DC0020C5
:101550005649086055480068002813DB5348006866
:10156000B0F5806F03DC0120514908601DE04FF0A9
:10157000FF304F4908604D480068A0F6FF704B49A6
:10158000086012E04948006810F5806F04DB4FF0F6
:10159000FF304749086008E001204549086043489A
:1015A000006800F6FF70414908603D4800683B490B
:1015B0000860404800680F285EDB4FF000090020FB
:1015C0003C4908600F213C48FFF782F93A48C0695E
:1015D0003A490860002438E05EE038480068FEF7C9
:1015E0004DFF0746364A374BFEF7CDFE0546FEF760
:1015F0006AFF8246304850F8240030490968A0EB61
:10160000010BBBF1000F01DB584601E0CBF10000FC
:10161000BAF1000F01DB514601E0CAF10001884236
:1016200008DC254850F82400274909680844264961
:10163000086005E009F1010900201F4941F8240074
:1016400000201D4941F82400641C0F2CC5DBC9F1A2
:101650000F001D49096891FBF0F01C490860124811
:1016600000680F2190FBF1F01949086000200E4935
:1016700008601549086006E00C4801680E480D4AEC
:10168000126840F822100B480068401C09490860A5
:101690000121880700F0FDF8BDE8F09F78000020E8
:1016A00074000020242C01406C0000207C000020ED
:1016B0000000002080000020B80000208C000020E6
:1016C0009A9999999999B93F84000020880000203F
:1016D000700000207FB5044601210846FFF780FD19
:1016E0001D492046FEF776FD06464FF07E51FEF777
:1016F0006BFD0546FEF7D3FE80B2ADF8080047202B
:10170000ADF8040014492046FEF764FD1349086053
:101710000020ADF80A00ADF8060001A94FF08040A6
:1017200000F09AF901221146900700F0D2F81C202F
:101730008DF8000001208DF8010000208DF80200D6
:1017400001208DF803006846FFF7B4FC01218807EB
:1017500000F0A2F87FBD000000007A446400002081
:1017600070B50121214800F0A3F800283CD02048A2
:10177000006800F0CDFD00211D480068FEF70AFF5B
:101780002CD01C480068401C18B31A480068FEF7AB
:101790006CFE054600F0A2FE04461748016820468C
:1017A000FEF7C0FC144908604FF07E5112480068F3
:1017B000FEF7FAFE04D84FF07E500F49086008E0AB
:1017C0000E490D480068FEF7E5FE02D80B480A49AD
:1017D000086009480068FFF72DF801E0FFF716F8E8
:1017E0000121024800F055F870BD000000040040DF
:1017F000040000208800002068000020000080BF56
:1018000070B588B006460D46144601210420FFF746
:10181000E7FCFEF7C1FFADF81860ADF814500020EA
:10182000ADF81A00ADF8160005A9174800F014F934
:101830006020ADF804000120ADF806000020ADF8EE
:101840000C0084B901A9104800F04CF801A90E4819
:1018500000F09EF808210C4800F090F808210A4892
:1018600000F0E8F809E0012C07D101A9064800F0D2
:101870008FF80821044800F0DDF80121024800F04B
:101880000BF808B070BD000000080040CA43028297
:101890007047CA430282704721B1028842F00102B8
:1018A000028004E002884FF6FE731A4002807047FF
:1018B00030B50246002000230024158A05EA010302
:1018C000958905EA010413B10CB1012000E0002064
:1018D00030BD1AB183890B43838102E083898B4336
:1018E0008381704770B5002400220023058C4FF6D9
:1018F000FE7635400584028C8388048B4FF68F7505
:101900002C40B51E2C400D882C43751E2A400D8995
:101910002A434D882A43144DA8420BD0134DA842A8
:1019200008D0134DA84205D0124DA84202D0124D46
:10193000A84213D14FF6F7752A404D892A434FF636
:10194000FB752A408D882A434FF6FF652B404FF6E2
:10195000FF552B408D892B43CD892B4383800483F6
:10196000CD888586028470BD002C01400034014082
:101970000040014000440140004801400A46002167
:10198000018B4FF6F7731940114301837047000034
:1019900070B5002400220023058C4FF6EF76354009
:1019A0000584028C8388048B48F6FF752C404FF623
:1019B000FF452C400D884FF6FF7606EA05252C439F
:1019C0004FF6DF752A400D8906EA05152A434D8832
:1019D00006EA05152A43154DA84202D0144DA84227
:1019E0001DD14FF67F752A404D894FF6FF7606EAE6
:1019F00005152A434FF6BF752A408D8806EA05155E
:101A00002A434FF6FF352B404FF2FF752B408D894F
:101A100006EA85052B43CD8906EA85052B4383809D
:101A20000483CD880587028470BD0000002C01402E
:101A3000003401400A460021018B4FF2FF73194028
:101A40004FF6FF7303EA022319430183704781862F
:101A50007047018770470000002202881D4B9842A2
:101A60000ED01D4B98420BD0B0F1804F08D01B4BCD
:101A7000984205D01A4B984202D01A4B984204D192
:101A80004FF68F731A404B881A43174B984207D072
:101A9000164B984204D04FF6FF431A40CB881A43A6
:101AA00002808B8883850B8803850A4B98420BD074
:101AB000094B984208D00E4B984205D00D4B9842E6
:101AC00002D00D4B984201D10B7A03860123838209
:101AD00070470000002C0140003401400004004029
:101AE00000080040000C00400010004000140040BE
:101AF00000400140004401400048014010B540F260
:101B00002551224800F0A2F800283ED01F4800F0DE
:101B100059F9C4B21E48008800F4004018BB1C48A4
:101B2000008800F48040B0B1442C03D00020184954
:101B300008802AE016480088C0F30D00082803D06A
:101B400000201349088020E01148008840F400403C
:101B50000F49088019E0452C06D10D48008840F453
:101B600080400B49088010E009480088C0F30D0050
:101B700008490C5406480088401C0549088008465E
:101B80000088082801DD0020088010BD00380140D1
:101B90005C0000204C00002010B540F22551224886
:101BA00000F054F800283ED01F4800F00BF9C4B2F2
:101BB0001E48008800F4004018BB1C48008800F450
:101BC0008040B0B10A2C03D00020184908802AE0D8
:101BD00016480088C0F30D00072803D000201349E1
:101BE000088020E01148008840F400400F49088038
:101BF00019E00D2C06D10D48008840F480400B49B7
:101C0000088010E009480088C0F30D0008490C5412
:101C100006480088401C05490880084600880728B7
:101C200001DD0020088010BD004400405E0000205F
:101C30005400002021B1828942F40052828104E0E4
:101C400082894DF6FF731A408281704770B5024653
:101C5000002400230025002040F66A16B14200D17E
:101C600000BFC1F3421501F01F03012606FA03F37A
:101C7000012D02D19689334006E0022D02D1168A49
:101C8000334001E0968A33400C12012606FA04F430
:101C90001688344013B10CB1012000E0002070BD63
:101CA000F0B50346002400260025002040F66A1700
:101CB000B94200D100BF1846C1F3421401F01F061B
:101CC000012707FA06F5012C01D10C3004E0022CA3
:101CD00001D1103000E014301AB107682F430760BB
:101CE00002E00768AF430760F0BD00002DE9F04750
:101CF00086B005460E460024A24600BFA146002736
:101D0000B08900B100BF2F462C8A4CF6FF7004400A
:101D1000F08804432C82AC894EF6F3100440B0885E
:101D200031890843718908430443AC81AC8A4FF67A
:101D3000FF400440B0890443AC8201A8FFF770FA69
:101D40001F48874202D1DDF810A001E0DDF80CA0A9
:101D5000A88900F4004040B10AEBCA0000EB0A1069
:101D600031684900B0FBF1F807E00AEBCA0000EB6C
:101D70000A1031688900B0FBF1F86420B8FBF0F07C
:101D800004012009642101FB1089A88900F40040A6
:101D900040B1322000EBC900B0FBF1F000F00700C9
:101DA000044308E0322000EB09106421B0FBF1F09D
:101DB00000F00F0004432C8106B0BDE8F08700005E
:101DC0000038014001468888C0F30800704700BF12
:101DD000FEE7000010B501210820FFF711FA80206E
:101DE0001B4988811B48086018211948C1730321C9
:101DF00081734021018220218182012010E0154958
:101E0000134A42F82010102211490C3101EB8001D5
:101E1000CA7003220E490C3101EB80018A70401C0C
:101E20000328ECDB002409E0094A0C3202EB8401B0
:101E30000C3A52F82400FEF7E8FE641C032CF3DB96
:101E4000012240F2CF2140F2E730FFF7D9FC10BD6C
:101E5000F4000020000C01400FB4054B10B503A99D
:101E6000044A029800F018F810BC5DF814FB00005A
:101E7000612100084800002002E008C8121F08C1C4
:101E8000002AFAD170477047002001E001C1121FFB
:101E9000002AFBD1704700002DE9FF4F89B09B4617
:101EA0000446002506E025280BD05A460B9990479A
:101EB000641C6D1C20780028F5D10DB02846BDE8C3
:101EC000F08F0027B8460122474900E0074314F885
:101ED000013F203B02FA03F00842F7D120782E2878
:101EE00019D114F8010F47F004072A280ED06FF01B
:101EF0002F022078A0F1300109290CD808EB8801C5
:101F000002EB410100EB0108641CF2E70A98641C33
:101F100050F8048B0A9020780028CED0642808D08E
:101F2000692806D075281ED05A460B9990476D1C1B
:101F300058E00A994FF00A0901C90A91002802DA0B
:101F400040422D2102E0390504D52B218DF82010C7
:101F5000012103E0F90704D02021F7E78A4608AE03
:101F60000DE00021FAE70A994FF00A0901C90A9128
:101F7000F7E74946FEF722FB303106F8011D00283D
:101F8000F7D1ADEB060000F12009780701D44FF03E
:101F90000108C84502DDA8EB090000E000208046EA
:101FA000002706E008A85A46C05D0B9990476D1CB3
:101FB0007F1C5745F6DB04E030205A460B999047CA
:101FC0006D1CB8F10001A8F10108F5DC05E016F878
:101FD000010B5A460B9990476D1CB9F10001A9F10C
:101FE0000109F4DC641C65E70928010010B5FEF75F
:101FF000C1FE00F0A9F8002820D11DE000F0A4F8EF
:10200000012812D100F0BAF8044621460FA0FFF7CC
:1020100023FF002000F0ECF94FF4B47000F054F905
:102020004FF4FA7000F06AF807E00EA0FFF714FF13
:102030004FF47A7000F062F8E0E700BF0F48FFF756
:1020400013FA0F48FFF746FB10BD0000437572728C
:10205000656E74204D61676E69747564653A2025FC
:10206000640D0A0043616E277420646574656374AF
:10207000206D61676E65740D0A000000000020414C
:10208000B81E053F00200649086006490860064959
:1020900008600649086006490860064908607047FC
:1020A00014000020180000201C0000202000002048
:1020B000240000202800002010B56FF00400FFF776
:1020C0008FF90A4800680A49B0FBF1F00949087025
:1020D0000846007800EB4001C1EBC0104FF6FF71DD
:1020E00001EAC0000449088010BD0000A4000020DF
:1020F00000127A0042000020440000200146114AEC
:1021000012884A434FF0E0235A6100229A611A462E
:10211000126942F001021A6100BF4FF0E02210691B
:1021200000F001021AB100F48032002AF5D04FF01D
:10213000E022126922F001024FF0E0231A6100222E
:102140009A6170474400002070B500250B2000F014
:1021500059F8044604F0200000B10125284670BD5E
:1021600000BF054A128802F04002002AF9D0C2B22C
:10217000014B1B1D1A8070470044004010B51C2104
:102180001B2000F05BF8C0B210BD10B50D210C2073
:1021900000F054F810BD000008B5FFF78DFF4FF4B4
:1021A000A060FEF7BFFFFEF765FF4FF47A3000F046
:1021B00043F900F013F800200423082207210090BF
:1021C000FEF7B8FC01200449086003E04FF07E50A0
:1021D000FEF730FBFAE70000BC81214210B5FFF7A3
:1021E000F9FDFFF703FF034B034A04490448FEF7D8
:1021F000A3FF10BD0000C8410AD7A33C0AD7233C67
:10220000295C0F3D70B504460025FEF767FE6C2083
:10221000FEF72AFEFEF7ACFE2046FEF725FEFEF78F
:10222000A7FEFEF75BFE6D20FEF71EFEFEF7A0FE8A
:102230000120FEF7E1FD0546284670BD2DE9FC4171
:1022400007460D460026002007E000211C4A1160C9
:1022500001211C4AC2F8A011401C0828F5DBFEF73A
:102260003DFE6C20FEF700FEFEF782FE2846FEF7DC
:10227000FBFDFEF77DFEFEF731FE6D20FEF7F4FD5F
:10228000FEF776FE002405E00120FEF7B5FD2DF8EF
:102290001400641C022CF7DBFEF746FEBDF80200BA
:1022A0004FF6FF7101EA0020ADF80200BDF8020010
:1022B000BDF8001040EA01063046BDE8FC81000090
:1022C000A08121420080214210B504460E480480BE
:1022D0000088010A032000F063F90220FEF77AFE6D
:1022E000094800780002C1B2042000F059F9022028
:1022F000FEF770FE04210320FFF7A0FF03490880CA
:102300000846008810BD00003C0000203E00002070
:102310002DE9F14F82B024480068FEF7AFF8064679
:102320000F460298FEF707F9204A214BCDE900013C
:10233000FEF729F8804632463B46FEF724F804466D
:102340001C4A1D4BFEF71FF88246FEF707F91B4992
:102350000860002119480068FEF71CF922D000210E
:1023600016480068FEF720F90ED214480068FEF700
:10237000E2F80646124A134BFDF7FFFF0446FEF74C
:10238000EDF80E4908600DE00C480068FEF7D3F840
:1023900006460B4A0B4BFDF74FFF0446FEF7DEF8EF
:1023A00006490860BDE8FE8F70000020B9FC87F484
:1023B000DBD7E53F2D431CEBE2361A3F140000202B
:1023C0009A9999999999D93F034B1860034B1960D1
:1023D000034B1A6070470000080000200C0000202A
:1023E0001000002001490860704700003000002004
:1023F00010B504460E4804800088010A012000F050
:10240000CFF80220FEF7E6FD094800780002C1B2CD
:10241000022000F0C5F80220FEF7DCFD02210120B9
:10242000FFF70CFF034908800846008810BD000034
:10243000380000203A00002010B586B00446012183
:102440000420FEF7DDFE01214804FEF7C9FE04204A
:10245000ADF8140003208DF8160018208DF8170031
:1024600005A91C48FEF7D1FB0820ADF81400042094
:102470008DF8170005A91748FEF7C7FB26208DF831
:10248000000003208DF801008DF8020001208DF876
:1024900003006846FEF70EFE01940020ADF8080028
:1024A000ADF80A00ADF80C00ADF810000C20ADF846
:1024B0000E0001A90848FFF719FC012240F225513E
:1024C0000548FFF7EDFB01210348FFF7B3FB06B01A
:1024D00010BD000000080140004400402DE9F04715
:1024E0000546254801682846FDF771FE0446234845
:1024F00001682046FDF768FE074639462048006817
:10250000FDF768FE1F4908601F4804601B4801680A
:102510004FF08040FDF75EFE80462146FDF757FEF6
:1025200006461A4801683046FDF7FCFD1849086068
:102530001248006815490860104804601448016892
:1025400014480068FDF746FE80460F4801681248AF
:102550000068FDF73FFE81460A4801684846FDF7DE
:10256000E1FD06464146FDF7DDFD0C4908600846E1
:102570000068BDE8F087000014000020280000205B
:10258000080000201C000020200000202C0000205B
:1025900024000020100000200C0000201800002063
:1025A00070B505460C46FEF799FC6C20FEF75CFC06
:1025B000FEF7DEFC2846FEF757FCFEF7D9FC204666
:1025C000FEF752FCFEF7D4FCFEF7AEFC70BD000037
:1025D000F025000800000020B8000000781E000868
:1025E000A8260008B800002058040000881E000833
:1025F00000000000000000000000000000000000DB
:1026000000000000000000000000000000000000CA
:1026100000000000000000000000000000000000BA
:1026200000000000000000000000000000000000AA
:10263000000000000000000000000000000000009A
:10264000000000000000000000000000000000008A
:10265000000080BF0000000000000000000000003B
:102660000000000000000000FFFFFFFF000000006E
:102670000000000000000000FFFFFFFF000000005E
:102680000000000001020304010203040607080918
:102690000204060800A24A04000000000000000036
:0826A00001020304060708090A
:04000005080000ED02
:00000001FF
