:020000040800F2
:100000000005002001010008AD1100080B010008E7
:10001000A911000815060008651700080000000077
:10002000000000000000000000000000691300084C
:10003000271000080000000017010008190100083F
:100040001B0100081B0100081B0100081B01000820
:100050001B0100081B0100081B0100081B01000810
:100060001B0100081B0100081B0100081B01000800
:100070001B0100081B010008550F00081B010008A8
:100080001B0100081B0100081B0100081B010008E0
:100090001B0100081B0100081B0100081B010008D0
:1000A0001B0100081B0100081B0100081B010008C0
:1000B000ED1400081B0100081B0100081B010008CB
:1000C0001B0100081B0100081B0100081B010008A0
:1000D0001B010008F11400081B0100081B010008A7
:1000E0001B0100081B0100081B010008DFF80CD0F1
:1000F00000F06EFA0048004749180008000500208B
:100100000648804706480047FEE7FEE7FEE7FEE7B1
:10011000FEE7FEE7FEE7FEE7FEE7FEE78D140008D8
:10012000ED000008F0B480EA0102D40F4200B2EB07
:10013000410F02D20246084611464A0042D0C30D82
:10014000DDB2C1F3C752AD1A202D35DAC1F3160165
:1001500041F4000204B15242C5F1200602FA06F150
:100160002A411044B3EBD05F23D0C4B1012DA0EBE2
:10017000C35009DCF0BC4FF0004202EAC352DBB2CC
:1001800000F5000000F098B9400000F1807000EB2D
:10019000C350A0F1807040EAD170490009E04908DD
:1001A00041EAC071A0EBC35000F50000400800EB2D
:1001B000C350F0BC00F077B96142012202EB41016B
:1001C000001BF6E7F0BC704781F00041AAE780F021
:1001D0000040A7E72DE9FE4F804681EA0300C00FEB
:1001E0000C46009021F0004123F00045B8EB0200DE
:1001F000A94105D24046214690461C460B46024680
:1002000023F00040104347D0270DC7F30A00C3F383
:100210000A510290401A019040286BDAC3F3130090
:1002200040F4801B0098924620B10023D2EB030AD1
:1002300063EB0B0B01985946C0F14002504600F0A9
:1002400011F906460D4650465946019A00F019F933
:1002500010EB08006141002487EA115284EAE77339
:100260001A4340D0009A62B3019A012A4FEA07521A
:1002700015DC001B61EB02014FF0004202EA07525D
:10028000CDE90042001C41F5801132462B4600F0BA
:1002900050F903B0BDE8F08F40462146F9E7001B56
:1002A00061EB0201001C41F5801300185B4120182E
:1002B000A2F5001747EB030140EAD570B6196D416E
:1002C00011E06D084FEA360645EAC0754FEA07525D
:1002D000001B61EB0201001C41F5801149084FEA47
:1002E00030000019514132462B4603B0BDE8F04FB3
:1002F00000F010B90098012240000023D0EB020268
:1003000063EBE073009821464FEAE074B8EB00001D
:1003100061EB0401E9E783F000435BE781F0004112
:1003200058E72DE9FE4F81EA030404F0004421F070
:10033000004100944FF0000B23F0004350EA010409
:100340005ED052EA03045BD0C3F30A54C1F30A55EA
:100350002C44A4F2F3340194A0FB0254C1F3130122
:1003600041F48011C3F3130343F4801301FB0244EF
:1003700000FB034E840A970A44EA815447EA8357F4
:10038000A4FB076802958D0A05FB07854FEA932CAD
:1003900004FB0C542705029D4FEA065847EA16371E
:1003A000B5EB08056EEB070C870E920E47EA811736
:1003B00042EA8312A7FB0201B6EB0B0164EB0004D7
:1003C0002B0D43EA0C335E1844EB1C50DA465146C1
:1003D000E7FB0201C5F313044FEA0B3343EA14535E
:1003E0004FEA0432019C43EA0603A4F10C04029490
:1003F000009CCDE900B400F09CF803B0BDE8F08F9C
:1004000000200146F9E700F0004230F000400AD039
:10041000C10D01F56071C0F3160042EA0151C20836
:1004200040071143704700200146704701F0004328
:1004300030B421F0004150EA010206D00A0DA2F5C5
:100440006072C1F31301002A02DC30BC0020704747
:10045000440F44EAC104C100E01830BC00EBC250B4
:1004600000F021B8202A04DB203A00FA02F1002033
:1004700070479140C2F1200320FA03F319439040E2
:100480007047202A06DBCB17203A41FA02F043EAF4
:10049000E07306E041FA02F3D040C2F1200291403D
:1004A0000843194670470029A8BF7047401C4900FF
:1004B00008BF20F00100704710B4B0FA80FC00FAC9
:1004C0000CF050EA010404BF10BC704749B1CCF1F4
:1004D000200421FA04F411FA0CF118BF0121214380
:1004E0000843A3EB0C01CB1D4FEA00614FEA10203B
:1004F00042BF002010BC704700EBC35010440029DD
:10050000A4BF10BC7047401C490008BF20F0010088
:1005100010BC704710B5141E73F1000408DA401CBB
:1005200041F1000192185B411A4301D120F0010012
:1005300010BD2DE9F04D92469B4611B1B1FA81F202
:1005400002E0B0FA80F220329046FFF78BFF0446BB
:100550000F4640EA0A0041EA0B0153465A46084357
:1005600013D0114653EA010019D0C8F14002504699
:1005700000F040F805460E46504659464246FFF701
:1005800071FF084305D0012004E020463946BDE84C
:10059000F08D0020054346EAE0762C4337430A9865
:1005A0006305E40AA0EB08000022FD0A44EA475470
:1005B0000A3002D500200146E9E70105101969411A
:1005C000DDE9084500196941BDE8F04DA2E70000EA
:1005D000064C074D06E0E06840F0010394E8070090
:1005E00098471034AC42F6D3FFF784FD8C1900080D
:1005F000AC190008202A04DB203A21FA02F000217D
:10060000704721FA02F3D040C2F120029140084322
:100610001946704700BFFEE77CB50A26002000900F
:1006200001900025002428E0154850F824104320AC
:1006300000F010FB002503E06D1C062001F0DEF841
:10064000684600F021FB08B9B542F5D3B54207D2A0
:100650009DF80000522803D19DF80100432804D0E2
:100660000020074941F8240004E006480078401CB7
:100670000449087001F088F8641C062CD4DB7CBDAA
:10068000000000201800002010B50021837A01220C
:1006900002FA03F13D4A126842F001023B4B1A6034
:1006A0003A4A1C3212688A43384B1C331A60027B68
:1006B000CAB9364A0C3212688A43344B0C331A607A
:1006C0004288C38842EA0343304A4032847A42F87F
:1006D00034300288838842EA03432C4A4032847AC9
:1006E00002EBC4025360027B012A19D1274A0C3263
:1006F00012680A43254B0C331A604288038842EA89
:100700000343224A4032847A42F83430C2888388D4
:1007100042EA03431D4A4032847A02EBC40253602A
:10072000C27A3AB9194A121D12688A43174B1B1D27
:100730001A6006E0154A121D12680A43134B1B1D6E
:100740001A60028932B9114A143212688A430F4B77
:1007500014331A600289012A06D10C4A1432126835
:100760000A430A4B14331A60427B012A06D1074A16
:100770001C3212680A43054B1C331A60034A126884
:1007800022F00102014B1A6010BD0000006600401B
:1007900030B5024600200023146824F002041460DF
:1007A000146844F00104146000E05B1C546804F019
:1007B00001041CB94FF6FF74A342F6D1546804F04B
:1007C00001040CB900206CE08C79012C04D1146870
:1007D00044F08004146003E0146824F08004146082
:1007E000CC79012C04D1146844F04004146003E077
:1007F000146824F0400414600C7A012C04D11468AD
:1008000044F02004146003E0146824F02004146011
:100810004C7A012C04D1146844F01004146003E0F5
:10082000146824F0100414608C7A012C04D114682C
:1008300044F00804146003E0146824F00804146011
:10084000CC7A012C04D1146844F00404146003E051
:10085000146824F0040414608C78A407CD7844EA6A
:1008600005640D7944EA05444D7944EA05540D8840
:100870006D1E2C43D461146824F00104146000231D
:1008800000E05B1C546804F001041CB14FF6FF74D7
:10089000A342F6D1546804F001040CB1002000E03A
:1008A000012030BD0246002019B9D36803F00300CF
:1008B00006E0012903D1136903F0030000E00020E2
:1008C000704700002DE9F04188B004460D461646F9
:1008D0001F46DDF838800121042000F0CBFC012107
:1008E000480600F0B7FC4FF48050ADF81C00032020
:1008F0008DF81E0018208DF81F0007A9244800F06D
:1009000093FB4FF40060ADF81C0048208DF81F00E9
:1009100007A91F4800F088FB00208DF816008DF80D
:1009200017008DF818008DF819008DF81A008DF851
:100930001B008DF812808DF813408DF814608DF82F
:100940001550ADF8107004A91248FFF721FF0020E0
:100950008DF80A008DF80B0001208DF80C00400383
:10096000ADF800000020ADF802004FF40050ADF8E3
:1009700004000020ADF80600ADF8080001208DF855
:100980000D006846FFF780FE002008B0BDE8F0814A
:10099000000801400064004010B500F5D87303EB77
:1009A00001131B6803F004031372137A53B900F5A3
:1009B000D87303EB01131B6840F2FF7404EA53532E
:1009C000136009E000F5D87303EB01131B686FF0A7
:1009D000604404EAD303536000F5D87303EB0113BA
:1009E0001B6803F00203537200F5D87303EB011385
:1009F0005B6803F00F03937200F5D87303EB0113E8
:100A00005B681B0AD37400F5D87303EB01139B6872
:100A1000D37200F5D87303EB01139B681C0A14739F
:100A200000F5D87303EB01139B681C0C547300F59D
:100A3000D87303EB01139B681B0E937300F5D873F7
:100A400003EB0113DB68D37300F5D87303EB0113D9
:100A5000DB681C0A147400F5D87303EB0113DB6820
:100A60001C0C547400F5D87303EB0113DB681B0EE8
:100A7000937421B9C36843F02003C36003E00369A2
:100A800043F02003036110BD10B5024600209368B7
:100A900003F08063B3F1806F00D110E0936803F03E
:100AA0000063B3F1006F01D1012008E0936803F007
:100AB0008053B3F1805F01D1022000E004200428BC
:100AC00074D002F5C07303EB00131B6803F001043C
:100AD00002F5C07303EB00131C600B7A7BB94B7AF1
:100AE0000C8843EA445302F5C07404EB00142468F4
:100AF000234302F5C07404EB0014236010E00B7A6A
:100B00004C6843EAC4034C7A234302F5C07404EBF7
:100B100000142468234302F5C07404EB001423601E
:100B20008B7A03F00F038B7202F5C07303EB001393
:100B30005B6823F00F0402F5C07303EB00135C60E5
:100B400002F5C07303EB00135B688C7A234302F554
:100B5000C07404EB001463608B7B1C064B7B44EA7F
:100B600003440B7B44EA0323CC7A234302F5C0748D
:100B700004EB0014A3608B7C1C064B7C44EA03440A
:100B80000B7C44EA0323CC7B234302F5C07404EBC3
:100B90000014E36002F5C07303EB00131B6843F01D
:100BA000010402F5C07303EB00131C6010BD0000CC
:100BB00010B50246002321B1012907D002290FD127
:100BC00009E090681D4C00EA04030BE090681C4C9F
:100BD00000EA040306E090681A4C00EA040301E00E
:100BE000002300BF00BF184C181BA34216D007DC1F
:100BF00083B16FF08060184470B1022818D111E001
:100C0000B0F5007F10D0114C204448B1B0F5003F42
:100C10000ED10BE002230DE000230BE0002309E0DE
:100C2000002307E0012305E0012303E0012301E0A5
:100C3000002300BF00BFD8B210BD000003000004B5
:100C40000003000800000310000100080001FFF786
:100C5000002070472DE9F04105460E46002403E0D0
:100C600008480555601C84B2082CF9DB324608217F
:100C7000044800F027F8074600F092FD3846BDE82A
:100C8000F08100002000002030B585B0054600212D
:100C90000B48FFF707FE10B9002005B030BD6A46CB
:100CA00000210748FFF778FE002404E00DF10B0057
:100CB000005D2855641C082CF8D39DF80A00ECE769
:100CC000006400402DE9F04186B080460D4616468E
:100CD0000024700D0190C6F3D100029000208DF821
:100CE0000C008DF80D008DF80E5000BF06E018F8CE
:100CF00004100DF10F000155601C84B2AC42F6DB0C
:100D000001A90D48FFF7C0FE0746002401E0601C62
:100D100084B239460848FFF74BFF18B940F6FF7018
:100D20008442F4DB40F6FF70844203DB012006B00E
:100D3000BDE8F0810020FAE700640040002004498B
:100D40000978002901DD012000E000207047000043
:100D50003800002010B50246002310E0FFF7EEFF38
:100D600068B1002006E00C49095C0C4C04EBC3049C
:100D700021545B1C0A4909788842F4DB5B1C032B75
:100D8000ECDB064800681060044880685060034847
:100D90000069906010BD0000CA00002080000020A3
:100DA0003800002000B587B00121042000F062FA6D
:100DB0000121880300F05EFA4FF40070ADF81800CE
:100DC00018208DF81B0003208DF81A0006A91D4875
:100DD00000F02AF94FF48060ADF8180004208DF877
:100DE0001B0006A9174800F01FF925208DF8040004
:100DF00003208DF805008DF8060001208DF807000E
:100E000001A800F0D5F94FF4E13002900020ADF8D0
:100E10000C00ADF80E00ADF81000ADF814000C2079
:100E2000ADF8120002A9084800F030FC012240F29F
:100E30002441054800F005FC0121034800F08AFB2D
:100E400007B000BD000801400038014070B50546FC
:100E50000C4600224021084800F0C0FB0021074852
:100E600000F098F80548443805658464012103487A
:100E700000F090F870BD00000038014044000240CE
:100E800000B58DB0FFF78EFF0121084600F0D2F9C2
:100E90002C4802902C48039010200490322005909A
:100EA00000200690802007900020089009900A906A
:100EB0004FF480500B9000200C9002A9234800F0C2
:100EC00094F8012280211F48001F00F087FB0122B7
:100ED00002211E4800F080F80E208DF80400032047
:100EE0008DF805008DF8060001208DF8070001A897
:100EF00000F05EF91348029015480390002004901A
:100F00003220059000200690802007900020089055
:100F100009900A904FF480500B9000200C9002A989
:100F20000A48143000F061F8012240210548001FF2
:100F300000F054FB01210548143000F02BF80DB0EF
:100F400000BD000004380140980000204400024029
:100F5000CA00002010B54FF4005000F027F840B14F
:100F600001224021034800F039FB4FF4005000F00B
:100F700003F810BD0038014000F0805111B1034961
:100F8000086001E002494860704700000404024024
:100F90000000024021B1026842F00102026004E058
:100FA00002684FF6FE731A40026070470146002047
:100FB000002201F0805313B1054B1A6801E0054B84
:100FC0001A6802EA01030BB1012000E0002070471B
:100FD00000040240000002401AB103680B430360A2
:100FE00002E003688B430360704710B5002202687B
:100FF00047F6F0739A430C6A8B6823430C692343CA
:101000004C6923438C692343CC6923434C6A2343B3
:101010008C6A23431A430260CB6843600B68836089
:101020004B68C36010BD70472DE9F04102460025B2
:101030000026002000230024002791F803C00CF0B4
:101040000F0591F803C00CF0100CBCF1000F03D099
:1010500091F802C04CEA050591F800C0BCF1000F00
:1010600031D0146800202BE04FF0010C0CFA00F393
:10107000B1F800C00CEA03069E4220D183004FF075
:101080000F0C0CFA03F7BC4305FA03FC4CEA04040A
:1010900091F803C0BCF1280F06D14FF0010C0CFAF7
:1010A00000FCC2F814C00AE091F803C0BCF1480F7C
:1010B00005D14FF0010C0CFA00FCC2F810C0401C26
:1010C0000828D1D31460B1F800C0BCF1FF0F34DDA3
:1010D000546800202EE000F1080C4FF0010808FAD7
:1010E0000CF3B1F800C00CEA03069E4221D1830044
:1010F0004FF00F0C0CFA03F7BC4305FA03FC4CEA63
:10110000040491F803C0BCF1280F05D100F1080CCC
:1011100008FA0CF8C2F8148091F803C0BCF1480F2B
:1011200007D100F1080C4FF0010808FA0CF8C2F8DA
:101130001080401C0828CED35460BDE8F081416186
:101140007047000008B50121082000F093F84FF423
:101150000040ADF8000010208DF8030003208DF84A
:10116000020069460448FFF75FFF4FF40041024860
:10117000FFF7E5FF08BD0000000C0140017943299D
:1011800005D0532907D10021064A116008E001214A
:10119000044A116004E04FF0FF31024A116000BFC1
:1011A00000BF70473000002000BFFEE7704700001E
:1011B00070B5002100230F22C47804B3154C2468B5
:1011C00004F4E064C4F5E064210AC1F10403CA40F8
:1011D000447804FA03F184781440214309010E4C49
:1011E0000678A155047804F01F050124AC40057869
:1011F0006D11AD0005F1E025C5F8004109E0047866
:1012000004F01F050124AC40044D0678761145F822
:10121000264070BD0CED00E000E400E080E100E05D
:1012200002490143024A1160704700000000FA05BC
:101230000CED00E029B1064A52690243044B5A61A1
:1012400004E0034A52698243014B5A61704700002F
:101250000010024029B1064AD2690243044BDA6108
:1012600004E0034AD2698243014BDA61704700000F
:101270000010024029B1064A92690243044B9A6168
:1012800004E0034A92698243014B9A61704700006F
:101290000010024030B500210022002400232D4D13
:1012A0006D6805F00C0121B1042905D0082923D16E
:1012B00005E0294D056022E0274D05601FE0254D22
:1012C0006D6805F47012234D6D6805F480340225B5
:1012D00005EB92421CB9214D554305600BE01D4DB5
:1012E0006D6805F400351DB11C4D5543056002E0E5
:1012F000194D5543056002E0174D056000BF00BF62
:10130000144D6D6805F0F0010909154D6B5C056819
:10131000DD4045600F4D6D6805F4E061090A104D30
:101320006B5C4568DD4085600A4D6D6805F4605171
:10133000C90A0B4D6B5C4568DD40C560054D6D68A5
:1013400005F44041890B074D6B5CC568B5FBF3F5AF
:10135000056130BD0010024000127A0000093D0016
:101360003900002049000020704770B505460C4642
:10137000E1B22846FFF76AFD70BD10B500F002F833
:1013800010BD00000CB500200190009033480068AB
:1013900040F480303149086000BF3048006800F4F4
:1013A000003000900198401C0190009818B90198F5
:1013B000B0F5A06FF1D12948006800F4003010B1F9
:1013C0000120009001E0002000900098012843D106
:1013D0002348006840F01000214908600846006872
:1013E00020F0030008600846006840F00200086032
:1013F0001A484068194948600846406848600846ED
:10140000406840F4806048600846406820F47C10E2
:1014100048600846406840F4E810486008460068A4
:1014200040F08070086000BF0C48006800F0007059
:101430000028F9D00948406820F0030007494860B7
:101440000846406840F00200486000BF034840681A
:1014500000F00C000828F9D10CBD0000001002407B
:1014600000200240042808D14FF0E021096941F032
:1014700004014FF0E022116107E04FF0E02109691B
:1014800021F004014FF0E0221161704710B51348BC
:10149000006840F0010011490860084640681049A2
:1014A00008400E494860084600680E4908400B494C
:1014B00008600846006820F48020086008464068FC
:1014C00020F4FE0048604FF41F008860FFF755FFCE
:1014D0004FF000600449086010BD00000010024099
:1014E0000000FFF8FFFFF6FE08ED00E07047000087
:1014F00010B540F22441134800F079F808B31248BF
:101500000078C8B9002240210E4800F067F8002199
:101510000E48FFF73FFD0D485838C06DC0F132004E
:1015200009490870322009495839C8650848486691
:1015300001210648FFF72EFD024800880148001DE2
:10154000008810BD003801403800002058000240DB
:10155000CA00002021B1828942F40052828104E055
:1015600082894DF6FF731A408281704710B5FFF7EC
:10157000E5FB18B31248FFF701FE12480068401C53
:10158000E0B11048006810B1012815D10FE0052125
:101590000DA0FFF7EAFE0E48FFF7DCFB00F076F93E
:1015A000FFF756FB4FF0FF300649086005E00521C4
:1015B00008A0FFF7DAFE00E000BF00BF10BD00008A
:1015C000CA000020300000204252534900000000B1
:1015D0007400002042534642000000001AB1838A82
:1015E0000B43838202E0838A8B438382704770B50A
:1015F0000246002400230025002040F66A16B1426E
:1016000000D100BFC1F3421501F01F03012606FA05
:1016100003F3012D02D19689334006E0022D02D159
:10162000168A334001E0968A33400C12012606FAEE
:1016300004F41688344013B10CB1012000E00020FE
:1016400070BDF0B50346002400260025002040F6BA
:101650006A17B94200D100BF1846C1F3421401F025
:101660001F06012707FA06F5012C01D10C3004E012
:10167000022C01D1103000E014301AB107682F435A
:10168000076002E00768AF430760F0BD2DE9F0474F
:1016900086B005460E460024A24600BFA14600279C
:1016A000B08900B100BF2F462C8A4CF6FF70044071
:1016B000F08804432C82AC894EF6F3100440B088C5
:1016C00031890843718908430443AC81AC8A4FF6E1
:1016D000FF400440B0890443AC8201A8FFF7DAFD63
:1016E0001F48874202D1DDF810A001E0DDF80CA010
:1016F000A88900F4004040B10AEBCA0000EB0A10D0
:1017000031684900B0FBF1F807E00AEBCA0000EBD2
:101710000A1031688900B0FBF1F86420B8FBF0F0E2
:1017200004012009642101FB1089A88900F400400C
:1017300040B1322000EBC900B0FBF1F000F007002F
:10174000044308E0322000EB09106421B0FBF1F003
:1017500000F00F0004432C8106B0BDE8F0870000C4
:101760000038014000BFFEE702E008C8121F08C1B0
:10177000002AFAD170477047002001E001C1121F12
:10178000002AFBD170470000002003E00021034A3B
:101790001154401C0828F9DB704700002800002085
:1017A000002003E00021034A1154401C0828F9DB03
:1017B000704700002000002010B56FF00400FFF714
:1017C00051FE0A4800680A49B0FBF1F00949087067
:1017D0000846007800EB4001C1EBC0104FF6FF71E6
:1017E00001EAC0000449088010BD0000500000203C
:1017F00000127A0034000020360000200146114A11
:1018000012884A434FF0E0235A6100229A611A4637
:10181000126942F001021A6100BF4FF0E022106924
:1018200000F001021AB100F48032002AF5D04FF026
:10183000E022126922F001024FF0E0231A61002237
:101840009A6170473600002008B5FFF7B5FF4FF4E6
:10185000A060FFF7E5FCFFF775FCFFF711FB002028
:101860000423082207210090FFF72CF801200649E5
:1018700008604FF47A70FFF7C1FFFEF7CDFE01E07C
:10188000FFF774FEFCE70000BC8121422DE9F05F08
:101890003A498868FEF7B7FD8046394A394BFEF76A
:1018A00040FD06460F46354A51681068FEF78CFC2D
:1018B0008046FEF7A8FD824632463B46FEF72BFDEA
:1018C0000446FEF7B3FD304908602C498868FEF7EE
:1018D0009AFD80462A4A2B4BFEF723FD04460D460F
:1018E000264A51681068FEF71DFC8046FEF78BFD06
:1018F000064622462B46FEF76DFC8246FEF796FD15
:10190000214948601D498868FEF77DFD82461C4AD2
:101910001C4BFEF706FD80468946184A5168106840
:10192000FEF752FC8246FEF76EFD064642464B46E7
:10193000FEF750FC0446FEF779FD134988600F4915
:101940008868FEF760FD06460D4A0E4BFEF7E9FC7F
:1019500004460D46094A51681068FEF7E3FB064647
:10196000FEF751FD804622462B46FEF7D4FC824608
:10197000FEF75CFD0449C860BDE8F09F74000020DC
:1019800057EC2FBB270FC33F64000020AC190008A1
:10199000000000206400000068170008101A00080A
:1019A000640000209C04000078170008000020005C
:1019B0000000400000008000000000010000000264
:1019C0000000000400000000000000000000000013
:1019D000000000000000000000000000FFFFFFFF0B
:1019E00000000000000000000001020304010203E7
:1019F00004060708090204060800000000A24A04C1
:101A000000000000000000000102030406070809AE
:04000005080000ED02
:00000001FF
