:020000040800F2
:10000000C804002001010008410C00080B01000891
:100010003D0C0008F5020008151300080000000060
:10002000000000000000000000000000FD0D0008BE
:10003000AB0A0008000000001701000819010008C1
:100040001B0100081B0100081B0100081B01000820
:100050001B0100081B0100081B0100081B01000810
:100060001B0100081B0100081B0100081B01000800
:100070001B0100081B010008D90900081B0100082A
:100080001B0100081B0100081B0100081B010008E0
:100090001B0100081B0100081B0100081B010008D0
:1000A0001B0100081B0100081B0100081B010008C0
:1000B000710F00081B0100081B0100081B0100084C
:1000C0001B0100081B0100081B0100081B010008A0
:1000D0001B010008111100081B0100081B0100088A
:1000E0001B0100081B0100081B010008DFF80CD0F1
:1000F00000F0EEF800480047E1130008C8040020B3
:100100000648804706480047FEE7FEE7FEE7FEE7B1
:10011000FEE7FEE7FEE7FEE7FEE7FEE7110F000859
:10012000ED000008F0B480EA0102D40F4200B2EB07
:10013000410F02D20246084611464A0042D0C30D82
:10014000DDB2C1F3C752AD1A202D35DAC1F3160165
:1001500041F4000204B15242C5F1200602FA06F150
:100160002A411044B3EBD05F23D0C4B1012DA0EBE2
:10017000C35009DCF0BC4FF0004202EAC352DBB2CC
:1001800000F5000000F075B8400000F1807000EB51
:10019000C350A0F1807040EAD170490009E04908DD
:1001A00041EAC071A0EBC35000F50000400800EB2D
:1001B000C350F0BC00F054B86142012202EB41018F
:1001C000001BF6E7F0BC704781F00041AAE780F021
:1001D0000040A7E780EA010210B502F000434000AA
:1001E00022D04A001FD0010E01EB1261C0F356006D
:1001F000C2F3560240F4000042F40002A0FB0220C9
:1002000000047F39140400D0401C50EA124001D48D
:100210004000491EC2B20C0604EBD010401C40083E
:10022000802A02D003E0002010BD20F00100002948
:1002300000DA0020184310BD20F00040C10DC0F3CB
:10024000160040F400007F2901DA0020704796294B
:1002500003DCC1F19601C840704796398840704769
:100260000029A8BF7047401C490008BF20F00100CA
:10027000704710B4B0FA80FC00FA0CF050EA0104A8
:1002800004BF10BC704749B1CCF1200421FA04F43A
:1002900011FA0CF118BF012121430843A3EB0C0113
:1002A000CB1D4FEA00614FEA102042BF002010BC76
:1002B000704700EBC35010440029A4BF10BC704726
:1002C000401C490008BF20F0010010BC704700002E
:1002D000064C074D06E0E06840F0010394E8070093
:1002E00098471034AC42F6D3FFF704FF3C140008E3
:1002F0005C14000800BFFEE710B50021837A0122DC
:1003000002FA03F13D4A126842F001023B4B1A60C7
:100310003A4A1C3212688A43384B1C331A60027BFB
:10032000CAB9364A0C3212688A43344B0C331A600D
:100330004288C38842EA0343304A4032847A42F812
:1003400034300288838842EA03432C4A4032847A5C
:1003500002EBC4025360027B012A19D1274A0C32F6
:1003600012680A43254B0C331A604288038842EA1C
:100370000343224A4032847A42F83430C288838868
:1003800042EA03431D4A4032847A02EBC4025360BE
:10039000C27A3AB9194A121D12688A43174B1B1DBB
:1003A0001A6006E0154A121D12680A43134B1B1D02
:1003B0001A60028932B9114A143212688A430F4B0B
:1003C00014331A600289012A06D10C4A14321268C9
:1003D0000A430A4B14331A60427B012A06D1074AAA
:1003E0001C3212680A43054B1C331A60034A126818
:1003F00022F00102014B1A6010BD000000660040AF
:1004000030B5024600200023146824F00204146072
:10041000146844F00104146000E05B1C546804F0AC
:1004200001041CB94FF6FF74A342F6D1546804F0DE
:1004300001040CB900206CE08C79012C04D1146803
:1004400044F08004146003E0146824F08004146015
:10045000CC79012C04D1146844F04004146003E00A
:10046000146824F0400414600C7A012C04D1146840
:1004700044F02004146003E0146824F020041460A5
:100480004C7A012C04D1146844F01004146003E089
:10049000146824F0100414608C7A012C04D11468C0
:1004A00044F00804146003E0146824F008041460A5
:1004B000CC7A012C04D1146844F00404146003E0E5
:1004C000146824F0040414608C78A407CD7844EAFE
:1004D00005640D7944EA05444D7944EA05540D88D4
:1004E0006D1E2C43D461146824F0010414600023B1
:1004F00000E05B1C546804F001041CB14FF6FF746B
:10050000A342F6D1546804F001040CB1002000E0CD
:10051000012030BD2DE9F04188B004460D46164655
:100520001F46DDF838800121042000F0EDFB012199
:10053000480600F0D9FB4FF48050ADF81C000320B2
:100540008DF81E0018208DF81F0007A9244800F020
:10055000ADFA4FF40060ADF81C0048208DF81F0084
:1005600007A91F4800F0A2FA00208DF816008DF8A8
:1005700017008DF818008DF819008DF81A008DF805
:100580001B008DF812808DF813408DF814608DF8E3
:100590001550ADF8107004A91248FFF731FF002084
:1005A0008DF80A008DF80B0001208DF80C00400337
:1005B000ADF800000020ADF802004FF40050ADF897
:1005C00004000020ADF80600ADF8080001208DF809
:1005D0000D006846FFF790FE002008B0BDE8F081EE
:1005E000000801400064004010B5024600209368F6
:1005F00003F08063B3F1806F00D110E0936803F0E3
:100600000063B3F1006F01D1012008E0936803F0AB
:100610008053B3F1805F01D1022000E00420042860
:1006200074D002F5C07303EB00131B6803F00104E0
:1006300002F5C07303EB00131C600B7A7BB94B7A95
:100640000C8843EA445302F5C07404EB0014246898
:10065000234302F5C07404EB0014236010E00B7A0E
:100660004C6843EAC4034C7A234302F5C07404EB9C
:1006700000142468234302F5C07404EB00142360C3
:100680008B7A03F00F038B7202F5C07303EB001338
:100690005B6823F00F0402F5C07303EB00135C608A
:1006A00002F5C07303EB00135B688C7A234302F5F9
:1006B000C07404EB001463608B7B1C064B7B44EA24
:1006C00003440B7B44EA0323CC7A234302F5C07432
:1006D00004EB0014A3608B7C1C064B7C44EA0344AF
:1006E0000B7C44EA0323CC7B234302F5C07404EB68
:1006F0000014E36002F5C07303EB00131B6843F0C2
:10070000010402F5C07303EB00131C6010BD000070
:1007100010B50246002321B1012907D002290FD1CB
:1007200009E090681D4C00EA04030BE090681C4C43
:1007300000EA040306E090681A4C00EA040301E0B2
:10074000002300BF00BF184C181BA34216D007DCC3
:1007500083B16FF08060184470B1022818D111E0A5
:10076000B0F5007F10D0114C204448B1B0F5003FE7
:100770000ED10BE002230DE000230BE0002309E083
:10078000002307E0012305E0012303E0012301E04A
:10079000002300BF00BFD8B210BD0000030000045A
:1007A0000003000800000310000100080001FFF72B
:1007B0002DE9F04105460E46002403E008480555A2
:1007C000601C84B2082CF9DB32460821044800F092
:1007D00009F8074600F0B0FD3846BDE8F08100009A
:1007E000200000202DE9F04186B080460D461646D7
:1007F0000024700D0190C6F3D100029000208DF806
:100800000C008DF80D008DF80E5000BF06E018F8B2
:1008100004100DF10F000155601C84B2AC42F6DBF0
:1008200001A90D48FFF7E0FE0746002401E0601C27
:1008300084B239460848FFF76BFF18B940F6FF70DD
:100840008442F4DB40F6FF70844203DB012006B0F3
:10085000BDE8F0810020FAE70064004000B587B0F1
:100860000121042000F050FA0121880300F04CFA25
:100870004FF40070ADF8180018208DF81B0003200D
:100880008DF81A0006A91D4800F010F94FF4806099
:10089000ADF8180004208DF81B0006A9174800F0D9
:1008A00005F925208DF8040003208DF805008DF84A
:1008B000060001208DF8070001A800F0C3F94FF4ED
:1008C0007A3002900020ADF80C00ADF80E00ADF8C3
:1008D0001000ADF814000C20ADF8120002A9084871
:1008E00000F0ACFC012240F22441054800F081FCFC
:1008F0000121034800F03EFC07B000BD00080140A4
:100900000038014000B58DB0FFF7A8FF012108466F
:1009100000F0DAF92C4802902C4803901020049043
:10092000322005900020069080200790002008903B
:1009300009900A904FF480500B9000200C9002A96F
:10094000234800F094F8012280211F48001F00F086
:100950001DFC012202211E4800F080F80E208DF8B7
:10096000040003208DF805008DF8060001208DF8A5
:10097000070001A800F066F913480290154803909B
:1009800000200490322005900020069080200790DF
:100990000020089009900A904FF480500B9000209E
:1009A0000C9002A90A48143000F061F8012240219D
:1009B0000548001F00F0EAFB01210548143000F053
:1009C0002BF80DB000BD000004380140600000208D
:1009D000440002409200002010B54FF4005000F097
:1009E00027F840B101224021034800F0CFFB4FF42B
:1009F000005000F003F810BD0038014000F08051B5
:100A000011B10349086001E00249486070470000E5
:100A1000040402400000024021B1026842F00102D9
:100A2000026004E002684FF6FE731A4002607047ED
:100A300001460020002201F0805313B1054B1A68D3
:100A400001E0054B1A6802EA01030BB1012000E046
:100A50000020704700040240000002401AB1036801
:100A60000B43036002E003688B430360704710B5DB
:100A70000022026847F6F0739A430C6A8B6823439E
:100A80000C6923434C6923438C692343CC6923437A
:100A90004C6A23438C6A23431A430260CB68436049
:100AA0000B6883604B68C36010BD70472DE9F0414F
:100AB000024600250026002000230024002791F88C
:100AC00003C00CF00F0591F803C00CF0100CBCF142
:100AD000000F03D091F802C04CEA050591F800C060
:100AE000BCF1000F31D0146800202BE04FF0010C56
:100AF0000CFA00F3B1F800C00CEA03069E4220D1C4
:100B000083004FF00F0C0CFA03F7BC4305FA03FC0B
:100B10004CEA040491F803C0BCF1280F06D14FF051
:100B2000010C0CFA00FCC2F814C00AE091F803C0F2
:100B3000BCF1480F05D14FF0010C0CFA00FCC2F8D3
:100B400010C0401C0828D1D31460B1F800C0BCF11B
:100B5000FF0F34DD546800202EE000F1080C4FF048
:100B6000010808FA0CF3B1F800C00CEA03069E4233
:100B700021D183004FF00F0C0CFA03F7BC4305FAA8
:100B800003FC4CEA040491F803C0BCF1280F05D122
:100B900000F1080C08FA0CF8C2F8148091F803C0B0
:100BA000BCF1480F07D100F1080C4FF0010808FA1A
:100BB0000CF8C2F81080401C0828CED35460BDE861
:100BC000F081000008B50121082000F09DF81020F8
:100BD0008DF8030003208DF802004FF40040ADF8BB
:100BE000000069461348FFF761FF4FF48040ADF8FD
:100BF000000069460F48FFF759FF4FF40050ADF869
:100C0000000069460B48FFF751FF4FF48050ADF8E4
:100C1000000069460748FFF749FF4FF40060ADF850
:100C2000000069460348FFF741FF034800F0B6F9AA
:100C300008BD0000000C014000007A4400BFFEE740
:100C40007047000070B5002100230F22C47804B360
:100C5000154C246804F4E064C4F5E064210AC1F191
:100C60000403CA40447804FA03F184781440214311
:100C700009010E4C0678A155047804F01F050124E3
:100C8000AC4005786D11AD0005F1E025C5F80041D7
:100C900009E0047804F01F050124AC40044D0678F7
:100CA000761145F8264070BD0CED00E000E400E050
:100CB00080E100E002490143024A116070470000F0
:100CC0000000FA050CED00E029B1064A5269024322
:100CD000044B5A6104E0034A52698243014B5A6152
:100CE000704700000010024029B1064AD269024351
:100CF000044BDA6104E0034AD2698243014BDA61B2
:100D0000704700000010024029B1064A9269024370
:100D1000044B9A6104E0034A92698243014B9A6151
:100D2000704700000010024030B50021002200246E
:100D300000232D4D6D6805F00C0121B1042905D06B
:100D4000082923D105E0294D056022E0274D0560E3
:100D50001FE0254D6D6805F47012234D6D6805F494
:100D60008034022505EB92421CB9214D55430560A4
:100D70000BE01D4D6D6805F400351DB11C4D55434C
:100D8000056002E0194D5543056002E0174D05600E
:100D900000BF00BF144D6D6805F0F0010909154D45
:100DA0006B5C0568DD4045600F4D6D6805F4E061E2
:100DB000090A104D6B5C4568DD4085600A4D6D6821
:100DC00005F46051C90A0B4D6B5C4568DD40C56098
:100DD000054D6D6805F44041890B074D6B5CC56896
:100DE000B5FBF3F5056130BD0010024000127A003A
:100DF00000093D003500002045000020704710B577
:100E000000F002F810BD00000CB500200190009029
:100E10003348006840F480303149086000BF3048F2
:100E2000006800F4003000900198401C0190009888
:100E300018B90198B0F5A06FF1D12948006800F405
:100E4000003010B10120009001E0002000900098D7
:100E5000012843D12348006840F010002149086070
:100E60000846006820F0030008600846006840F06B
:100E7000020008601A4840681949486008464068FE
:100E800048600846406840F4806048600846406812
:100E900020F47C1048600846406840F4E810486040
:100EA0000846006840F08070086000BF0C48006889
:100EB00000F000700028F9D00948406820F00300D5
:100EC000074948600846406840F00200486000BF9B
:100ED0000348406800F00C000828F9D10CBD000060
:100EE0000010024000200240042808D14FF0E02109
:100EF000096941F004014FF0E022116107E04FF071
:100F0000E021096921F004014FF0E02211617047EE
:100F100010B51348006840F0010011490860084608
:100F20004068104908400E494860084600680E496C
:100F300008400B4908600846006820F480200860DB
:100F40000846406820F4FE0048604FF41F008860A7
:100F5000FFF755FF4FF000600449086010BD000026
:100F6000001002400000FFF8FFFFF6FE08ED00E071
:100F700010B50121880700F05EF848B1012188070B
:100F800000F04AF803480068C0430349C1F8AC01C7
:100F900010BD0000AC812142008021427FB5044693
:100FA00001210846FFF7A0FE1A492046FFF712F973
:100FB00006464FF07E51FFF707F90546FFF73CF96B
:100FC00080B2ADF8080041F61F40ADF804000020E3
:100FD000ADF80A00ADF8060001A94FF0804000F01E
:100FE00045F801221146900700F036F81C208DF8D4
:100FF000000000208DF801008DF8020001208DF81E
:1010000003006846FFF71EFE0121880700F007F87D
:101010007FBD000000002041CA430282704721B119
:10102000028842F00102028004E002884FF6FE735B
:101030001A400280704730B5024600200023002489
:10104000158A05EA0103958905EA010413B10CB17B
:10105000012000E0002030BD1AB183890B43838159
:1010600002E083898B43838170470000002202885D
:101070001D4B98420ED01D4B98420BD0B0F1804FC3
:1010800008D01B4B984205D01A4B984202D01A4BFD
:10109000984204D14FF68F731A404B881A43174B6E
:1010A000984207D0164B984204D04FF6FF431A409F
:1010B000CB881A4302808B8883850B8803850A4B73
:1010C00098420BD0094B984208D00E4B984205D05D
:1010D0000D4B984202D00D4B984201D10B7A0386FA
:1010E0000123838270470000002C0140003401403E
:1010F0000004004000080040000C004000100040C8
:1011000000140040004001400044014000480140FC
:1011100010B540F22441134800F041F808B31248DA
:101120000078C8B9002240210E4800F02FF80021B5
:101130000E48FFF771FC0D485838C06DC0F1320001
:1011400009490870322009495839C8650848486675
:1011500001210648FFF760FC024800880148001D95
:10116000008810BD003801403400002058000240C3
:101170009200002021B1828942F40052828104E071
:1011800082894DF6FF731A40828170471AB1838AB3
:101190000B43838202E0838A8B438382704770B55E
:1011A0000246002400230025002040F66A16B142C2
:1011B00000D100BFC1F3421501F01F03012606FA5A
:1011C00003F3012D02D19689334006E0022D02D1AE
:1011D000168A334001E0968A33400C12012606FA43
:1011E00004F41688344013B10CB1012000E0002053
:1011F00070BDF0B50346002400260025002040F60F
:101200006A17B94200D100BF1846C1F3421401F079
:101210001F06012707FA06F5012C01D10C3004E066
:10122000022C01D1103000E014301AB107682F43AE
:10123000076002E00768AF430760F0BD2DE9F047A3
:1012400086B005460E460024A24600BFA1460027F0
:10125000B08900B100BF2F462C8A4CF6FF700440C5
:10126000F08804432C82AC894EF6F3100440B08819
:1012700031890843718908430443AC81AC8A4FF635
:10128000FF400440B0890443AC8201A8FFF74CFD45
:101290001F48874202D1DDF810A001E0DDF80CA064
:1012A000A88900F4004040B10AEBCA0000EB0A1024
:1012B00031684900B0FBF1F807E00AEBCA0000EB27
:1012C0000A1031688900B0FBF1F86420B8FBF0F037
:1012D00004012009642101FB1089A88900F4004061
:1012E00040B1322000EBC900B0FBF1F000F0070084
:1012F000044308E0322000EB09106421B0FBF1F058
:1013000000F00F0004432C8106B0BDE8F087000018
:101310000038014000BFFEE702E008C8121F08C104
:10132000002AFAD170477047002001E001C1121F66
:10133000002AFBD170470000002003E00021034A8F
:101340001154401C0828F9DB7047000020000020E1
:1013500010B56FF00400FFF7C7FD0A4800680A499E
:10136000B0FBF1F0094908700846007800EB400135
:10137000C1EBC0104FF6FF7101EAC00004490880BC
:1013800010BD00004C00002000127A003000002048
:10139000320000200146114A12884A434FF0E023F0
:1013A0005A6100229A611A46126942F001021A61DA
:1013B00000BF4FF0E022106900F001021AB100F402
:1013C0008032002AF5D04FF0E022126922F00102AB
:1013D0004FF0E0231A6100229A617047320000202A
:1013E00008B5FFF7B5FF4FF4A060FFF763FCFFF708
:1013F000E9FBFFF787FA0020042308220721009069
:10140000FFF788F84FF4FA70FFF7C4FF012009498D
:1014100008600949C1F8B001064908310860091D92
:101420000860091D086004E04FF400114320FFF735
:10143000BFF9F9E7AC812142008021425C14000829
:10144000000000206000000018130008BC14000811
:10145000600000206804000028130008000020003D
:1014600000004000000080000000000100000002B9
:101470000000000400000000000000000000000068
:10148000000000000000000000000000000000005C
:101490000000000000010203040102030406070823
:1014A000090204060800000000A24A04000000002F
:0C14B00000000000010203040607080908
:04000005080000ED02
:00000001FF
